Component: ARM Compiler 5.06 update 4 (build 422) Tool: armlink [4d35d2]

==============================================================================

Section Cross References

    startup_stm32g473xx.o(STACK) refers (Special) to heapauxi.o(.text) for __use_two_region_memory
    startup_stm32g473xx.o(HEAP) refers (Special) to heapauxi.o(.text) for __use_two_region_memory
    startup_stm32g473xx.o(RESET) refers (Special) to heapauxi.o(.text) for __use_two_region_memory
    startup_stm32g473xx.o(RESET) refers to startup_stm32g473xx.o(STACK) for __initial_sp
    startup_stm32g473xx.o(RESET) refers to startup_stm32g473xx.o(.text) for Reset_Handler
    startup_stm32g473xx.o(RESET) refers to stm32g4xx_it.o(i.NMI_Handler) for NMI_Handler
    startup_stm32g473xx.o(RESET) refers to stm32g4xx_it.o(i.HardFault_Handler) for HardFault_Handler
    startup_stm32g473xx.o(RESET) refers to stm32g4xx_it.o(i.MemManage_Handler) for MemManage_Handler
    startup_stm32g473xx.o(RESET) refers to stm32g4xx_it.o(i.BusFault_Handler) for BusFault_Handler
    startup_stm32g473xx.o(RESET) refers to stm32g4xx_it.o(i.UsageFault_Handler) for UsageFault_Handler
    startup_stm32g473xx.o(RESET) refers to stm32g4xx_it.o(i.SVC_Handler) for SVC_Handler
    startup_stm32g473xx.o(RESET) refers to stm32g4xx_it.o(i.DebugMon_Handler) for DebugMon_Handler
    startup_stm32g473xx.o(RESET) refers to stm32g4xx_it.o(i.PendSV_Handler) for PendSV_Handler
    startup_stm32g473xx.o(RESET) refers to stm32g4xx_it.o(i.SysTick_Handler) for SysTick_Handler
    startup_stm32g473xx.o(RESET) refers to stm32g4xx_it.o(i.DMA1_Channel1_IRQHandler) for DMA1_Channel1_IRQHandler
    startup_stm32g473xx.o(RESET) refers to stm32g4xx_it.o(i.DMA1_Channel2_IRQHandler) for DMA1_Channel2_IRQHandler
    startup_stm32g473xx.o(RESET) refers to stm32g4xx_it.o(i.DMA1_Channel3_IRQHandler) for DMA1_Channel3_IRQHandler
    startup_stm32g473xx.o(RESET) refers to stm32g4xx_it.o(i.ADC1_2_IRQHandler) for ADC1_2_IRQHandler
==============================================================================

Removing Unused input sections from the image.

    Removing main.o(.rev16_text), (4 bytes).
    Removing main.o(.revsh_text), (4 bytes).
    Removing main.o(.rrx_text), (6 bytes).
    Removing gpio.o(.rev16_text), (4 bytes).
    Removing gpio.o(.revsh_text), (4 bytes).
    Removing gpio.o(.rrx_text), (6 bytes).
    Removing adc.o(.rev16_text), (4 bytes).
    Removing adc.o(.revsh_text), (4 bytes).
    Removing adc.o(.rrx_text), (6 bytes).
    Removing adc.o(i.HAL_ADC_MspDeInit), (156 bytes).
    Removing dma.o(.rev16_text), (4 bytes).
    Removing dma.o(.revsh_text), (4 bytes).
    Removing dma.o(.rrx_text), (6 bytes).
    Removing tim.o(.rev16_text), (4 bytes).
    Removing tim.o(.revsh_text), (4 bytes).
    Removing tim.o(.rrx_text), (6 bytes).
    Removing tim.o(i.HAL_TIMEx_HallSensor_MspDeInit), (52 bytes).
    Removing tim.o(i.HAL_TIM_Base_MspDeInit), (36 bytes).
==============================================================================

Image Symbol Table

    Local Symbols

    Symbol Name                              Value     Ov Type        Size  Object(Section)

    ../Core/Src/adc.c                        0x00000000   Number         0  adc.o ABSOLUTE
    ../Core/Src/dma.c                        0x00000000   Number         0  dma.o ABSOLUTE
    ../Core/Src/gpio.c                       0x00000000   Number         0  gpio.o ABSOLUTE
    ../Core/Src/main.c                       0x00000000   Number         0  main.o ABSOLUTE
    ../Core/Src/stm32g4xx_hal_msp.c          0x00000000   Number         0  stm32g4xx_hal_msp.o ABSOLUTE
    ../Core/Src/stm32g4xx_it.c               0x00000000   Number         0  stm32g4xx_it.o ABSOLUTE
    ../Core/Src/system_stm32g4xx.c           0x00000000   Number         0  system_stm32g4xx.o ABSOLUTE
    ../Core/Src/tim.c                        0x00000000   Number         0  tim.o ABSOLUTE
    ../Core/Src/usart.c                      0x00000000   Number         0  usart.o ABSOLUTE
    ../Core/Src/usb.c                        0x00000000   Number         0  usb.o ABSOLUTE
    ../Drivers/STM32G4xx_HAL_Driver/Src/stm32g4xx_hal.c 0x00000000   Number         0  stm32g4xx_hal.o ABSOLUTE
    ../Drivers/STM32G4xx_HAL_Driver/Src/stm32g4xx_hal_adc.c 0x00000000   Number         0  stm32g4xx_hal_adc.o ABSOLUTE
    ../Drivers/STM32G4xx_HAL_Driver/Src/stm32g4xx_hal_adc_ex.c 0x00000000   Number         0  stm32g4xx_hal_adc_ex.o ABSOLUTE
    ../Drivers/STM32G4xx_HAL_Driver/Src/stm32g4xx_hal_cortex.c 0x00000000   Number         0  stm32g4xx_hal_cortex.o ABSOLUTE
    ../Drivers/STM32G4xx_HAL_Driver/Src/stm32g4xx_hal_dma.c 0x00000000   Number         0  stm32g4xx_hal_dma.o ABSOLUTE
    ../Drivers/STM32G4xx_HAL_Driver/Src/stm32g4xx_hal_dma_ex.c 0x00000000   Number         0  stm32g4xx_hal_dma_ex.o ABSOLUTE
    ../Drivers/STM32G4xx_HAL_Driver/Src/stm32g4xx_hal_exti.c 0x00000000   Number         0  stm32g4xx_hal_exti.o ABSOLUTE
    ../Drivers/STM32G4xx_HAL_Driver/Src/stm32g4xx_hal_flash.c 0x00000000   Number         0  stm32g4xx_hal_flash.o ABSOLUTE
    ../Drivers/STM32G4xx_HAL_Driver/Src/stm32g4xx_hal_flash_ex.c 0x00000000   Number         0  stm32g4xx_hal_flash_ex.o ABSOLUTE
    ../Drivers/STM32G4xx_HAL_Driver/Src/stm32g4xx_hal_flash_ramfunc.c 0x00000000   Number         0  stm32g4xx_hal_flash_ramfunc.o ABSOLUTE
    ../Drivers/STM32G4xx_HAL_Driver/Src/stm32g4xx_hal_gpio.c 0x00000000   Number         0  stm32g4xx_hal_gpio.o ABSOLUTE
    ../Drivers/STM32G4xx_HAL_Driver/Src/stm32g4xx_hal_pcd.c 0x00000000   Number         0  stm32g4xx_hal_pcd.o ABSOLUTE
    ../Drivers/STM32G4xx_HAL_Driver/Src/stm32g4xx_hal_pcd_ex.c 0x00000000   Number         0  stm32g4xx_hal_pcd_ex.o ABSOLUTE
    ../Drivers/STM32G4xx_HAL_Driver/Src/stm32g4xx_hal_pwr.c 0x00000000   Number         0  stm32g4xx_hal_pwr.o ABSOLUTE
    ../Drivers/STM32G4xx_HAL_Driver/Src/stm32g4xx_hal_pwr_ex.c 0x00000000   Number         0  stm32g4xx_hal_pwr_ex.o ABSOLUTE
    ../Drivers/STM32G4xx_HAL_Driver/Src/stm32g4xx_hal_rcc.c 0x00000000   Number         0  stm32g4xx_hal_rcc.o ABSOLUTE
    ../Drivers/STM32G4xx_HAL_Driver/Src/stm32g4xx_hal_rcc_ex.c 0x00000000   Number         0  stm32g4xx_hal_rcc_ex.o ABSOLUTE
    ../Drivers/STM32G4xx_HAL_Driver/Src/stm32g4xx_hal_tim.c 0x00000000   Number         0  stm32g4xx_hal_tim.o ABSOLUTE
    ../Drivers/STM32G4xx_HAL_Driver/Src/stm32g4xx_hal_tim_ex.c 0x00000000   Number         0  stm32g4xx_hal_tim_ex.o ABSOLUTE
    ../Drivers/STM32G4xx_HAL_Driver/Src/stm32g4xx_hal_uart.c 0x00000000   Number         0  stm32g4xx_hal_uart.o ABSOLUTE
    ../Drivers/STM32G4xx_HAL_Driver/Src/stm32g4xx_hal_uart_ex.c 0x00000000   Number         0  stm32g4xx_hal_uart_ex.o ABSOLUTE
    ../Drivers/STM32G4xx_HAL_Driver/Src/stm32g4xx_ll_adc.c 0x00000000   Number         0  stm32g4xx_ll_adc.o ABSOLUTE
    ../Drivers/STM32G4xx_HAL_Driver/Src/stm32g4xx_ll_usb.c 0x00000000   Number         0  stm32g4xx_ll_usb.o ABSOLUTE
    ../clib/angel/boardlib.s                 0x00000000   Number         0  boardinit1.o ABSOLUTE
    ../clib/angel/boardlib.s                 0x00000000   Number         0  boardinit3.o ABSOLUTE
    ../clib/angel/boardlib.s                 0x00000000   Number         0  boardinit2.o ABSOLUTE
    ../clib/angel/boardlib.s                 0x00000000   Number         0  boardshut.o ABSOLUTE
    ../clib/angel/dczerorl2.s                0x00000000   Number         0  __dczerorl2.o ABSOLUTE
    ../clib/angel/handlers.s                 0x00000000   Number         0  __scatter_zi.o ABSOLUTE
    ../clib/angel/kernel.s                   0x00000000   Number         0  rtexit2.o ABSOLUTE
    ../clib/angel/kernel.s                   0x00000000   Number         0  __rtentry2.o ABSOLUTE
    ../clib/angel/kernel.s                   0x00000000   Number         0  rtexit.o ABSOLUTE
    ../clib/angel/kernel.s                   0x00000000   Number         0  __rtentry4.o ABSOLUTE
    ../clib/angel/kernel.s                   0x00000000   Number         0  __rtentry.o ABSOLUTE
    ../clib/angel/rt.s                       0x00000000   Number         0  aeabi_ldiv0.o ABSOLUTE
    ../clib/angel/rt.s                       0x00000000   Number         0  aeabi_ldiv0_sigfpe.o ABSOLUTE
    ../clib/angel/rt.s                       0x00000000   Number         0  rt_ctype_table.o ABSOLUTE
    ../clib/angel/rt.s                       0x00000000   Number         0  rt_raise.o ABSOLUTE
    ../clib/angel/rt.s                       0x00000000   Number         0  rt_div0.o ABSOLUTE
    ../clib/angel/rt.s                       0x00000000   Number         0  rt_locale.o ABSOLUTE
    ../clib/angel/rt.s                       0x00000000   Number         0  rt_errno_addr.o ABSOLUTE
    ../clib/angel/rt.s                       0x00000000   Number         0  rt_locale_intlibspace.o ABSOLUTE
    ../clib/angel/rt.s                       0x00000000   Number         0  rt_errno_addr_intlibspace.o ABSOLUTE
    ../clib/angel/scatter.s                  0x00000000   Number         0  __scatter.o ABSOLUTE
    ../clib/angel/startup.s                  0x00000000   Number         0  __main.o ABSOLUTE
    ../clib/angel/sys.s                      0x00000000   Number         0  use_no_semi_2.o ABSOLUTE
    ../clib/angel/sys.s                      0x00000000   Number         0  sys_stackheap_outer.o ABSOLUTE
    ../clib/angel/sys.s                      0x00000000   Number         0  libspace.o ABSOLUTE
    ../clib/angel/sys.s                      0x00000000   Number         0  use_no_semi.o ABSOLUTE
    ../clib/armsys.c                         0x00000000   Number         0  no_argv.o ABSOLUTE
    ../clib/armsys.c                         0x00000000   Number         0  argv_veneer.o ABSOLUTE
    ../clib/armsys.c                         0x00000000   Number         0  argv_veneer.o ABSOLUTE
    ../clib/armsys.c                         0x00000000   Number         0  _get_argv_nomalloc.o ABSOLUTE
    ../clib/bigflt.c                         0x00000000   Number         0  bigflt0.o ABSOLUTE
    ../clib/btod.s                           0x00000000   Number         0  btod.o ABSOLUTE
    ../clib/fenv.c                           0x00000000   Number         0  _rserrno.o ABSOLUTE
    ../clib/heapalloc.c                      0x00000000   Number         0  hrguard.o ABSOLUTE
    ../clib/heapaux.c                        0x00000000   Number         0  heapauxi.o ABSOLUTE
    ../clib/libinit.s                        0x00000000   Number         0  libinit2.o ABSOLUTE
    ../clib/libinit.s                        0x00000000   Number         0  libshutdown2.o ABSOLUTE
    ../clib/libinit.s                        0x00000000   Number         0  libinit.o ABSOLUTE
    ../clib/libinit.s                        0x00000000   Number         0  libshutdown.o ABSOLUTE
    ../clib/locale.c                         0x00000000   Number         0  _wcrtomb.o ABSOLUTE
    ../clib/locale.s                         0x00000000   Number         0  lc_ctype_c.o ABSOLUTE
    ../clib/locale.s                         0x00000000   Number         0  lc_numeric_c.o ABSOLUTE
    ../clib/longlong.s                       0x00000000   Number         0  lludivv7m.o ABSOLUTE
    ../clib/longlong.s                       0x00000000   Number         0  lludiv10.o ABSOLUTE
    ../clib/memcpset.s                       0x00000000   Number         0  strcmpv7m.o ABSOLUTE
    ../clib/memcpset.s                       0x00000000   Number         0  rt_memclr_w.o ABSOLUTE
    ../clib/memcpset.s                       0x00000000   Number         0  rt_memcpy_w.o ABSOLUTE
    ../clib/misc.s                           0x00000000   Number         0  printf_stubs.o ABSOLUTE
    ../clib/printf.c                         0x00000000   Number         0  _printf_fp_infnan.o ABSOLUTE
    ../clib/printf.c                         0x00000000   Number         0  _printf_pad.o ABSOLUTE
    ../clib/printf.c                         0x00000000   Number         0  _printf_str.o ABSOLUTE
    ../clib/printf.c                         0x00000000   Number         0  _printf_intcommon.o ABSOLUTE
    ../clib/printf.c                         0x00000000   Number         0  _printf_fp_dec.o ABSOLUTE
    ../clib/printf.c                         0x00000000   Number         0  _printf_char_common.o ABSOLUTE
    ../clib/printf.c                         0x00000000   Number         0  _sputc.o ABSOLUTE
    ../clib/printf.c                         0x00000000   Number         0  _printf_char_file.o ABSOLUTE
    ../clib/printf.c                         0x00000000   Number         0  _printf_wctomb.o ABSOLUTE
    ../clib/printf.c                         0x00000000   Number         0  _printf_hex_ll.o ABSOLUTE
    ../clib/printf.c                         0x00000000   Number         0  __printf_ss_wp.o ABSOLUTE
    ../clib/printf.c                         0x00000000   Number         0  _printf_oct_int.o ABSOLUTE
    ../clib/printf.c                         0x00000000   Number         0  _printf_oct_ll.o ABSOLUTE
    ../clib/printf.c                         0x00000000   Number         0  _printf_longlong_dec.o ABSOLUTE
    ../clib/printf.c                         0x00000000   Number         0  vsprintf.o ABSOLUTE
    ../clib/printf.c                         0x00000000   Number         0  __2printf.o ABSOLUTE
    ../clib/printf.c                         0x00000000   Number         0  noretval__2printf.o ABSOLUTE
    ../clib/printf.c                         0x00000000   Number         0  _printf_charcount.o ABSOLUTE
    ../clib/printf.c                         0x00000000   Number         0  _printf_dec.o ABSOLUTE
    ../clib/printf.c                         0x00000000   Number         0  __printf_flags.o ABSOLUTE
    ../clib/printf.c                         0x00000000   Number         0  __printf_ss.o ABSOLUTE
    ../clib/printf.c                         0x00000000   Number         0  __printf_flags_ss.o ABSOLUTE
    ../clib/printf.c                         0x00000000   Number         0  __printf_wp.o ABSOLUTE
    ../clib/printf.c                         0x00000000   Number         0  __printf_flags_wp.o ABSOLUTE
    ../clib/printf.c                         0x00000000   Number         0  __printf.o ABSOLUTE
    ../clib/printf.c                         0x00000000   Number         0  _printf_wchar.o ABSOLUTE
    ../clib/printf.c                         0x00000000   Number         0  _printf_char.o ABSOLUTE
    ../clib/printf.c                         0x00000000   Number         0  __printf_nopercent.o ABSOLUTE
    ../clib/printf.c                         0x00000000   Number         0  __printf_flags_ss_wp.o ABSOLUTE
    ../clib/printf.c                         0x00000000   Number         0  _printf_fp_hex.o ABSOLUTE
    ../clib/printf.c                         0x00000000   Number         0  _printf_oct_int_ll.o ABSOLUTE
    ../clib/printf.c                         0x00000000   Number         0  _printf_hex_int_ll_ptr.o ABSOLUTE
    ../clib/printf.c                         0x00000000   Number         0  _printf_hex_ll_ptr.o ABSOLUTE
    ../clib/printf.c                         0x00000000   Number         0  _printf_truncate.o ABSOLUTE
    ../clib/printf.c                         0x00000000   Number         0  _printf_hex_int_ptr.o ABSOLUTE
    ../clib/printf.c                         0x00000000   Number         0  _printf_hex_ptr.o ABSOLUTE
    ../clib/printf.c                         0x00000000   Number         0  _printf_hex_int_ll.o ABSOLUTE
    ../clib/printf.c                         0x00000000   Number         0  _printf_hex_int.o ABSOLUTE
    ../clib/printf_percent.s                 0x00000000   Number         0  _printf_lld.o ABSOLUTE
    ../clib/printf_percent.s                 0x00000000   Number         0  _printf_llu.o ABSOLUTE
    ../clib/printf_percent.s                 0x00000000   Number         0  _printf_ll.o ABSOLUTE
    ../clib/printf_percent.s                 0x00000000   Number         0  _printf_lli.o ABSOLUTE
    ../clib/printf_percent.s                 0x00000000   Number         0  _printf_l.o ABSOLUTE
    ../clib/printf_percent.s                 0x00000000   Number         0  _printf_i.o ABSOLUTE
    ../clib/printf_percent.s                 0x00000000   Number         0  _printf_d.o ABSOLUTE
    ../clib/printf_percent.s                 0x00000000   Number         0  _printf_o.o ABSOLUTE
    ../clib/printf_percent.s                 0x00000000   Number         0  _printf_f.o ABSOLUTE
    ../clib/printf_percent.s                 0x00000000   Number         0  _printf_e.o ABSOLUTE
    ../clib/printf_percent.s                 0x00000000   Number         0  _printf_percent.o ABSOLUTE
    ../clib/printf_percent.s                 0x00000000   Number         0  _printf_x.o ABSOLUTE
    ../clib/printf_percent.s                 0x00000000   Number         0  _printf_u.o ABSOLUTE
    ../clib/printf_percent.s                 0x00000000   Number         0  _printf_s.o ABSOLUTE
    ../clib/printf_percent.s                 0x00000000   Number         0  _printf_g.o ABSOLUTE
    ../clib/printf_percent.s                 0x00000000   Number         0  _printf_a.o ABSOLUTE
    ../clib/printf_percent.s                 0x00000000   Number         0  _printf_llx.o ABSOLUTE
    ../clib/printf_percent.s                 0x00000000   Number         0  _printf_percent_end.o ABSOLUTE
    ../clib/printf_percent.s                 0x00000000   Number         0  _printf_c.o ABSOLUTE
    ../clib/printf_percent.s                 0x00000000   Number         0  _printf_p.o ABSOLUTE
    ../clib/printf_percent.s                 0x00000000   Number         0  _printf_llo.o ABSOLUTE
    ../clib/printf_percent.s                 0x00000000   Number         0  _printf_ls.o ABSOLUTE
    ../clib/printf_percent.s                 0x00000000   Number         0  _printf_lc.o ABSOLUTE
    ../clib/printf_percent.s                 0x00000000   Number         0  _printf_n.o ABSOLUTE
    ../clib/signal.c                         0x00000000   Number         0  defsig_general.o ABSOLUTE
    ../clib/signal.c                         0x00000000   Number         0  defsig_rtmem_outer.o ABSOLUTE
    ../clib/signal.c                         0x00000000   Number         0  defsig_rtmem_formal.o ABSOLUTE
    ../clib/signal.c                         0x00000000   Number         0  defsig_fpe_inner.o ABSOLUTE
    ../clib/signal.c                         0x00000000   Number         0  defsig_exit.o ABSOLUTE
    ../clib/signal.c                         0x00000000   Number         0  defsig_abrt_inner.o ABSOLUTE
    ../clib/signal.c                         0x00000000   Number         0  defsig_rtred_inner.o ABSOLUTE
    ../clib/signal.c                         0x00000000   Number         0  defsig_rtmem_inner.o ABSOLUTE
    ../clib/signal.c                         0x00000000   Number         0  defsig_stak_inner.o ABSOLUTE
    ../clib/signal.c                         0x00000000   Number         0  defsig_pvfn_inner.o ABSOLUTE
    ../clib/signal.c                         0x00000000   Number         0  defsig_cppl_inner.o ABSOLUTE
    ../clib/signal.c                         0x00000000   Number         0  defsig_segv_inner.o ABSOLUTE
    ../clib/signal.c                         0x00000000   Number         0  defsig_other.o ABSOLUTE
    ../clib/signal.c                         0x00000000   Number         0  defsig_fpe_outer.o ABSOLUTE
    ../clib/signal.c                         0x00000000   Number         0  defsig_fpe_formal.o ABSOLUTE
    ../clib/signal.c                         0x00000000   Number         0  __raise.o ABSOLUTE
    ../clib/signal.s                         0x00000000   Number         0  defsig.o ABSOLUTE
    ../clib/stdio.c                          0x00000000   Number         0  ferror.o ABSOLUTE
    ../clib/stdio.c                          0x00000000   Number         0  ferror_locked.o ABSOLUTE
    ../clib/stdlib.c                         0x00000000   Number         0  exit.o ABSOLUTE
    ../clib/string.c                         0x00000000   Number         0  strlen.o ABSOLUTE
    ../fplib/dretinf.s                       0x00000000   Number         0  dretinf.o ABSOLUTE
    ../fplib/f2d.s                           0x00000000   Number         0  f2d.o ABSOLUTE
    ../fplib/ffixll.s                        0x00000000   Number         0  ffixll.o ABSOLUTE
    ../fplib/fnaninf.s                       0x00000000   Number         0  fnaninf.o ABSOLUTE
    ../fplib/fpinit.s                        0x00000000   Number         0  fpinit.o ABSOLUTE
    ../fplib/frem.s                          0x00000000   Number         0  frem_clz.o ABSOLUTE
    ../fplib/istatus.s                       0x00000000   Number         0  istatus.o ABSOLUTE
    ../fplib/printf1.s                       0x00000000   Number         0  printf1.o ABSOLUTE
    ../fplib/printf2.s                       0x00000000   Number         0  printf2.o ABSOLUTE
    ../fplib/printf2a.s                      0x00000000   Number         0  printf2a.o ABSOLUTE
    ../fplib/printf2b.s                      0x00000000   Number         0  printf2b.o ABSOLUTE
    ../fplib/usenofp.s                       0x00000000   Number         0  usenofp.o ABSOLUTE
    ../mathlib/fmodf.c                       0x00000000   Number         0  fmodf.o ABSOLUTE
    ../mathlib/fmodf.c                       0x00000000   Number         0  fmodf_x.o ABSOLUTE
    ../mathlib/fpclassify.c                  0x00000000   Number         0  fpclassify.o ABSOLUTE
    ../mathlib/funder.c                      0x00000000   Number         0  funder.o ABSOLUTE
    ..\Core\Src\adc.c                        0x00000000   Number         0  adc.o ABSOLUTE
    ..\Core\Src\dma.c                        0x00000000   Number         0  dma.o ABSOLUTE
    ..\Core\Src\gpio.c                       0x00000000   Number         0  gpio.o ABSOLUTE
    ..\Core\Src\main.c                       0x00000000   Number         0  main.o ABSOLUTE
    ..\Core\Src\stm32g4xx_hal_msp.c          0x00000000   Number         0  stm32g4xx_hal_msp.o ABSOLUTE
    ..\Core\Src\stm32g4xx_it.c               0x00000000   Number         0  stm32g4xx_it.o ABSOLUTE
    ..\Core\Src\system_stm32g4xx.c           0x00000000   Number         0  system_stm32g4xx.o ABSOLUTE
    ..\Core\Src\tim.c                        0x00000000   Number         0  tim.o ABSOLUTE
    ..\Core\Src\usart.c                      0x00000000   Number         0  usart.o ABSOLUTE
    ..\Core\Src\usb.c                        0x00000000   Number         0  usb.o ABSOLUTE
    ..\Drivers\STM32G4xx_HAL_Driver\Src\stm32g4xx_hal.c 0x00000000   Number         0  stm32g4xx_hal.o ABSOLUTE
    ..\Drivers\STM32G4xx_HAL_Driver\Src\stm32g4xx_hal_adc.c 0x00000000   Number         0  stm32g4xx_hal_adc.o ABSOLUTE
    ..\Drivers\STM32G4xx_HAL_Driver\Src\stm32g4xx_hal_adc_ex.c 0x00000000   Number         0  stm32g4xx_hal_adc_ex.o ABSOLUTE
    ..\Drivers\STM32G4xx_HAL_Driver\Src\stm32g4xx_hal_cortex.c 0x00000000   Number         0  stm32g4xx_hal_cortex.o ABSOLUTE
    ..\Drivers\STM32G4xx_HAL_Driver\Src\stm32g4xx_hal_dma.c 0x00000000   Number         0  stm32g4xx_hal_dma.o ABSOLUTE
    ..\Drivers\STM32G4xx_HAL_Driver\Src\stm32g4xx_hal_dma_ex.c 0x00000000   Number         0  stm32g4xx_hal_dma_ex.o ABSOLUTE
    ..\Drivers\STM32G4xx_HAL_Driver\Src\stm32g4xx_hal_exti.c 0x00000000   Number         0  stm32g4xx_hal_exti.o ABSOLUTE
    ..\Drivers\STM32G4xx_HAL_Driver\Src\stm32g4xx_hal_flash.c 0x00000000   Number         0  stm32g4xx_hal_flash.o ABSOLUTE
    ..\Drivers\STM32G4xx_HAL_Driver\Src\stm32g4xx_hal_flash_ex.c 0x00000000   Number         0  stm32g4xx_hal_flash_ex.o ABSOLUTE
    ..\Drivers\STM32G4xx_HAL_Driver\Src\stm32g4xx_hal_flash_ramfunc.c 0x00000000   Number         0  stm32g4xx_hal_flash_ramfunc.o ABSOLUTE
    ..\Drivers\STM32G4xx_HAL_Driver\Src\stm32g4xx_hal_gpio.c 0x00000000   Number         0  stm32g4xx_hal_gpio.o ABSOLUTE
    ..\Drivers\STM32G4xx_HAL_Driver\Src\stm32g4xx_hal_pcd.c 0x00000000   Number         0  stm32g4xx_hal_pcd.o ABSOLUTE
    ..\Drivers\STM32G4xx_HAL_Driver\Src\stm32g4xx_hal_pcd_ex.c 0x00000000   Number         0  stm32g4xx_hal_pcd_ex.o ABSOLUTE
    ..\Drivers\STM32G4xx_HAL_Driver\Src\stm32g4xx_hal_pwr.c 0x00000000   Number         0  stm32g4xx_hal_pwr.o ABSOLUTE
    ..\Drivers\STM32G4xx_HAL_Driver\Src\stm32g4xx_hal_pwr_ex.c 0x00000000   Number         0  stm32g4xx_hal_pwr_ex.o ABSOLUTE
    ..\Drivers\STM32G4xx_HAL_Driver\Src\stm32g4xx_hal_rcc.c 0x00000000   Number         0  stm32g4xx_hal_rcc.o ABSOLUTE
    ..\Drivers\STM32G4xx_HAL_Driver\Src\stm32g4xx_hal_rcc_ex.c 0x00000000   Number         0  stm32g4xx_hal_rcc_ex.o ABSOLUTE
    ..\Drivers\STM32G4xx_HAL_Driver\Src\stm32g4xx_hal_tim.c 0x00000000   Number         0  stm32g4xx_hal_tim.o ABSOLUTE
    ..\Drivers\STM32G4xx_HAL_Driver\Src\stm32g4xx_hal_tim_ex.c 0x00000000   Number         0  stm32g4xx_hal_tim_ex.o ABSOLUTE
    ..\Drivers\STM32G4xx_HAL_Driver\Src\stm32g4xx_hal_uart.c 0x00000000   Number         0  stm32g4xx_hal_uart.o ABSOLUTE
    ..\Drivers\STM32G4xx_HAL_Driver\Src\stm32g4xx_hal_uart_ex.c 0x00000000   Number         0  stm32g4xx_hal_uart_ex.o ABSOLUTE
    ..\Drivers\STM32G4xx_HAL_Driver\Src\stm32g4xx_ll_usb.c 0x00000000   Number         0  stm32g4xx_ll_usb.o ABSOLUTE
    arm_common_tables.c                      0x00000000   Number         0  arm_common_tables.o ABSOLUTE
    arm_cos_f32.c                            0x00000000   Number         0  arm_cos_f32.o ABSOLUTE
    arm_sin_f32.c                            0x00000000   Number         0  arm_sin_f32.o ABSOLUTE
    dc.s                                     0x00000000   Number         0  dc.o ABSOLUTE
    other_file\DEBUG\debug.c                 0x00000000   Number         0  debug.o ABSOLUTE
    other_file\\DEBUG\\debug.c               0x00000000   Number         0  debug.o ABSOLUTE
    other_file\\bsp\\bsp.c                   0x00000000   Number         0  bsp.o ABSOLUTE
    other_file\\bsp\\bsp_irq.c               0x00000000   Number         0  bsp_irq.o ABSOLUTE
    other_file\\bsp\\cc6920so\\cc6920so.c    0x00000000   Number         0  cc6920so.o ABSOLUTE
    other_file\\foc\\foc_app.c               0x00000000   Number         0  foc_app.o ABSOLUTE
    other_file\\foc\\foc_current.c           0x00000000   Number         0  foc_current.o ABSOLUTE
    other_file\\foc\\foc_encoder.c           0x00000000   Number         0  foc_encoder.o ABSOLUTE
    other_file\\foc\\foc_filter.c            0x00000000   Number         0  foc_filter.o ABSOLUTE
    other_file\\foc\\foc_flux.c              0x00000000   Number         0  foc_flux.o ABSOLUTE
    other_file\\foc\\foc_hall.c              0x00000000   Number         0  foc_hall.o ABSOLUTE
    other_file\\foc\\foc_hfi.c               0x00000000   Number         0  foc_hfi.o ABSOLUTE
    other_file\\foc\\foc_identify.c          0x00000000   Number         0  foc_identify.o ABSOLUTE
    other_file\\foc\\foc_math.c              0x00000000   Number         0  foc_math.o ABSOLUTE
    other_file\\foc\\foc_motor.c             0x00000000   Number         0  foc_motor.o ABSOLUTE
    other_file\\foc\\foc_pid.c               0x00000000   Number         0  foc_pid.o ABSOLUTE
    other_file\\foc\\foc_port.c              0x00000000   Number         0  foc_port.o ABSOLUTE
    other_file\\foc\\foc_pwm.c               0x00000000   Number         0  foc_pwm.o ABSOLUTE
    other_file\\foc\\foc_sensorless.c        0x00000000   Number         0  foc_sensorless.o ABSOLUTE
    other_file\\foc\\foc_smo.c               0x00000000   Number         0  foc_smo.o ABSOLUTE
    other_file\\foc\\foc_vf.c                0x00000000   Number         0  foc_vf.o ABSOLUTE
    other_file\\system_m4\\delay.c           0x00000000   Number         0  delay.o ABSOLUTE
    other_file\\system_m4\\my_usart.c        0x00000000   Number         0  my_usart.o ABSOLUTE
    other_file\\system_m4\\sys.c             0x00000000   Number         0  sys.o ABSOLUTE
    other_file\\usb\\STM32_USB_Device_Library\\Class\\CDC\\Src\\usbd_cdc.c 0x00000000   Number         0  usbd_cdc.o ABSOLUTE
    other_file\\usb\\STM32_USB_Device_Library\\Core\\Src\\usbd_core.c 0x00000000   Number         0  usbd_core.o ABSOLUTE
    other_file\\usb\\STM32_USB_Device_Library\\Core\\Src\\usbd_ctlreq.c 0x00000000   Number         0  usbd_ctlreq.o ABSOLUTE
    other_file\\usb\\STM32_USB_Device_Library\\Core\\Src\\usbd_ioreq.c 0x00000000   Number         0  usbd_ioreq.o ABSOLUTE
    other_file\\usb\\USB_APP\\usb_device.c   0x00000000   Number         0  usb_device.o ABSOLUTE
    other_file\\usb\\USB_APP\\usbd_cdc_if.c  0x00000000   Number         0  usbd_cdc_if.o ABSOLUTE
    other_file\\usb\\USB_APP\\usbd_conf.c    0x00000000   Number         0  usbd_conf.o ABSOLUTE
    other_file\\usb\\USB_APP\\usbd_desc.c    0x00000000   Number         0  usbd_desc.o ABSOLUTE
    other_file\bsp\bsp.c                     0x00000000   Number         0  bsp.o ABSOLUTE
    other_file\bsp\bsp_irq.c                 0x00000000   Number         0  bsp_irq.o ABSOLUTE
    other_file\bsp\cc6920so\cc6920so.c       0x00000000   Number         0  cc6920so.o ABSOLUTE
    other_file\foc\foc_app.c                 0x00000000   Number         0  foc_app.o ABSOLUTE
    other_file\foc\foc_current.c             0x00000000   Number         0  foc_current.o ABSOLUTE
    other_file\foc\foc_encoder.c             0x00000000   Number         0  foc_encoder.o ABSOLUTE
    other_file\foc\foc_filter.c              0x00000000   Number         0  foc_filter.o ABSOLUTE
    other_file\foc\foc_flux.c                0x00000000   Number         0  foc_flux.o ABSOLUTE
    other_file\foc\foc_hall.c                0x00000000   Number         0  foc_hall.o ABSOLUTE
    other_file\foc\foc_hfi.c                 0x00000000   Number         0  foc_hfi.o ABSOLUTE
    other_file\foc\foc_identify.c            0x00000000   Number         0  foc_identify.o ABSOLUTE
    other_file\foc\foc_math.c                0x00000000   Number         0  foc_math.o ABSOLUTE
    other_file\foc\foc_motor.c               0x00000000   Number         0  foc_motor.o ABSOLUTE
    other_file\foc\foc_pid.c                 0x00000000   Number         0  foc_pid.o ABSOLUTE
    other_file\foc\foc_port.c                0x00000000   Number         0  foc_port.o ABSOLUTE
    other_file\foc\foc_pwm.c                 0x00000000   Number         0  foc_pwm.o ABSOLUTE
    other_file\foc\foc_sensorless.c          0x00000000   Number         0  foc_sensorless.o ABSOLUTE
    other_file\foc\foc_smo.c                 0x00000000   Number         0  foc_smo.o ABSOLUTE
    other_file\foc\foc_vf.c                  0x00000000   Number         0  foc_vf.o ABSOLUTE
    other_file\system_m4\delay.c             0x00000000   Number         0  delay.o ABSOLUTE
    other_file\system_m4\my_usart.c          0x00000000   Number         0  my_usart.o ABSOLUTE
    other_file\system_m4\sys.c               0x00000000   Number         0  sys.o ABSOLUTE
    other_file\usb\STM32_USB_Device_Library\Class\CDC\Src\usbd_cdc.c 0x00000000   Number         0  usbd_cdc.o ABSOLUTE
    other_file\usb\STM32_USB_Device_Library\Core\Src\usbd_core.c 0x00000000   Number         0  usbd_core.o ABSOLUTE
    other_file\usb\STM32_USB_Device_Library\Core\Src\usbd_ctlreq.c 0x00000000   Number         0  usbd_ctlreq.o ABSOLUTE
    other_file\usb\STM32_USB_Device_Library\Core\Src\usbd_ioreq.c 0x00000000   Number         0  usbd_ioreq.o ABSOLUTE
    other_file\usb\USB_APP\usb_device.c      0x00000000   Number         0  usb_device.o ABSOLUTE
    other_file\usb\USB_APP\usbd_cdc_if.c     0x00000000   Number         0  usbd_cdc_if.o ABSOLUTE
    other_file\usb\USB_APP\usbd_conf.c       0x00000000   Number         0  usbd_conf.o ABSOLUTE
    other_file\usb\USB_APP\usbd_desc.c       0x00000000   Number         0  usbd_desc.o ABSOLUTE
    startup_stm32g473xx.s                    0x00000000   Number         0  startup_stm32g473xx.o ABSOLUTE
    RESET                                    0x08000000   Section      472  startup_stm32g473xx.o(RESET)
    !!!main                                  0x080001d8   Section        8  __main.o(!!!main)
    !!!scatter                               0x080001e0   Section       52  __scatter.o(!!!scatter)
    !!dczerorl2                              0x08000214   Section       90  __dczerorl2.o(!!dczerorl2)
    !!handler_zi                             0x08000270   Section       28  __scatter_zi.o(!!handler_zi)
    .ARM.Collect$$_printf_percent$$00000000  0x0800028c   Section        0  _printf_percent.o(.ARM.Collect$$_printf_percent$$00000000)
    .ARM.Collect$$_printf_percent$$00000003  0x0800028c   Section        6  _printf_f.o(.ARM.Collect$$_printf_percent$$00000003)
    .ARM.Collect$$_printf_percent$$00000009  0x08000292   Section        6  _printf_d.o(.ARM.Collect$$_printf_percent$$00000009)
    .ARM.Collect$$_printf_percent$$00000017  0x08000298   Section        4  _printf_percent_end.o(.ARM.Collect$$_printf_percent$$00000017)
    .ARM.Collect$$libinit$$00000000          0x0800029c   Section        2  libinit.o(.ARM.Collect$$libinit$$00000000)
    .ARM.Collect$$libinit$$00000001          0x0800029e   Section        4  libinit2.o(.ARM.Collect$$libinit$$00000001)
    .ARM.Collect$$libinit$$00000004          0x080002a2   Section        0  libinit2.o(.ARM.Collect$$libinit$$00000004)
    .ARM.Collect$$libinit$$0000000A          0x080002a2   Section        0  libinit2.o(.ARM.Collect$$libinit$$0000000A)
    .ARM.Collect$$libinit$$0000000C          0x080002a2   Section        0  libinit2.o(.ARM.Collect$$libinit$$0000000C)
    .ARM.Collect$$libinit$$0000000E          0x080002a2   Section        0  libinit2.o(.ARM.Collect$$libinit$$0000000E)
    .ARM.Collect$$libinit$$0000000F          0x080002a2   Section        6  libinit2.o(.ARM.Collect$$libinit$$0000000F)
    .ARM.Collect$$libinit$$00000011          0x080002a8   Section        0  libinit2.o(.ARM.Collect$$libinit$$00000011)
    .ARM.Collect$$libinit$$00000013          0x080002a8   Section        0  libinit2.o(.ARM.Collect$$libinit$$00000013)
    .ARM.Collect$$libinit$$00000015          0x080002a8   Section        0  libinit2.o(.ARM.Collect$$libinit$$00000015)
    .ARM.Collect$$libinit$$00000016          0x080002a8   Section       10  libinit2.o(.ARM.Collect$$libinit$$00000016)
    .ARM.Collect$$libinit$$00000017          0x080002b2   Section        0  libinit2.o(.ARM.Collect$$libinit$$00000017)
    .ARM.Collect$$libinit$$00000019          0x080002b2   Section        0  libinit2.o(.ARM.Collect$$libinit$$00000019)
    .ARM.Collect$$libinit$$0000001B          0x080002b2   Section        0  libinit2.o(.ARM.Collect$$libinit$$0000001B)
    .ARM.Collect$$libinit$$0000001D          0x080002b2   Section        0  libinit2.o(.ARM.Collect$$libinit$$0000001D)
    .ARM.Collect$$libinit$$0000001F          0x080002b2   Section        0  libinit2.o(.ARM.Collect$$libinit$$0000001F)
    .ARM.Collect$$libinit$$00000021          0x080002b2   Section        0  libinit2.o(.ARM.Collect$$libinit$$00000021)
    .ARM.Collect$$libinit$$00000023          0x080002b2   Section        0  libinit2.o(.ARM.Collect$$libinit$$00000023)
    .ARM.Collect$$libinit$$00000025          0x080002b2   Section        0  libinit2.o(.ARM.Collect$$libinit$$00000025)
    .ARM.Collect$$libinit$$0000002C          0x080002b2   Section        0  libinit2.o(.ARM.Collect$$libinit$$0000002C)
    .ARM.Collect$$libinit$$0000002E          0x080002b2   Section        0  libinit2.o(.ARM.Collect$$libinit$$0000002E)
    .ARM.Collect$$libinit$$00000030          0x080002b2   Section        0  libinit2.o(.ARM.Collect$$libinit$$00000030)
    .ARM.Collect$$libinit$$00000032          0x080002b2   Section        0  libinit2.o(.ARM.Collect$$libinit$$00000032)
    .ARM.Collect$$libinit$$00000033          0x080002b2   Section        2  libinit2.o(.ARM.Collect$$libinit$$00000033)
    .ARM.Collect$$libshutdown$$00000000      0x080002b4   Section        2  libshutdown.o(.ARM.Collect$$libshutdown$$00000000)
    .ARM.Collect$$libshutdown$$00000002      0x080002b6   Section        0  libshutdown2.o(.ARM.Collect$$libshutdown$$00000002)
    .ARM.Collect$$libshutdown$$00000004      0x080002b6   Section        0  libshutdown2.o(.ARM.Collect$$libshutdown$$00000004)
    .ARM.Collect$$libshutdown$$00000007      0x080002b6   Section        0  libshutdown2.o(.ARM.Collect$$libshutdown$$00000007)
    .ARM.Collect$$libshutdown$$0000000A      0x080002b6   Section        0  libshutdown2.o(.ARM.Collect$$libshutdown$$0000000A)
    .ARM.Collect$$libshutdown$$0000000C      0x080002b6   Section        0  libshutdown2.o(.ARM.Collect$$libshutdown$$0000000C)
    .ARM.Collect$$libshutdown$$0000000F      0x080002b6   Section        0  libshutdown2.o(.ARM.Collect$$libshutdown$$0000000F)
    .ARM.Collect$$libshutdown$$00000010      0x080002b6   Section        2  libshutdown2.o(.ARM.Collect$$libshutdown$$00000010)
    .ARM.Collect$$rtentry$$00000000          0x080002b8   Section        0  __rtentry.o(.ARM.Collect$$rtentry$$00000000)
    .ARM.Collect$$rtentry$$00000002          0x080002b8   Section        0  __rtentry2.o(.ARM.Collect$$rtentry$$00000002)
    .ARM.Collect$$rtentry$$00000004          0x080002b8   Section        6  __rtentry4.o(.ARM.Collect$$rtentry$$00000004)
    .ARM.Collect$$rtentry$$00000009          0x080002be   Section        0  __rtentry2.o(.ARM.Collect$$rtentry$$00000009)
    .ARM.Collect$$rtentry$$0000000A          0x080002be   Section        4  __rtentry2.o(.ARM.Collect$$rtentry$$0000000A)
    .ARM.Collect$$rtentry$$0000000C          0x080002c2   Section        0  __rtentry2.o(.ARM.Collect$$rtentry$$0000000C)
    .ARM.Collect$$rtentry$$0000000D          0x080002c2   Section        8  __rtentry2.o(.ARM.Collect$$rtentry$$0000000D)
    .ARM.Collect$$rtexit$$00000000           0x080002ca   Section        2  rtexit.o(.ARM.Collect$$rtexit$$00000000)
    .ARM.Collect$$rtexit$$00000002           0x080002cc   Section        0  rtexit2.o(.ARM.Collect$$rtexit$$00000002)
    .ARM.Collect$$rtexit$$00000003           0x080002cc   Section        4  rtexit2.o(.ARM.Collect$$rtexit$$00000003)
    .ARM.Collect$$rtexit$$00000004           0x080002d0   Section        6  rtexit2.o(.ARM.Collect$$rtexit$$00000004)
    .text                                    0x080002d8   Section       60  startup_stm32g473xx.o(.text)
    $v0                                      0x080002d8   Number         0  startup_stm32g473xx.o(.text)
    .text                                    0x08000314   Section        2  use_no_semi_2.o(.text)
    .text                                    0x08000316   Section      238  lludivv7m.o(.text)
    .text                                    0x08000404   Section        0  __2printf.o(.text)
    .text                                    0x0800041c   Section        0  _printf_dec.o(.text)
    .text                                    0x08000494   Section        0  __printf_flags_ss_wp.o(.text)
    .text                                    0x0800061c   Section      100  rt_memcpy_w.o(.text)
    .text                                    0x08000680   Section       78  rt_memclr_w.o(.text)
    .text                                    0x080006ce   Section        0  heapauxi.o(.text)
    .text                                    0x080006d4   Section        2  use_no_semi.o(.text)
    .text                                    0x080006d6   Section        0  _rserrno.o(.text)
    .text                                    0x080006ec   Section        0  _printf_intcommon.o(.text)
    .text                                    0x0800079e   Section        0  _printf_fp_dec.o(.text)
    _fp_digits                               0x080007a1   Thumb Code   428  _printf_fp_dec.o(.text)
    .text                                    0x08000bb8   Section        0  _printf_char_common.o(.text)
    _printf_input_char                       0x08000bb9   Thumb Code    10  _printf_char_common.o(.text)
    .text                                    0x08000be8   Section        0  _printf_char_file.o(.text)
    .text                                    0x08000c0c   Section        8  rt_locale_intlibspace.o(.text)
    .text                                    0x08000c14   Section        8  rt_errno_addr_intlibspace.o(.text)
    .text                                    0x08000c1c   Section      138  lludiv10.o(.text)
    .text                                    0x08000ca8   Section        0  _printf_fp_infnan.o(.text)
    .text                                    0x08000d28   Section        0  bigflt0.o(.text)
    .text                                    0x08000e04   Section        0  ferror.o(.text)
    .text                                    0x08000e0c   Section        8  libspace.o(.text)
    .text                                    0x08000e14   Section       74  sys_stackheap_outer.o(.text)
    .text                                    0x08000e5e   Section        0  exit.o(.text)
    .text                                    0x08000e70   Section      128  strcmpv7m.o(.text)
    [Anonymous Symbol]                       0x08000ef0   Section        0  arm_cos_f32.o(.text.arm_cos_f32)
    [Anonymous Symbol]                       0x08000f88   Section        0  arm_sin_f32.o(.text.arm_sin_f32)
    CL$$btod_d2e                             0x08001018   Section       62  btod.o(CL$$btod_d2e)
    CL$$btod_d2e_denorm_low                  0x08001056   Section       70  btod.o(CL$$btod_d2e_denorm_low)
    CL$$btod_d2e_norm_op1                    0x0800109c   Section       96  btod.o(CL$$btod_d2e_norm_op1)
    CL$$btod_div_common                      0x080010fc   Section      824  btod.o(CL$$btod_div_common)
    CL$$btod_e2e                             0x08001434   Section      198  btod.o(CL$$btod_e2e)
    CL$$btod_ediv                            0x080014fa   Section       40  btod.o(CL$$btod_ediv)
    CL$$btod_emul                            0x08001522   Section       40  btod.o(CL$$btod_emul)
    CL$$btod_mult_common                     0x0800154a   Section      580  btod.o(CL$$btod_mult_common)
    i.ADC1_2_IRQHandler                      0x08001790   Section        0  stm32g4xx_it.o(i.ADC1_2_IRQHandler)
    i.ADC3_IRQHandler                        0x080017ac   Section        0  stm32g4xx_it.o(i.ADC3_IRQHandler)
    i.ADC_Disable                            0x080017b8   Section        0  stm32g4xx_hal_adc.o(i.ADC_Disable)
    i.ADC_Enable                             0x08001828   Section        0  stm32g4xx_hal_adc.o(i.ADC_Enable)
    i.BSP_Init                               0x080018ec   Section        0  bsp.o(i.BSP_Init)
    i.BusFault_Handler                       0x0800192c   Section        0  stm32g4xx_it.o(i.BusFault_Handler)
    i.CC6920SO_CalcCur                       0x08001930   Section        0  cc6920so.o(i.CC6920SO_CalcCur)
    i.CC6920SO_Init                          0x08001984   Section        0  cc6920so.o(i.CC6920SO_Init)
    i.CDC_Control_FS                         0x08001a14   Section        0  usbd_cdc_if.o(i.CDC_Control_FS)
    CDC_Control_FS                           0x08001a15   Thumb Code    78  usbd_cdc_if.o(i.CDC_Control_FS)
    i.CDC_DeInit_FS                          0x08001a68   Section        0  usbd_cdc_if.o(i.CDC_DeInit_FS)
    CDC_DeInit_FS                            0x08001a69   Thumb Code     4  usbd_cdc_if.o(i.CDC_DeInit_FS)
    i.CDC_Init_FS                            0x08001a6c   Section        0  usbd_cdc_if.o(i.CDC_Init_FS)
    CDC_Init_FS                              0x08001a6d   Thumb Code    14  usbd_cdc_if.o(i.CDC_Init_FS)
    i.CDC_Receive_FS                         0x08001a84   Section        0  usbd_cdc_if.o(i.CDC_Receive_FS)
    CDC_Receive_FS                           0x08001a85   Thumb Code    24  usbd_cdc_if.o(i.CDC_Receive_FS)
    i.DMA1_Channel1_IRQHandler               0x08001aa0   Section        0  stm32g4xx_it.o(i.DMA1_Channel1_IRQHandler)
    i.DMA1_Channel2_IRQHandler               0x08001aac   Section        0  stm32g4xx_it.o(i.DMA1_Channel2_IRQHandler)
    i.DMA1_Channel3_IRQHandler               0x08001ab8   Section        0  stm32g4xx_it.o(i.DMA1_Channel3_IRQHandler)
    i.DMA_CalcDMAMUXChannelBaseAndMask       0x08001ac4   Section        0  stm32g4xx_hal_dma.o(i.DMA_CalcDMAMUXChannelBaseAndMask)
    DMA_CalcDMAMUXChannelBaseAndMask         0x08001ac5   Thumb Code    54  stm32g4xx_hal_dma.o(i.DMA_CalcDMAMUXChannelBaseAndMask)
    i.DMA_CalcDMAMUXRequestGenBaseAndMask    0x08001b04   Section        0  stm32g4xx_hal_dma.o(i.DMA_CalcDMAMUXRequestGenBaseAndMask)
    DMA_CalcDMAMUXRequestGenBaseAndMask      0x08001b05   Thumb Code    30  stm32g4xx_hal_dma.o(i.DMA_CalcDMAMUXRequestGenBaseAndMask)
    i.DebugMon_Handler                       0x08001b28   Section        0  stm32g4xx_it.o(i.DebugMon_Handler)
    i.Debug_Task                             0x08001b2c   Section        0  debug.o(i.Debug_Task)
    i.Error_Handler                          0x08001bec   Section        0  main.o(i.Error_Handler)
    i.FOC_App_Run                            0x08001bf0   Section        0  foc_app.o(i.FOC_App_Run)
    i.FOC_Clarke                             0x08001c1c   Section        0  foc_math.o(i.FOC_Clarke)
    i.FOC_Current_Calib                      0x08001c38   Section        0  foc_current.o(i.FOC_Current_Calib)
    i.FOC_ENC_Angle_Calc                     0x08001d38   Section        0  foc_encoder.o(i.FOC_ENC_Angle_Calc)
    i.FOC_ENC_IRQHandler                     0x08001da4   Section        0  foc_encoder.o(i.FOC_ENC_IRQHandler)
    i.FOC_ENC_Init                           0x08001de8   Section        0  foc_encoder.o(i.FOC_ENC_Init)
    i.FOC_ENC_Speed_Calc_M                   0x08001dfc   Section        0  foc_encoder.o(i.FOC_ENC_Speed_Calc_M)
    i.FOC_ERR                                0x08001eac   Section        0  foc_math.o(i.FOC_ERR)
    i.FOC_FLUX_Angle_Calc                    0x08001ed8   Section        0  foc_flux.o(i.FOC_FLUX_Angle_Calc)
    i.FOC_FLUX_Angle_PLL                     0x08001fd0   Section        0  foc_flux.o(i.FOC_FLUX_Angle_PLL)
    i.FOC_FLUX_Clear                         0x08002078   Section        0  foc_flux.o(i.FOC_FLUX_Clear)
    i.FOC_FLUX_EFFECTIVE_Angle_Calc          0x08002090   Section        0  foc_flux.o(i.FOC_FLUX_EFFECTIVE_Angle_Calc)
    i.FOC_FLUX_I_Calc                        0x080020e4   Section        0  foc_flux.o(i.FOC_FLUX_I_Calc)
    i.FOC_FLUX_Init                          0x08002140   Section        0  foc_flux.o(i.FOC_FLUX_Init)
    i.FOC_FLUX_Speed_Calc                    0x080021c4   Section        0  foc_flux.o(i.FOC_FLUX_Speed_Calc)
    i.FOC_FLUX_V_Calc                        0x08002244   Section        0  foc_flux.o(i.FOC_FLUX_V_Calc)
    i.FOC_Get_ENC_Count                      0x080022fc   Section        0  foc_encoder.o(i.FOC_Get_ENC_Count)
    i.FOC_Get_ENC_Dir                        0x08002308   Section        0  foc_encoder.o(i.FOC_Get_ENC_Dir)
    i.FOC_HALL_Angle_Calc                    0x0800231c   Section        0  foc_hall.o(i.FOC_HALL_Angle_Calc)
    i.FOC_HALL_CC_IRQ_Handler                0x080023c4   Section        0  foc_hall.o(i.FOC_HALL_CC_IRQ_Handler)
    i.FOC_HALL_Init                          0x08002564   Section        0  foc_hall.o(i.FOC_HALL_Init)
    i.FOC_HFI_Angle_Calc                     0x080026a0   Section        0  foc_hfi.o(i.FOC_HFI_Angle_Calc)
    i.FOC_HFI_Clear                          0x080027a4   Section        0  foc_hfi.o(i.FOC_HFI_Clear)
    i.FOC_HFI_Init                           0x080027aa   Section        0  foc_hfi.o(i.FOC_HFI_Init)
    i.FOC_HFI_Inject                         0x080027e4   Section        0  foc_hfi.o(i.FOC_HFI_Inject)
    i.FOC_HFI_InjectPolIdent                 0x08002818   Section        0  foc_hfi.o(i.FOC_HFI_InjectPolIdent)
    i.FOC_HFI_Speed_Calc                     0x080028e8   Section        0  foc_hfi.o(i.FOC_HFI_Speed_Calc)
    i.FOC_HFI_alphabeta_HF                   0x08002924   Section        0  foc_hfi.o(i.FOC_HFI_alphabeta_HF)
    i.FOC_HFI_alphabeta_LF                   0x0800293a   Section        0  foc_hfi.o(i.FOC_HFI_alphabeta_LF)
    i.FOC_Identify_Init                      0x08002950   Section        0  foc_identify.o(i.FOC_Identify_Init)
    i.FOC_Identify_R_QD                      0x0800298c   Section        0  foc_identify.o(i.FOC_Identify_R_QD)
    i.FOC_Init                               0x08002a84   Section        0  foc_app.o(i.FOC_Init)
    i.FOC_Motor_Init                         0x08002c04   Section        0  foc_motor.o(i.FOC_Motor_Init)
    i.FOC_Motor_Run                          0x08002c0c   Section        0  foc_motor.o(i.FOC_Motor_Run)
    i.FOC_Motor_Speed_Calc                   0x08002d1c   Section        0  foc_motor.o(i.FOC_Motor_Speed_Calc)
    i.FOC_Motor_Speed_Ctrl                   0x08002d48   Section        0  foc_motor.o(i.FOC_Motor_Speed_Ctrl)
    i.FOC_PWM_Init                           0x08002d78   Section        0  foc_pwm.o(i.FOC_PWM_Init)
    i.FOC_PWM_Run                            0x08002da0   Section        0  foc_pwm.o(i.FOC_PWM_Run)
    i.FOC_Port_Pwm_Start                     0x08002dec   Section        0  foc_port.o(i.FOC_Port_Pwm_Start)
    i.FOC_Port_Pwm_Stop                      0x08002e78   Section        0  foc_port.o(i.FOC_Port_Pwm_Stop)
    i.FOC_Port_Start                         0x08002eb4   Section        0  foc_port.o(i.FOC_Port_Start)
    i.FOC_Rev_Park                           0x08002f0c   Section        0  foc_math.o(i.FOC_Rev_Park)
    i.FOC_SIGN_Judgment                      0x08002f50   Section        0  foc_math.o(i.FOC_SIGN_Judgment)
    i.FOC_SL_DirErr                          0x08002f64   Section        0  foc_sensorless.o(i.FOC_SL_DirErr)
    i.FOC_SL_HFI_SMO_SW                      0x08003000   Section        0  foc_sensorless.o(i.FOC_SL_HFI_SMO_SW)
    i.FOC_SL_RUN                             0x08003104   Section        0  foc_sensorless.o(i.FOC_SL_RUN)
    i.FOC_SMO_Angle_Calc                     0x080032ac   Section        0  foc_smo.o(i.FOC_SMO_Angle_Calc)
    i.FOC_SMO_Clear                          0x08003384   Section        0  foc_smo.o(i.FOC_SMO_Clear)
    i.FOC_SMO_Init                           0x080033a8   Section        0  foc_smo.o(i.FOC_SMO_Init)
    i.FOC_SMO_Speed_Calc                     0x080033cc   Section        0  foc_smo.o(i.FOC_SMO_Speed_Calc)
    i.FOC_Sensorless_Init                    0x08003454   Section        0  foc_sensorless.o(i.FOC_Sensorless_Init)
    i.FOC_Sensorless_Speed_Cale              0x080034f4   Section        0  foc_sensorless.o(i.FOC_Sensorless_Speed_Cale)
    i.FOC_Start                              0x08003542   Section        0  foc_app.o(i.FOC_Start)
    i.FOC_VF_Angle_Calc                      0x08003546   Section        0  foc_vf.o(i.FOC_VF_Angle_Calc)
    i.FOC_VF_Init                            0x08003578   Section        0  foc_vf.o(i.FOC_VF_Init)
    i.FOC_VF_Speed_Calc                      0x0800358c   Section        0  foc_vf.o(i.FOC_VF_Speed_Calc)
    i.FOC_turnOn_LowSide                     0x080035e4   Section        0  foc_current.o(i.FOC_turnOn_LowSide)
    i.Foc_Current_Refresh                    0x080035fc   Section        0  foc_port.o(i.Foc_Current_Refresh)
    i.Foc_Park                               0x080036a0   Section        0  foc_math.o(i.Foc_Park)
    i.HAL_ADCEx_Calibration_Start            0x080036e4   Section        0  stm32g4xx_hal_adc_ex.o(i.HAL_ADCEx_Calibration_Start)
    i.HAL_ADCEx_EndOfSamplingCallback        0x08003778   Section        0  stm32g4xx_hal_adc_ex.o(i.HAL_ADCEx_EndOfSamplingCallback)
    i.HAL_ADCEx_InjectedConfigChannel        0x0800377c   Section        0  stm32g4xx_hal_adc_ex.o(i.HAL_ADCEx_InjectedConfigChannel)
    i.HAL_ADCEx_InjectedConvCpltCallback     0x08003cdc   Section        0  bsp_irq.o(i.HAL_ADCEx_InjectedConvCpltCallback)
    i.HAL_ADCEx_InjectedGetValue             0x08003d2c   Section        0  stm32g4xx_hal_adc_ex.o(i.HAL_ADCEx_InjectedGetValue)
    i.HAL_ADCEx_InjectedQueueOverflowCallback 0x08003d5a   Section        0  stm32g4xx_hal_adc_ex.o(i.HAL_ADCEx_InjectedQueueOverflowCallback)
    i.HAL_ADCEx_InjectedStart_IT             0x08003d5c   Section        0  stm32g4xx_hal_adc_ex.o(i.HAL_ADCEx_InjectedStart_IT)
    i.HAL_ADCEx_LevelOutOfWindow2Callback    0x08003eb4   Section        0  stm32g4xx_hal_adc_ex.o(i.HAL_ADCEx_LevelOutOfWindow2Callback)
    i.HAL_ADCEx_LevelOutOfWindow3Callback    0x08003eb6   Section        0  stm32g4xx_hal_adc_ex.o(i.HAL_ADCEx_LevelOutOfWindow3Callback)
    i.HAL_ADCEx_MultiModeConfigChannel       0x08003eb8   Section        0  stm32g4xx_hal_adc_ex.o(i.HAL_ADCEx_MultiModeConfigChannel)
    i.HAL_ADC_ConfigChannel                  0x08004018   Section        0  stm32g4xx_hal_adc.o(i.HAL_ADC_ConfigChannel)
    i.HAL_ADC_ConvCpltCallback               0x08004484   Section        0  bsp_irq.o(i.HAL_ADC_ConvCpltCallback)
    i.HAL_ADC_ErrorCallback                  0x08004486   Section        0  stm32g4xx_hal_adc.o(i.HAL_ADC_ErrorCallback)
    i.HAL_ADC_IRQHandler                     0x08004488   Section        0  stm32g4xx_hal_adc.o(i.HAL_ADC_IRQHandler)
    i.HAL_ADC_Init                           0x08004740   Section        0  stm32g4xx_hal_adc.o(i.HAL_ADC_Init)
    i.HAL_ADC_LevelOutOfWindowCallback       0x08004970   Section        0  stm32g4xx_hal_adc.o(i.HAL_ADC_LevelOutOfWindowCallback)
    i.HAL_ADC_MspInit                        0x08004974   Section        0  adc.o(i.HAL_ADC_MspInit)
    i.HAL_DMA_IRQHandler                     0x08004b80   Section        0  stm32g4xx_hal_dma.o(i.HAL_DMA_IRQHandler)
    i.HAL_DMA_Init                           0x08004c3c   Section        0  stm32g4xx_hal_dma.o(i.HAL_DMA_Init)
    i.HAL_Delay                              0x08004cfc   Section        0  stm32g4xx_hal.o(i.HAL_Delay)
    i.HAL_GPIO_Init                          0x08004d20   Section        0  stm32g4xx_hal_gpio.o(i.HAL_GPIO_Init)
    i.HAL_GPIO_ReadPin                       0x08004f68   Section        0  stm32g4xx_hal_gpio.o(i.HAL_GPIO_ReadPin)
    i.HAL_GPIO_TogglePin                     0x08004f72   Section        0  stm32g4xx_hal_gpio.o(i.HAL_GPIO_TogglePin)
    i.HAL_GPIO_WritePin                      0x08004f82   Section        0  stm32g4xx_hal_gpio.o(i.HAL_GPIO_WritePin)
    i.HAL_GetTick                            0x08004f8c   Section        0  stm32g4xx_hal.o(i.HAL_GetTick)
    i.HAL_IncTick                            0x08004f98   Section        0  stm32g4xx_hal.o(i.HAL_IncTick)
    i.HAL_Init                               0x08004fa8   Section        0  stm32g4xx_hal.o(i.HAL_Init)
    i.HAL_InitTick                           0x08004fc8   Section        0  stm32g4xx_hal.o(i.HAL_InitTick)
    i.HAL_MspInit                            0x0800500c   Section        0  stm32g4xx_hal_msp.o(i.HAL_MspInit)
    i.HAL_NVIC_EnableIRQ                     0x08005048   Section        0  stm32g4xx_hal_cortex.o(i.HAL_NVIC_EnableIRQ)
    i.HAL_NVIC_SetPriority                   0x08005064   Section        0  stm32g4xx_hal_cortex.o(i.HAL_NVIC_SetPriority)
    i.HAL_NVIC_SetPriorityGrouping           0x080050a4   Section        0  stm32g4xx_hal_cortex.o(i.HAL_NVIC_SetPriorityGrouping)
    i.HAL_PCDEx_ActivateLPM                  0x080050c8   Section        0  stm32g4xx_hal_pcd_ex.o(i.HAL_PCDEx_ActivateLPM)
    i.HAL_PCDEx_LPM_Callback                 0x080050ec   Section        0  stm32g4xx_hal_pcd_ex.o(i.HAL_PCDEx_LPM_Callback)
    i.HAL_PCDEx_PMAConfig                    0x080050ee   Section        0  stm32g4xx_hal_pcd_ex.o(i.HAL_PCDEx_PMAConfig)
    i.HAL_PCD_DataInStageCallback            0x0800512a   Section        0  usbd_conf.o(i.HAL_PCD_DataInStageCallback)
    i.HAL_PCD_DataOutStageCallback           0x0800513c   Section        0  usbd_conf.o(i.HAL_PCD_DataOutStageCallback)
    i.HAL_PCD_EP_Close                       0x08005150   Section        0  stm32g4xx_hal_pcd.o(i.HAL_PCD_EP_Close)
    i.HAL_PCD_EP_ClrStall                    0x0800519a   Section        0  stm32g4xx_hal_pcd.o(i.HAL_PCD_EP_ClrStall)
    i.HAL_PCD_EP_DB_Receive                  0x080051f4   Section        0  stm32g4xx_hal_pcd.o(i.HAL_PCD_EP_DB_Receive)
    HAL_PCD_EP_DB_Receive                    0x080051f5   Thumb Code   220  stm32g4xx_hal_pcd.o(i.HAL_PCD_EP_DB_Receive)
    i.HAL_PCD_EP_DB_Transmit                 0x080052d0   Section        0  stm32g4xx_hal_pcd.o(i.HAL_PCD_EP_DB_Transmit)
    HAL_PCD_EP_DB_Transmit                   0x080052d1   Thumb Code   832  stm32g4xx_hal_pcd.o(i.HAL_PCD_EP_DB_Transmit)
    i.HAL_PCD_EP_GetRxCount                  0x08005610   Section        0  stm32g4xx_hal_pcd.o(i.HAL_PCD_EP_GetRxCount)
    i.HAL_PCD_EP_Open                        0x08005622   Section        0  stm32g4xx_hal_pcd.o(i.HAL_PCD_EP_Open)
    i.HAL_PCD_EP_Receive                     0x0800567a   Section        0  stm32g4xx_hal_pcd.o(i.HAL_PCD_EP_Receive)
    i.HAL_PCD_EP_SetStall                    0x080056a8   Section        0  stm32g4xx_hal_pcd.o(i.HAL_PCD_EP_SetStall)
    i.HAL_PCD_EP_Transmit                    0x08005706   Section        0  stm32g4xx_hal_pcd.o(i.HAL_PCD_EP_Transmit)
    i.HAL_PCD_IRQHandler                     0x08005734   Section        0  stm32g4xx_hal_pcd.o(i.HAL_PCD_IRQHandler)
    i.HAL_PCD_Init                           0x08005880   Section        0  stm32g4xx_hal_pcd.o(i.HAL_PCD_Init)
    i.HAL_PCD_MspInit                        0x0800591c   Section        0  usb.o(i.HAL_PCD_MspInit)
    i.HAL_PCD_ResetCallback                  0x08005974   Section        0  usbd_conf.o(i.HAL_PCD_ResetCallback)
    i.HAL_PCD_ResumeCallback                 0x080059d8   Section        0  usbd_conf.o(i.HAL_PCD_ResumeCallback)
    i.HAL_PCD_SOFCallback                    0x08005a18   Section        0  usbd_conf.o(i.HAL_PCD_SOFCallback)
    i.HAL_PCD_SetAddress                     0x08005a20   Section        0  stm32g4xx_hal_pcd.o(i.HAL_PCD_SetAddress)
    i.HAL_PCD_SetupStageCallback             0x08005a46   Section        0  usbd_conf.o(i.HAL_PCD_SetupStageCallback)
    i.HAL_PCD_Start                          0x08005a54   Section        0  stm32g4xx_hal_pcd.o(i.HAL_PCD_Start)
    i.HAL_PCD_SuspendCallback                0x08005a80   Section        0  usbd_conf.o(i.HAL_PCD_SuspendCallback)
    i.HAL_PWREx_ControlVoltageScaling        0x08005ad0   Section        0  stm32g4xx_hal_pwr_ex.o(i.HAL_PWREx_ControlVoltageScaling)
    i.HAL_PWREx_DisableUCPDDeadBattery       0x08005b8c   Section        0  stm32g4xx_hal_pwr_ex.o(i.HAL_PWREx_DisableUCPDDeadBattery)
    i.HAL_RCCEx_CRSConfig                    0x08005b9c   Section        0  stm32g4xx_hal_rcc_ex.o(i.HAL_RCCEx_CRSConfig)
    i.HAL_RCCEx_PeriphCLKConfig              0x08005be8   Section        0  stm32g4xx_hal_rcc_ex.o(i.HAL_RCCEx_PeriphCLKConfig)
    i.HAL_RCC_ClockConfig                    0x08005ee8   Section        0  stm32g4xx_hal_rcc.o(i.HAL_RCC_ClockConfig)
    i.HAL_RCC_GetPCLK1Freq                   0x080060c4   Section        0  stm32g4xx_hal_rcc.o(i.HAL_RCC_GetPCLK1Freq)
    i.HAL_RCC_GetPCLK2Freq                   0x080060e8   Section        0  stm32g4xx_hal_rcc.o(i.HAL_RCC_GetPCLK2Freq)
    i.HAL_RCC_GetSysClockFreq                0x0800610c   Section        0  stm32g4xx_hal_rcc.o(i.HAL_RCC_GetSysClockFreq)
    i.HAL_RCC_OscConfig                      0x0800617c   Section        0  stm32g4xx_hal_rcc.o(i.HAL_RCC_OscConfig)
    i.HAL_SYSCFG_DisableVREFBUF              0x08006580   Section        0  stm32g4xx_hal.o(i.HAL_SYSCFG_DisableVREFBUF)
    i.HAL_SYSCFG_VREFBUF_HighImpedanceConfig 0x08006590   Section        0  stm32g4xx_hal.o(i.HAL_SYSCFG_VREFBUF_HighImpedanceConfig)
    i.HAL_SYSTICK_CLKSourceConfig            0x080065a4   Section        0  stm32g4xx_hal_cortex.o(i.HAL_SYSTICK_CLKSourceConfig)
    i.HAL_SYSTICK_Config                     0x080065bc   Section        0  stm32g4xx_hal_cortex.o(i.HAL_SYSTICK_Config)
    i.HAL_TIMEx_Break2Callback               0x080065e4   Section        0  stm32g4xx_hal_tim_ex.o(i.HAL_TIMEx_Break2Callback)
    i.HAL_TIMEx_BreakCallback                0x080065e6   Section        0  stm32g4xx_hal_tim_ex.o(i.HAL_TIMEx_BreakCallback)
    i.HAL_TIMEx_CommutCallback               0x080065e8   Section        0  stm32g4xx_hal_tim_ex.o(i.HAL_TIMEx_CommutCallback)
    i.HAL_TIMEx_ConfigBreakDeadTime          0x080065ec   Section        0  stm32g4xx_hal_tim_ex.o(i.HAL_TIMEx_ConfigBreakDeadTime)
    i.HAL_TIMEx_DirectionChangeCallback      0x08006694   Section        0  stm32g4xx_hal_tim_ex.o(i.HAL_TIMEx_DirectionChangeCallback)
    i.HAL_TIMEx_EncoderIndexCallback         0x08006696   Section        0  stm32g4xx_hal_tim_ex.o(i.HAL_TIMEx_EncoderIndexCallback)
    i.HAL_TIMEx_HallSensor_Init              0x08006698   Section        0  stm32g4xx_hal_tim_ex.o(i.HAL_TIMEx_HallSensor_Init)
    i.HAL_TIMEx_HallSensor_MspInit           0x08006774   Section        0  tim.o(i.HAL_TIMEx_HallSensor_MspInit)
    i.HAL_TIMEx_HallSensor_Start_IT          0x080067e4   Section        0  stm32g4xx_hal_tim_ex.o(i.HAL_TIMEx_HallSensor_Start_IT)
    i.HAL_TIMEx_IndexErrorCallback           0x080068a0   Section        0  stm32g4xx_hal_tim_ex.o(i.HAL_TIMEx_IndexErrorCallback)
    i.HAL_TIMEx_MasterConfigSynchronization  0x080068a4   Section        0  stm32g4xx_hal_tim_ex.o(i.HAL_TIMEx_MasterConfigSynchronization)
    i.HAL_TIMEx_PWMN_Start                   0x0800695c   Section        0  stm32g4xx_hal_tim_ex.o(i.HAL_TIMEx_PWMN_Start)
    i.HAL_TIMEx_PWMN_Stop                    0x08006a28   Section        0  stm32g4xx_hal_tim_ex.o(i.HAL_TIMEx_PWMN_Stop)
    i.HAL_TIMEx_TransitionErrorCallback      0x08006a90   Section        0  stm32g4xx_hal_tim_ex.o(i.HAL_TIMEx_TransitionErrorCallback)
    i.HAL_TIM_Base_Init                      0x08006a92   Section        0  stm32g4xx_hal_tim.o(i.HAL_TIM_Base_Init)
    i.HAL_TIM_Base_MspInit                   0x08006af4   Section        0  tim.o(i.HAL_TIM_Base_MspInit)
    i.HAL_TIM_Base_Start_IT                  0x08006b30   Section        0  stm32g4xx_hal_tim.o(i.HAL_TIM_Base_Start_IT)
    i.HAL_TIM_Encoder_Init                   0x08006bbc   Section        0  stm32g4xx_hal_tim.o(i.HAL_TIM_Encoder_Init)
    i.HAL_TIM_Encoder_MspInit                0x08006c64   Section        0  tim.o(i.HAL_TIM_Encoder_MspInit)
    i.HAL_TIM_Encoder_Start                  0x08006cc4   Section        0  stm32g4xx_hal_tim.o(i.HAL_TIM_Encoder_Start)
    i.HAL_TIM_IC_CaptureCallback             0x08006d54   Section        0  bsp_irq.o(i.HAL_TIM_IC_CaptureCallback)
    i.HAL_TIM_IC_ConfigChannel               0x08006d88   Section        0  stm32g4xx_hal_tim.o(i.HAL_TIM_IC_ConfigChannel)
    i.HAL_TIM_IC_Init                        0x08006eac   Section        0  stm32g4xx_hal_tim.o(i.HAL_TIM_IC_Init)
    i.HAL_TIM_IC_MspInit                     0x08006f10   Section        0  tim.o(i.HAL_TIM_IC_MspInit)
    i.HAL_TIM_IC_Start_IT                    0x08006f80   Section        0  stm32g4xx_hal_tim.o(i.HAL_TIM_IC_Start_IT)
    i.HAL_TIM_IRQHandler                     0x080070c0   Section        0  stm32g4xx_hal_tim.o(i.HAL_TIM_IRQHandler)
    i.HAL_TIM_MspPostInit                    0x08007264   Section        0  tim.o(i.HAL_TIM_MspPostInit)
    i.HAL_TIM_OC_DelayElapsedCallback        0x080072f8   Section        0  bsp_irq.o(i.HAL_TIM_OC_DelayElapsedCallback)
    i.HAL_TIM_OC_Start_IT                    0x080072fc   Section        0  stm32g4xx_hal_tim.o(i.HAL_TIM_OC_Start_IT)
    i.HAL_TIM_OC_Stop_IT                     0x0800743c   Section        0  stm32g4xx_hal_tim.o(i.HAL_TIM_OC_Stop_IT)
    i.HAL_TIM_PWM_ConfigChannel              0x08007534   Section        0  stm32g4xx_hal_tim.o(i.HAL_TIM_PWM_ConfigChannel)
    i.HAL_TIM_PWM_Init                       0x08007658   Section        0  stm32g4xx_hal_tim.o(i.HAL_TIM_PWM_Init)
    i.HAL_TIM_PWM_MspInit                    0x080076bc   Section        0  tim.o(i.HAL_TIM_PWM_MspInit)
    i.HAL_TIM_PWM_PulseFinishedCallback      0x080076f8   Section        0  stm32g4xx_hal_tim.o(i.HAL_TIM_PWM_PulseFinishedCallback)
    i.HAL_TIM_PWM_Start                      0x080076fc   Section        0  stm32g4xx_hal_tim.o(i.HAL_TIM_PWM_Start)
    i.HAL_TIM_PWM_Stop                       0x08007810   Section        0  stm32g4xx_hal_tim.o(i.HAL_TIM_PWM_Stop)
    i.HAL_TIM_PeriodElapsedCallback          0x080078c8   Section        0  bsp_irq.o(i.HAL_TIM_PeriodElapsedCallback)
    i.HAL_TIM_TriggerCallback                0x08007900   Section        0  stm32g4xx_hal_tim.o(i.HAL_TIM_TriggerCallback)
    i.HAL_UARTEx_DisableFifoMode             0x08007902   Section        0  stm32g4xx_hal_uart_ex.o(i.HAL_UARTEx_DisableFifoMode)
    i.HAL_UARTEx_SetRxFifoThreshold          0x08007940   Section        0  stm32g4xx_hal_uart_ex.o(i.HAL_UARTEx_SetRxFifoThreshold)
    i.HAL_UARTEx_SetTxFifoThreshold          0x0800798c   Section        0  stm32g4xx_hal_uart_ex.o(i.HAL_UARTEx_SetTxFifoThreshold)
    i.HAL_UART_Init                          0x080079d8   Section        0  stm32g4xx_hal_uart.o(i.HAL_UART_Init)
    i.HAL_UART_MspInit                       0x08007a44   Section        0  usart.o(i.HAL_UART_MspInit)
    i.HardFault_Handler                      0x08007ac0   Section        0  stm32g4xx_it.o(i.HardFault_Handler)
    i.IntToUnicode                           0x08007ac4   Section        0  usbd_desc.o(i.IntToUnicode)
    IntToUnicode                             0x08007ac5   Thumb Code    56  usbd_desc.o(i.IntToUnicode)
    i.LL_ADC_GetOffsetChannel                0x08007afc   Section        0  stm32g4xx_hal_adc.o(i.LL_ADC_GetOffsetChannel)
    LL_ADC_GetOffsetChannel                  0x08007afd   Thumb Code    12  stm32g4xx_hal_adc.o(i.LL_ADC_GetOffsetChannel)
    i.LL_ADC_GetOffsetChannel                0x08007b08   Section        0  stm32g4xx_hal_adc_ex.o(i.LL_ADC_GetOffsetChannel)
    LL_ADC_GetOffsetChannel                  0x08007b09   Thumb Code    12  stm32g4xx_hal_adc_ex.o(i.LL_ADC_GetOffsetChannel)
    i.LL_ADC_INJ_IsConversionOngoing         0x08007b14   Section        0  stm32g4xx_hal_adc.o(i.LL_ADC_INJ_IsConversionOngoing)
    LL_ADC_INJ_IsConversionOngoing           0x08007b15   Thumb Code     8  stm32g4xx_hal_adc.o(i.LL_ADC_INJ_IsConversionOngoing)
    i.LL_ADC_INJ_IsConversionOngoing         0x08007b1c   Section        0  stm32g4xx_hal_adc_ex.o(i.LL_ADC_INJ_IsConversionOngoing)
    LL_ADC_INJ_IsConversionOngoing           0x08007b1d   Thumb Code     8  stm32g4xx_hal_adc_ex.o(i.LL_ADC_INJ_IsConversionOngoing)
    i.LL_ADC_REG_IsConversionOngoing         0x08007b24   Section        0  stm32g4xx_hal_adc.o(i.LL_ADC_REG_IsConversionOngoing)
    LL_ADC_REG_IsConversionOngoing           0x08007b25   Thumb Code     8  stm32g4xx_hal_adc.o(i.LL_ADC_REG_IsConversionOngoing)
    i.LL_ADC_REG_IsConversionOngoing         0x08007b2c   Section        0  stm32g4xx_hal_adc_ex.o(i.LL_ADC_REG_IsConversionOngoing)
    LL_ADC_REG_IsConversionOngoing           0x08007b2d   Thumb Code     8  stm32g4xx_hal_adc_ex.o(i.LL_ADC_REG_IsConversionOngoing)
    i.LL_ADC_REG_IsTriggerSourceSWStart      0x08007b34   Section        0  stm32g4xx_hal_adc.o(i.LL_ADC_REG_IsTriggerSourceSWStart)
    LL_ADC_REG_IsTriggerSourceSWStart        0x08007b35   Thumb Code    16  stm32g4xx_hal_adc.o(i.LL_ADC_REG_IsTriggerSourceSWStart)
    i.LL_ADC_SetChannelSamplingTime          0x08007b44   Section        0  stm32g4xx_hal_adc.o(i.LL_ADC_SetChannelSamplingTime)
    LL_ADC_SetChannelSamplingTime            0x08007b45   Thumb Code    30  stm32g4xx_hal_adc.o(i.LL_ADC_SetChannelSamplingTime)
    i.LL_ADC_SetChannelSamplingTime          0x08007b62   Section        0  stm32g4xx_hal_adc_ex.o(i.LL_ADC_SetChannelSamplingTime)
    LL_ADC_SetChannelSamplingTime            0x08007b63   Thumb Code    30  stm32g4xx_hal_adc_ex.o(i.LL_ADC_SetChannelSamplingTime)
    i.LL_ADC_SetOffsetState                  0x08007b80   Section        0  stm32g4xx_hal_adc.o(i.LL_ADC_SetOffsetState)
    LL_ADC_SetOffsetState                    0x08007b81   Thumb Code    16  stm32g4xx_hal_adc.o(i.LL_ADC_SetOffsetState)
    i.LL_ADC_SetOffsetState                  0x08007b90   Section        0  stm32g4xx_hal_adc_ex.o(i.LL_ADC_SetOffsetState)
    LL_ADC_SetOffsetState                    0x08007b91   Thumb Code    16  stm32g4xx_hal_adc_ex.o(i.LL_ADC_SetOffsetState)
    i.Limit_Angle                            0x08007ba0   Section        0  foc_math.o(i.Limit_Angle)
    i.MX_ADC1_Init                           0x08007be0   Section        0  adc.o(i.MX_ADC1_Init)
    i.MX_ADC2_Init                           0x08007cc8   Section        0  adc.o(i.MX_ADC2_Init)
    i.MX_ADC3_Init                           0x08007d90   Section        0  adc.o(i.MX_ADC3_Init)
    i.MX_DMA_Init                            0x08007e78   Section        0  dma.o(i.MX_DMA_Init)
    i.MX_GPIO_Init                           0x08007ed4   Section        0  gpio.o(i.MX_GPIO_Init)
    i.MX_TIM1_Init                           0x08007f40   Section        0  tim.o(i.MX_TIM1_Init)
    i.MX_TIM2_Init                           0x0800804c   Section        0  tim.o(i.MX_TIM2_Init)
    i.MX_TIM3_Init                           0x080080b8   Section        0  tim.o(i.MX_TIM3_Init)
    i.MX_TIM5_Init                           0x08008128   Section        0  tim.o(i.MX_TIM5_Init)
    i.MX_TIM6_Init                           0x08008184   Section        0  tim.o(i.MX_TIM6_Init)
    i.MX_USART1_UART_Init                    0x080081cc   Section        0  usart.o(i.MX_USART1_UART_Init)
    i.MX_USB_Device_Init                     0x08008234   Section        0  usb_device.o(i.MX_USB_Device_Init)
    i.MX_USB_PCD_Init                        0x08008270   Section        0  usb.o(i.MX_USB_PCD_Init)
    i.MemManage_Handler                      0x080082a8   Section        0  stm32g4xx_it.o(i.MemManage_Handler)
    i.Motor_ABZ_ENC_RUN                      0x080082aa   Section        0  foc_motor.o(i.Motor_ABZ_ENC_RUN)
    i.Motor_HALL_RUN                         0x0800838a   Section        0  foc_motor.o(i.Motor_HALL_RUN)
    i.Motor_Run_Open                         0x0800846a   Section        0  foc_motor.o(i.Motor_Run_Open)
    i.Motor_SL_RUN                           0x080084f4   Section        0  foc_motor.o(i.Motor_SL_RUN)
    i.Move_Filter_Clear                      0x080086a4   Section        0  foc_filter.o(i.Move_Filter_Clear)
    i.Move_Filter_Init                       0x080086d4   Section        0  foc_filter.o(i.Move_Filter_Init)
    i.Move_Filter_calculate                  0x080086f8   Section        0  foc_filter.o(i.Move_Filter_calculate)
    i.Move_Filter_fill                       0x08008738   Section        0  foc_filter.o(i.Move_Filter_fill)
    i.NMI_Handler                            0x08008782   Section        0  stm32g4xx_it.o(i.NMI_Handler)
    i.PCD_EP_ISR_Handler                     0x08008784   Section        0  stm32g4xx_hal_pcd.o(i.PCD_EP_ISR_Handler)
    PCD_EP_ISR_Handler                       0x08008785   Thumb Code   918  stm32g4xx_hal_pcd.o(i.PCD_EP_ISR_Handler)
    i.PID_Clear                              0x08008b1c   Section        0  foc_pid.o(i.PID_Clear)
    i.PID_Init                               0x08008b58   Section        0  foc_pid.o(i.PID_Init)
    i.PID_Position_ctrl                      0x08008b84   Section        0  foc_pid.o(i.PID_Position_ctrl)
    i.PLL_Cale_HFI                           0x08008dec   Section        0  foc_filter.o(i.PLL_Cale_HFI)
    i.PLL_Cale_SMO                           0x08008e94   Section        0  foc_filter.o(i.PLL_Cale_SMO)
    i.PLL_Clear                              0x08008f40   Section        0  foc_filter.o(i.PLL_Clear)
    i.PLL_Init                               0x08008f64   Section        0  foc_filter.o(i.PLL_Init)
    i.PendSV_Handler                         0x08008f72   Section        0  stm32g4xx_it.o(i.PendSV_Handler)
    i.SVC_Handler                            0x08008f74   Section        0  stm32g4xx_it.o(i.SVC_Handler)
    i.SWAPBYTE                               0x08008f76   Section        0  usbd_ctlreq.o(i.SWAPBYTE)
    SWAPBYTE                                 0x08008f77   Thumb Code    10  usbd_ctlreq.o(i.SWAPBYTE)
    i.Sat                                    0x08008f80   Section        0  foc_smo.o(i.Sat)
    Sat                                      0x08008f81   Thumb Code    46  foc_smo.o(i.Sat)
    i.Sector_Judgment                        0x08008fb0   Section        0  foc_pwm.o(i.Sector_Judgment)
    Sector_Judgment                          0x08008fb1   Thumb Code   116  foc_pwm.o(i.Sector_Judgment)
    i.SysTick_Handler                        0x08009028   Section        0  stm32g4xx_it.o(i.SysTick_Handler)
    i.SystemClock_Config                     0x08009054   Section        0  main.o(i.SystemClock_Config)
    i.SystemInit                             0x080090c4   Section        0  system_stm32g4xx.o(i.SystemInit)
    i.TIM1_UP_TIM16_IRQHandler               0x080090d4   Section        0  stm32g4xx_it.o(i.TIM1_UP_TIM16_IRQHandler)
    i.TIM2_IRQHandler                        0x080090e0   Section        0  stm32g4xx_it.o(i.TIM2_IRQHandler)
    i.TIM5_IRQHandler                        0x080090ec   Section        0  stm32g4xx_it.o(i.TIM5_IRQHandler)
    i.TIM6_DAC_IRQHandler                    0x080090f8   Section        0  stm32g4xx_it.o(i.TIM6_DAC_IRQHandler)
    i.TIM_Base_SetConfig                     0x08009104   Section        0  stm32g4xx_hal_tim.o(i.TIM_Base_SetConfig)
    i.TIM_CCxChannelCmd                      0x080091e8   Section        0  stm32g4xx_hal_tim.o(i.TIM_CCxChannelCmd)
    i.TIM_CCxNChannelCmd                     0x08009202   Section        0  stm32g4xx_hal_tim_ex.o(i.TIM_CCxNChannelCmd)
    TIM_CCxNChannelCmd                       0x08009203   Thumb Code    26  stm32g4xx_hal_tim_ex.o(i.TIM_CCxNChannelCmd)
    i.TIM_OC1_SetConfig                      0x0800921c   Section        0  stm32g4xx_hal_tim.o(i.TIM_OC1_SetConfig)
    TIM_OC1_SetConfig                        0x0800921d   Thumb Code   144  stm32g4xx_hal_tim.o(i.TIM_OC1_SetConfig)
    i.TIM_OC2_SetConfig                      0x080092c8   Section        0  stm32g4xx_hal_tim.o(i.TIM_OC2_SetConfig)
    i.TIM_OC3_SetConfig                      0x08009368   Section        0  stm32g4xx_hal_tim.o(i.TIM_OC3_SetConfig)
    TIM_OC3_SetConfig                        0x08009369   Thumb Code   130  stm32g4xx_hal_tim.o(i.TIM_OC3_SetConfig)
    i.TIM_OC4_SetConfig                      0x08009408   Section        0  stm32g4xx_hal_tim.o(i.TIM_OC4_SetConfig)
    TIM_OC4_SetConfig                        0x08009409   Thumb Code   132  stm32g4xx_hal_tim.o(i.TIM_OC4_SetConfig)
    i.TIM_OC5_SetConfig                      0x080094a8   Section        0  stm32g4xx_hal_tim.o(i.TIM_OC5_SetConfig)
    TIM_OC5_SetConfig                        0x080094a9   Thumb Code    92  stm32g4xx_hal_tim.o(i.TIM_OC5_SetConfig)
    i.TIM_OC6_SetConfig                      0x08009520   Section        0  stm32g4xx_hal_tim.o(i.TIM_OC6_SetConfig)
    TIM_OC6_SetConfig                        0x08009521   Thumb Code    94  stm32g4xx_hal_tim.o(i.TIM_OC6_SetConfig)
    i.TIM_TI1_SetConfig                      0x0800959c   Section        0  stm32g4xx_hal_tim.o(i.TIM_TI1_SetConfig)
    i.TIM_TI2_SetConfig                      0x0800961c   Section        0  stm32g4xx_hal_tim.o(i.TIM_TI2_SetConfig)
    TIM_TI2_SetConfig                        0x0800961d   Thumb Code    54  stm32g4xx_hal_tim.o(i.TIM_TI2_SetConfig)
    i.UARTEx_SetNbDataToProcess              0x08009654   Section        0  stm32g4xx_hal_uart_ex.o(i.UARTEx_SetNbDataToProcess)
    UARTEx_SetNbDataToProcess                0x08009655   Thumb Code    62  stm32g4xx_hal_uart_ex.o(i.UARTEx_SetNbDataToProcess)
    i.UART_AdvFeatureConfig                  0x08009698   Section        0  stm32g4xx_hal_uart.o(i.UART_AdvFeatureConfig)
    i.UART_CheckIdleState                    0x08009760   Section        0  stm32g4xx_hal_uart.o(i.UART_CheckIdleState)
    i.UART_EndRxTransfer                     0x0800980c   Section        0  stm32g4xx_hal_uart.o(i.UART_EndRxTransfer)
    UART_EndRxTransfer                       0x0800980d   Thumb Code    78  stm32g4xx_hal_uart.o(i.UART_EndRxTransfer)
    i.UART_SetConfig                         0x08009860   Section        0  stm32g4xx_hal_uart.o(i.UART_SetConfig)
    i.UART_WaitOnFlagUntilTimeout            0x08009af8   Section        0  stm32g4xx_hal_uart.o(i.UART_WaitOnFlagUntilTimeout)
    i.USBD_CDC_ConfigStrDescriptor           0x08009b8c   Section        0  usbd_desc.o(i.USBD_CDC_ConfigStrDescriptor)
    i.USBD_CDC_DataIn                        0x08009bac   Section        0  usbd_cdc.o(i.USBD_CDC_DataIn)
    USBD_CDC_DataIn                          0x08009bad   Thumb Code    94  usbd_cdc.o(i.USBD_CDC_DataIn)
    i.USBD_CDC_DataOut                       0x08009c0a   Section        0  usbd_cdc.o(i.USBD_CDC_DataOut)
    USBD_CDC_DataOut                         0x08009c0b   Thumb Code    42  usbd_cdc.o(i.USBD_CDC_DataOut)
    i.USBD_CDC_DeInit                        0x08009c34   Section        0  usbd_cdc.o(i.USBD_CDC_DeInit)
    USBD_CDC_DeInit                          0x08009c35   Thumb Code    64  usbd_cdc.o(i.USBD_CDC_DeInit)
    i.USBD_CDC_DeviceDescriptor              0x08009c74   Section        0  usbd_desc.o(i.USBD_CDC_DeviceDescriptor)
    i.USBD_CDC_EP0_RxReady                   0x08009c80   Section        0  usbd_cdc.o(i.USBD_CDC_EP0_RxReady)
    USBD_CDC_EP0_RxReady                     0x08009c81   Thumb Code    46  usbd_cdc.o(i.USBD_CDC_EP0_RxReady)
    i.USBD_CDC_GetDeviceQualifierDescriptor  0x08009cb0   Section        0  usbd_cdc.o(i.USBD_CDC_GetDeviceQualifierDescriptor)
    i.USBD_CDC_GetFSCfgDesc                  0x08009cbc   Section        0  usbd_cdc.o(i.USBD_CDC_GetFSCfgDesc)
    USBD_CDC_GetFSCfgDesc                    0x08009cbd   Thumb Code     8  usbd_cdc.o(i.USBD_CDC_GetFSCfgDesc)
    i.USBD_CDC_GetHSCfgDesc                  0x08009cc8   Section        0  usbd_cdc.o(i.USBD_CDC_GetHSCfgDesc)
    USBD_CDC_GetHSCfgDesc                    0x08009cc9   Thumb Code     8  usbd_cdc.o(i.USBD_CDC_GetHSCfgDesc)
    i.USBD_CDC_GetOtherSpeedCfgDesc          0x08009cd4   Section        0  usbd_cdc.o(i.USBD_CDC_GetOtherSpeedCfgDesc)
    USBD_CDC_GetOtherSpeedCfgDesc            0x08009cd5   Thumb Code     8  usbd_cdc.o(i.USBD_CDC_GetOtherSpeedCfgDesc)
    i.USBD_CDC_Init                          0x08009ce0   Section        0  usbd_cdc.o(i.USBD_CDC_Init)
    USBD_CDC_Init                            0x08009ce1   Thumb Code   138  usbd_cdc.o(i.USBD_CDC_Init)
    i.USBD_CDC_InterfaceStrDescriptor        0x08009d70   Section        0  usbd_desc.o(i.USBD_CDC_InterfaceStrDescriptor)
    i.USBD_CDC_LangIDStrDescriptor           0x08009d94   Section        0  usbd_desc.o(i.USBD_CDC_LangIDStrDescriptor)
    i.USBD_CDC_ManufacturerStrDescriptor     0x08009da0   Section        0  usbd_desc.o(i.USBD_CDC_ManufacturerStrDescriptor)
    i.USBD_CDC_ProductStrDescriptor          0x08009dc8   Section        0  usbd_desc.o(i.USBD_CDC_ProductStrDescriptor)
    i.USBD_CDC_ReceivePacket                 0x08009e00   Section        0  usbd_cdc.o(i.USBD_CDC_ReceivePacket)
    i.USBD_CDC_RegisterInterface             0x08009e28   Section        0  usbd_cdc.o(i.USBD_CDC_RegisterInterface)
    i.USBD_CDC_SerialStrDescriptor           0x08009e38   Section        0  usbd_desc.o(i.USBD_CDC_SerialStrDescriptor)
    i.USBD_CDC_SetRxBuffer                   0x08009e70   Section        0  usbd_cdc.o(i.USBD_CDC_SetRxBuffer)
    i.USBD_CDC_SetTxBuffer                   0x08009e82   Section        0  usbd_cdc.o(i.USBD_CDC_SetTxBuffer)
    i.USBD_CDC_Setup                         0x08009e98   Section        0  usbd_cdc.o(i.USBD_CDC_Setup)
    USBD_CDC_Setup                           0x08009e99   Thumb Code   190  usbd_cdc.o(i.USBD_CDC_Setup)
    i.USBD_CDC_TransmitPacket                0x08009f56   Section        0  usbd_cdc.o(i.USBD_CDC_TransmitPacket)
    i.USBD_Clock_Config                      0x08009f8c   Section        0  usb_device.o(i.USBD_Clock_Config)
    i.USBD_ClrClassConfig                    0x08009fe8   Section        0  usbd_core.o(i.USBD_ClrClassConfig)
    i.USBD_CtlContinueRx                     0x08009ff8   Section        0  usbd_ioreq.o(i.USBD_CtlContinueRx)
    i.USBD_CtlContinueSendData               0x0800a008   Section        0  usbd_ioreq.o(i.USBD_CtlContinueSendData)
    i.USBD_CtlError                          0x0800a018   Section        0  usbd_ctlreq.o(i.USBD_CtlError)
    i.USBD_CtlPrepareRx                      0x0800a02e   Section        0  usbd_ioreq.o(i.USBD_CtlPrepareRx)
    i.USBD_CtlReceiveStatus                  0x0800a04c   Section        0  usbd_ioreq.o(i.USBD_CtlReceiveStatus)
    i.USBD_CtlSendData                       0x0800a062   Section        0  usbd_ioreq.o(i.USBD_CtlSendData)
    i.USBD_CtlSendStatus                     0x0800a07c   Section        0  usbd_ioreq.o(i.USBD_CtlSendStatus)
    i.USBD_GetDescriptor                     0x0800a092   Section        0  usbd_ctlreq.o(i.USBD_GetDescriptor)
    USBD_GetDescriptor                       0x0800a093   Thumb Code   230  usbd_ctlreq.o(i.USBD_GetDescriptor)
    i.USBD_GetString                         0x0800a178   Section        0  usbd_ctlreq.o(i.USBD_GetString)
    i.USBD_Get_USB_Status                    0x0800a1c0   Section        0  usbd_conf.o(i.USBD_Get_USB_Status)
    USBD_Get_USB_Status                      0x0800a1c1   Thumb Code    24  usbd_conf.o(i.USBD_Get_USB_Status)
    i.USBD_Init                              0x0800a1d8   Section        0  usbd_core.o(i.USBD_Init)
    i.USBD_LL_ClearStallEP                   0x0800a1fe   Section        0  usbd_conf.o(i.USBD_LL_ClearStallEP)
    i.USBD_LL_CloseEP                        0x0800a210   Section        0  usbd_conf.o(i.USBD_LL_CloseEP)
    i.USBD_LL_DataInStage                    0x0800a222   Section        0  usbd_core.o(i.USBD_LL_DataInStage)
    i.USBD_LL_DataOutStage                   0x0800a2ca   Section        0  usbd_core.o(i.USBD_LL_DataOutStage)
    i.USBD_LL_GetRxDataSize                  0x0800a336   Section        0  usbd_conf.o(i.USBD_LL_GetRxDataSize)
    i.USBD_LL_Init                           0x0800a340   Section        0  usbd_conf.o(i.USBD_LL_Init)
    i.USBD_LL_IsStallEP                      0x0800a3b4   Section        0  usbd_conf.o(i.USBD_LL_IsStallEP)
    i.USBD_LL_OpenEP                         0x0800a3d2   Section        0  usbd_conf.o(i.USBD_LL_OpenEP)
    i.USBD_LL_PrepareReceive                 0x0800a3ea   Section        0  usbd_conf.o(i.USBD_LL_PrepareReceive)
    i.USBD_LL_Reset                          0x0800a3fc   Section        0  usbd_core.o(i.USBD_LL_Reset)
    i.USBD_LL_Resume                         0x0800a456   Section        0  usbd_core.o(i.USBD_LL_Resume)
    i.USBD_LL_SOF                            0x0800a46a   Section        0  usbd_core.o(i.USBD_LL_SOF)
    i.USBD_LL_SetSpeed                       0x0800a48a   Section        0  usbd_core.o(i.USBD_LL_SetSpeed)
    i.USBD_LL_SetUSBAddress                  0x0800a490   Section        0  usbd_conf.o(i.USBD_LL_SetUSBAddress)
    i.USBD_LL_SetupStage                     0x0800a4ac   Section        0  usbd_core.o(i.USBD_LL_SetupStage)
    i.USBD_LL_StallEP                        0x0800a50c   Section        0  usbd_conf.o(i.USBD_LL_StallEP)
    i.USBD_LL_Start                          0x0800a51e   Section        0  usbd_conf.o(i.USBD_LL_Start)
    i.USBD_LL_Suspend                        0x0800a530   Section        0  usbd_core.o(i.USBD_LL_Suspend)
    i.USBD_LL_Transmit                       0x0800a542   Section        0  usbd_conf.o(i.USBD_LL_Transmit)
    i.USBD_ParseSetupRequest                 0x0800a554   Section        0  usbd_ctlreq.o(i.USBD_ParseSetupRequest)
    i.USBD_RegisterClass                     0x0800a580   Section        0  usbd_core.o(i.USBD_RegisterClass)
    i.USBD_SetClassConfig                    0x0800a5a4   Section        0  usbd_core.o(i.USBD_SetClassConfig)
    i.USBD_SetConfig                         0x0800a5b8   Section        0  usbd_ctlreq.o(i.USBD_SetConfig)
    USBD_SetConfig                           0x0800a5b9   Thumb Code   182  usbd_ctlreq.o(i.USBD_SetConfig)
    i.USBD_Start                             0x0800a674   Section        0  usbd_core.o(i.USBD_Start)
    i.USBD_StdDevReq                         0x0800a678   Section        0  usbd_ctlreq.o(i.USBD_StdDevReq)
    i.USBD_StdEPReq                          0x0800a78c   Section        0  usbd_ctlreq.o(i.USBD_StdEPReq)
    i.USBD_StdItfReq                         0x0800a8cc   Section        0  usbd_ctlreq.o(i.USBD_StdItfReq)
    i.USB_ActivateEndpoint                   0x0800a91e   Section        0  stm32g4xx_ll_usb.o(i.USB_ActivateEndpoint)
    i.USB_DeactivateEndpoint                 0x0800abba   Section        0  stm32g4xx_ll_usb.o(i.USB_DeactivateEndpoint)
    i.USB_DevConnect                         0x0800acc8   Section        0  stm32g4xx_ll_usb.o(i.USB_DevConnect)
    i.USB_DevInit                            0x0800acd6   Section        0  stm32g4xx_ll_usb.o(i.USB_DevInit)
    i.USB_DisableGlobalInt                   0x0800ace8   Section        0  stm32g4xx_ll_usb.o(i.USB_DisableGlobalInt)
    i.USB_EPClearStall                       0x0800acf8   Section        0  stm32g4xx_ll_usb.o(i.USB_EPClearStall)
    i.USB_EPSetStall                         0x0800ad70   Section        0  stm32g4xx_ll_usb.o(i.USB_EPSetStall)
    i.USB_EPStartXfer                        0x0800ada2   Section        0  stm32g4xx_ll_usb.o(i.USB_EPStartXfer)
    i.USB_EnableGlobalInt                    0x0800b284   Section        0  stm32g4xx_ll_usb.o(i.USB_EnableGlobalInt)
    i.USB_LP_IRQHandler                      0x0800b298   Section        0  stm32g4xx_it.o(i.USB_LP_IRQHandler)
    i.USB_ReadInterrupts                     0x0800b2a4   Section        0  stm32g4xx_ll_usb.o(i.USB_ReadInterrupts)
    i.USB_ReadPMA                            0x0800b2aa   Section        0  stm32g4xx_ll_usb.o(i.USB_ReadPMA)
    i.USB_SetDevAddress                      0x0800b2d2   Section        0  stm32g4xx_ll_usb.o(i.USB_SetDevAddress)
    i.USB_WritePMA                           0x0800b2e0   Section        0  stm32g4xx_ll_usb.o(i.USB_WritePMA)
    i.UsageFault_Handler                     0x0800b306   Section        0  stm32g4xx_it.o(i.UsageFault_Handler)
    i.VectorActionTime                       0x0800b308   Section        0  foc_pwm.o(i.VectorActionTime)
    VectorActionTime                         0x0800b309   Thumb Code   590  foc_pwm.o(i.VectorActionTime)
    i._MecAngle_to_ElAngle                   0x0800b564   Section        0  foc_math.o(i._MecAngle_to_ElAngle)
    i.__ARM_fpclassify                       0x0800b572   Section        0  fpclassify.o(i.__ARM_fpclassify)
    i.__ARM_isinff                           0x0800b5a2   Section        0  foc_pid.o(i.__ARM_isinff)
    __ARM_isinff                             0x0800b5a3   Thumb Code    18  foc_pid.o(i.__ARM_isinff)
    i.__ARM_isnanf                           0x0800b5b4   Section        0  foc_pid.o(i.__ARM_isnanf)
    __ARM_isnanf                             0x0800b5b5   Thumb Code    12  foc_pid.o(i.__ARM_isnanf)
    i.__NVIC_SetPriority                     0x0800b5c0   Section        0  stm32g4xx_hal_cortex.o(i.__NVIC_SetPriority)
    __NVIC_SetPriority                       0x0800b5c1   Thumb Code    32  stm32g4xx_hal_cortex.o(i.__NVIC_SetPriority)
    i.__hardfp_fmodf                         0x0800b5e0   Section        0  fmodf.o(i.__hardfp_fmodf)
    i.__mathlib_flt_invalid                  0x0800b690   Section        0  funder.o(i.__mathlib_flt_invalid)
    i._is_digit                              0x0800b6a0   Section        0  __printf_wp.o(i._is_digit)
    i._sys_exit                              0x0800b6ae   Section        0  my_usart.o(i._sys_exit)
    i.cdc_vcp_data_rx                        0x0800b6b0   Section        0  usbd_cdc_if.o(i.cdc_vcp_data_rx)
    i.cdc_vcp_data_tx                        0x0800b708   Section        0  usbd_cdc_if.o(i.cdc_vcp_data_tx)
    i.delay_init                             0x0800b724   Section        0  delay.o(i.delay_init)
    i.delay_ms                               0x0800b754   Section        0  delay.o(i.delay_ms)
    i.delay_us                               0x0800b770   Section        0  delay.o(i.delay_us)
    i.fputc                                  0x0800b7a4   Section        0  my_usart.o(i.fputc)
    i.main                                   0x0800b7bc   Section        0  main.o(i.main)
    i.uart_init                              0x0800b800   Section        0  my_usart.o(i.uart_init)
    locale$$code                             0x0800b824   Section       44  lc_numeric_c.o(locale$$code)
    x$fpl$dretinf                            0x0800b850   Section       12  dretinf.o(x$fpl$dretinf)
    $v0                                      0x0800b850   Number         0  dretinf.o(x$fpl$dretinf)
    x$fpl$f2d                                0x0800b85c   Section       86  f2d.o(x$fpl$f2d)
    $v0                                      0x0800b85c   Number         0  f2d.o(x$fpl$f2d)
    x$fpl$fnaninf                            0x0800b8b2   Section      140  fnaninf.o(x$fpl$fnaninf)
    $v0                                      0x0800b8b2   Number         0  fnaninf.o(x$fpl$fnaninf)
    x$fpl$fpinit                             0x0800b93e   Section       10  fpinit.o(x$fpl$fpinit)
    $v0                                      0x0800b93e   Number         0  fpinit.o(x$fpl$fpinit)
    x$fpl$frem                               0x0800b948   Section      244  frem_clz.o(x$fpl$frem)
    $v0                                      0x0800b948   Number         0  frem_clz.o(x$fpl$frem)
    x$fpl$llsfromf                           0x0800ba3c   Section      134  ffixll.o(x$fpl$llsfromf)
    $v0                                      0x0800ba3c   Number         0  ffixll.o(x$fpl$llsfromf)
    x$fpl$printf1                            0x0800bac2   Section        4  printf1.o(x$fpl$printf1)
    $v0                                      0x0800bac2   Number         0  printf1.o(x$fpl$printf1)
    .constdata                               0x0800bac6   Section       24  stm32g4xx_hal_uart.o(.constdata)
    x$fpl$usenofp                            0x0800bac6   Section        0  usenofp.o(x$fpl$usenofp)
    .constdata                               0x0800bade   Section       16  stm32g4xx_hal_uart_ex.o(.constdata)
    numerator                                0x0800bade   Data           8  stm32g4xx_hal_uart_ex.o(.constdata)
    denominator                              0x0800bae6   Data           8  stm32g4xx_hal_uart_ex.o(.constdata)
    .constdata                               0x0800baee   Section       16  system_stm32g4xx.o(.constdata)
    .constdata                               0x0800bafe   Section        8  system_stm32g4xx.o(.constdata)
    .constdata                               0x0800bb06   Section       17  __printf_flags_ss_wp.o(.constdata)
    maptable                                 0x0800bb06   Data          17  __printf_flags_ss_wp.o(.constdata)
    .constdata                               0x0800bb18   Section      148  bigflt0.o(.constdata)
    tenpwrs_x                                0x0800bb18   Data          60  bigflt0.o(.constdata)
    tenpwrs_i                                0x0800bb54   Data          64  bigflt0.o(.constdata)
    .conststring                             0x0800bbac   Section      159  foc_pid.o(.conststring)
    locale$$data                             0x0800c470   Section       28  lc_numeric_c.o(locale$$data)
    __lcnum_c_name                           0x0800c474   Data           2  lc_numeric_c.o(locale$$data)
    __lcnum_c_start                          0x0800c47c   Data           0  lc_numeric_c.o(locale$$data)
    __lcnum_c_point                          0x0800c488   Data           0  lc_numeric_c.o(locale$$data)
    __lcnum_c_thousands                      0x0800c48a   Data           0  lc_numeric_c.o(locale$$data)
    __lcnum_c_grouping                       0x0800c48b   Data           0  lc_numeric_c.o(locale$$data)
    __lcnum_c_end                            0x0800c48c   Data           0  lc_numeric_c.o(locale$$data)
    .data                                    0x20000000   Section        4  adc.o(.data)
    HAL_RCC_ADC12_CLK_ENABLED                0x20000000   Data           4  adc.o(.data)
    .data                                    0x20000004   Section        4  stm32g4xx_it.o(.data)
    .data                                    0x20000008   Section       12  stm32g4xx_hal.o(.data)
    .data                                    0x20000014   Section        4  system_stm32g4xx.o(.data)
    .data                                    0x20000018   Section        8  delay.o(.data)
    g_fac_us                                 0x20000018   Data           4  delay.o(.data)
    .data                                    0x20000020   Section        4  my_usart.o(.data)
    .data                                    0x20000024   Section        3  bsp_irq.o(.data)
    .data                                    0x20000027   Section        1  usbd_ctlreq.o(.data)
    cfgidx                                   0x20000027   Data           1  usbd_ctlreq.o(.data)
    .data                                    0x20000028   Section      215  usbd_cdc.o(.data)
    USBD_CDC_DeviceQualifierDesc             0x20000028   Data          10  usbd_cdc.o(.data)
    USBD_CDC_CfgHSDesc                       0x20000034   Data          67  usbd_cdc.o(.data)
    USBD_CDC_CfgFSDesc                       0x20000078   Data          67  usbd_cdc.o(.data)
    USBD_CDC_OtherSpeedCfgDesc               0x200000bc   Data          67  usbd_cdc.o(.data)
    .data                                    0x20000100   Section       56  usbd_cdc.o(.data)
    .data                                    0x20000138   Section       12  usbd_cdc_if.o(.data)
    .data                                    0x20000144   Section       20  usbd_cdc_if.o(.data)
    .data                                    0x20000158   Section        1  usbd_conf.o(.data)
    .data                                    0x2000015c   Section       28  usbd_desc.o(.data)
    .data                                    0x20000178   Section       50  usbd_desc.o(.data)
    .data                                    0x200001ac   Section       84  debug.o(.data)
    .data                                    0x20000200   Section    24228  foc_app.o(.data)
    .bss                                     0x200060a4   Section      612  adc.o(.bss)
    .bss                                     0x20006308   Section      380  tim.o(.bss)
    .bss                                     0x20006484   Section      148  usart.o(.bss)
    .bss                                     0x20006518   Section      732  usb.o(.bss)
    .bss                                     0x200067f4   Section      540  usbd_cdc.o(.bss)
    .bss                                     0x20006a10   Section      720  usb_device.o(.bss)
    .bss                                     0x20006ce0   Section      600  usbd_cdc_if.o(.bss)
    .bss                                     0x20006f38   Section      256  usbd_desc.o(.bss)
    .bss                                     0x20007038   Section       96  libspace.o(.bss)
    HEAP                                     0x20007098   Section        0  startup_stm32g473xx.o(HEAP)
    STACK                                    0x20007098   Section     1024  startup_stm32g473xx.o(STACK)
    Heap_Mem                                 0x20007098   Data           0  startup_stm32g473xx.o(HEAP)
    Stack_Mem                                0x20007098   Data        1024  startup_stm32g473xx.o(STACK)
    __initial_sp                             0x20007498   Data           0  startup_stm32g473xx.o(STACK)

    Global Symbols

    Symbol Name                              Value     Ov Type        Size  Object(Section)

    BuildAttributes$$THM_ISAv4$E$P$D$K$B$S$7EM$VFPi3$EXTD16$VFPS$VFMA$PE$A:L22UL41UL21$X:L11$S22US41US21$IEEE1$IW$USESV6$~STKCKD$USESV7$~SHL$OTIME$ROPI$IEEEX$EBA8$UX$STANDARDLIB$REQ8$PRES8$EABIv2 0x00000000   Number         0  anon$$obj.o ABSOLUTE
    __ARM_use_no_argv                        0x00000000   Number         0  main.o ABSOLUTE
    _printf_flags                            0x00000000   Number         0  printf_stubs.o ABSOLUTE
    _printf_return_value                     0x00000000   Number         0  printf_stubs.o ABSOLUTE
    _printf_sizespec                         0x00000000   Number         0  printf_stubs.o ABSOLUTE
    _printf_widthprec                        0x00000000   Number         0  printf_stubs.o ABSOLUTE
    __ARM_exceptions_init                     - Undefined Weak Reference
    __alloca_initialize                       - Undefined Weak Reference
    __arm_preinit_                            - Undefined Weak Reference
    __cpp_initialize__aeabi_                  - Undefined Weak Reference
    __cxa_finalize                            - Undefined Weak Reference
    __sigvec_lookup                           - Undefined Weak Reference
    _atexit_init                              - Undefined Weak Reference
    _call_atexit_fns                          - Undefined Weak Reference
    _clock_init                               - Undefined Weak Reference
    _fp_trap_init                             - Undefined Weak Reference
    _fp_trap_shutdown                         - Undefined Weak Reference
    _get_lc_collate                           - Undefined Weak Reference
    _get_lc_monetary                          - Undefined Weak Reference
    _get_lc_time                              - Undefined Weak Reference
    _getenv_init                              - Undefined Weak Reference
    _handle_redirection                       - Undefined Weak Reference
    _init_alloc                               - Undefined Weak Reference
    _init_user_alloc                          - Undefined Weak Reference
    _initio                                   - Undefined Weak Reference
    _mutex_acquire                            - Undefined Weak Reference
    _mutex_release                            - Undefined Weak Reference
    _printf_mbtowc                            - Undefined Weak Reference
    _printf_wc                                - Undefined Weak Reference
    _rand_init                                - Undefined Weak Reference
    _signal_finish                            - Undefined Weak Reference
    _signal_init                              - Undefined Weak Reference
    _terminate_alloc                          - Undefined Weak Reference
    _terminate_user_alloc                     - Undefined Weak Reference
    _terminateio                              - Undefined Weak Reference
    __Vectors_Size                           0x000001d8   Number         0  startup_stm32g473xx.o ABSOLUTE
    __Vectors                                0x08000000   Data           4  startup_stm32g473xx.o(RESET)
    __Vectors_End                            0x080001d8   Data           0  startup_stm32g473xx.o(RESET)
    __main                                   0x080001d9   Thumb Code     8  __main.o(!!!main)
    __scatterload                            0x080001e1   Thumb Code     0  __scatter.o(!!!scatter)
    __scatterload_rt2                        0x080001e1   Thumb Code    44  __scatter.o(!!!scatter)
    __scatterload_rt2_thumb_only             0x080001e1   Thumb Code     0  __scatter.o(!!!scatter)
    __scatterload_null                       0x080001ef   Thumb Code     0  __scatter.o(!!!scatter)
    __decompress                             0x08000215   Thumb Code    90  __dczerorl2.o(!!dczerorl2)
    __decompress1                            0x08000215   Thumb Code     0  __dczerorl2.o(!!dczerorl2)
    __scatterload_zeroinit                   0x08000271   Thumb Code    28  __scatter_zi.o(!!handler_zi)
    _printf_f                                0x0800028d   Thumb Code     0  _printf_f.o(.ARM.Collect$$_printf_percent$$00000003)
    _printf_percent                          0x0800028d   Thumb Code     0  _printf_percent.o(.ARM.Collect$$_printf_percent$$00000000)
    _printf_d                                0x08000293   Thumb Code     0  _printf_d.o(.ARM.Collect$$_printf_percent$$00000009)
    _printf_percent_end                      0x08000299   Thumb Code     0  _printf_percent_end.o(.ARM.Collect$$_printf_percent$$00000017)
    __rt_lib_init                            0x0800029d   Thumb Code     0  libinit.o(.ARM.Collect$$libinit$$00000000)
    __rt_lib_init_fp_1                       0x0800029f   Thumb Code     0  libinit2.o(.ARM.Collect$$libinit$$00000001)
    __rt_lib_init_heap_1                     0x080002a3   Thumb Code     0  libinit2.o(.ARM.Collect$$libinit$$0000000A)
    __rt_lib_init_lc_common                  0x080002a3   Thumb Code     0  libinit2.o(.ARM.Collect$$libinit$$0000000F)
    __rt_lib_init_preinit_1                  0x080002a3   Thumb Code     0  libinit2.o(.ARM.Collect$$libinit$$00000004)
    __rt_lib_init_rand_1                     0x080002a3   Thumb Code     0  libinit2.o(.ARM.Collect$$libinit$$0000000E)
    __rt_lib_init_user_alloc_1               0x080002a3   Thumb Code     0  libinit2.o(.ARM.Collect$$libinit$$0000000C)
    __rt_lib_init_lc_collate_1               0x080002a9   Thumb Code     0  libinit2.o(.ARM.Collect$$libinit$$00000011)
    __rt_lib_init_lc_ctype_1                 0x080002a9   Thumb Code     0  libinit2.o(.ARM.Collect$$libinit$$00000013)
    __rt_lib_init_lc_monetary_1              0x080002a9   Thumb Code     0  libinit2.o(.ARM.Collect$$libinit$$00000015)
    __rt_lib_init_lc_numeric_2               0x080002a9   Thumb Code     0  libinit2.o(.ARM.Collect$$libinit$$00000016)
    __rt_lib_init_alloca_1                   0x080002b3   Thumb Code     0  libinit2.o(.ARM.Collect$$libinit$$0000002E)
    __rt_lib_init_argv_1                     0x080002b3   Thumb Code     0  libinit2.o(.ARM.Collect$$libinit$$0000002C)
    __rt_lib_init_atexit_1                   0x080002b3   Thumb Code     0  libinit2.o(.ARM.Collect$$libinit$$0000001B)
    __rt_lib_init_clock_1                    0x080002b3   Thumb Code     0  libinit2.o(.ARM.Collect$$libinit$$00000021)
    __rt_lib_init_cpp_1                      0x080002b3   Thumb Code     0  libinit2.o(.ARM.Collect$$libinit$$00000032)
    __rt_lib_init_exceptions_1               0x080002b3   Thumb Code     0  libinit2.o(.ARM.Collect$$libinit$$00000030)
    __rt_lib_init_fp_trap_1                  0x080002b3   Thumb Code     0  libinit2.o(.ARM.Collect$$libinit$$0000001F)
    __rt_lib_init_getenv_1                   0x080002b3   Thumb Code     0  libinit2.o(.ARM.Collect$$libinit$$00000023)
    __rt_lib_init_lc_numeric_1               0x080002b3   Thumb Code     0  libinit2.o(.ARM.Collect$$libinit$$00000017)
    __rt_lib_init_lc_time_1                  0x080002b3   Thumb Code     0  libinit2.o(.ARM.Collect$$libinit$$00000019)
    __rt_lib_init_return                     0x080002b3   Thumb Code     0  libinit2.o(.ARM.Collect$$libinit$$00000033)
    __rt_lib_init_signal_1                   0x080002b3   Thumb Code     0  libinit2.o(.ARM.Collect$$libinit$$0000001D)
    __rt_lib_init_stdio_1                    0x080002b3   Thumb Code     0  libinit2.o(.ARM.Collect$$libinit$$00000025)
    __rt_lib_shutdown                        0x080002b5   Thumb Code     0  libshutdown.o(.ARM.Collect$$libshutdown$$00000000)
    __rt_lib_shutdown_cpp_1                  0x080002b7   Thumb Code     0  libshutdown2.o(.ARM.Collect$$libshutdown$$00000002)
    __rt_lib_shutdown_fp_trap_1              0x080002b7   Thumb Code     0  libshutdown2.o(.ARM.Collect$$libshutdown$$00000007)
    __rt_lib_shutdown_heap_1                 0x080002b7   Thumb Code     0  libshutdown2.o(.ARM.Collect$$libshutdown$$0000000F)
    __rt_lib_shutdown_return                 0x080002b7   Thumb Code     0  libshutdown2.o(.ARM.Collect$$libshutdown$$00000010)
    __rt_lib_shutdown_signal_1               0x080002b7   Thumb Code     0  libshutdown2.o(.ARM.Collect$$libshutdown$$0000000A)
    __rt_lib_shutdown_stdio_1                0x080002b7   Thumb Code     0  libshutdown2.o(.ARM.Collect$$libshutdown$$00000004)
    __rt_lib_shutdown_user_alloc_1           0x080002b7   Thumb Code     0  libshutdown2.o(.ARM.Collect$$libshutdown$$0000000C)
    __rt_entry                               0x080002b9   Thumb Code     0  __rtentry.o(.ARM.Collect$$rtentry$$00000000)
    __rt_entry_presh_1                       0x080002b9   Thumb Code     0  __rtentry2.o(.ARM.Collect$$rtentry$$00000002)
    __rt_entry_sh                            0x080002b9   Thumb Code     0  __rtentry4.o(.ARM.Collect$$rtentry$$00000004)
    __rt_entry_li                            0x080002bf   Thumb Code     0  __rtentry2.o(.ARM.Collect$$rtentry$$0000000A)
    __rt_entry_postsh_1                      0x080002bf   Thumb Code     0  __rtentry2.o(.ARM.Collect$$rtentry$$00000009)
    __rt_entry_main                          0x080002c3   Thumb Code     0  __rtentry2.o(.ARM.Collect$$rtentry$$0000000D)
    __rt_entry_postli_1                      0x080002c3   Thumb Code     0  __rtentry2.o(.ARM.Collect$$rtentry$$0000000C)
    __rt_exit                                0x080002cb   Thumb Code     0  rtexit.o(.ARM.Collect$$rtexit$$00000000)
    __rt_exit_ls                             0x080002cd   Thumb Code     0  rtexit2.o(.ARM.Collect$$rtexit$$00000003)
    __rt_exit_prels_1                        0x080002cd   Thumb Code     0  rtexit2.o(.ARM.Collect$$rtexit$$00000002)
    __rt_exit_exit                           0x080002d1   Thumb Code     0  rtexit2.o(.ARM.Collect$$rtexit$$00000004)
    Reset_Handler                            0x080002d9   Thumb Code     8  startup_stm32g473xx.o(.text)
    ADC4_IRQHandler                          0x080002f3   Thumb Code     0  startup_stm32g473xx.o(.text)
    ADC5_IRQHandler                          0x080002f3   Thumb Code     0  startup_stm32g473xx.o(.text)
    COMP1_2_3_IRQHandler                     0x080002f3   Thumb Code     0  startup_stm32g473xx.o(.text)
    COMP4_5_6_IRQHandler                     0x080002f3   Thumb Code     0  startup_stm32g473xx.o(.text)
    COMP7_IRQHandler                         0x080002f3   Thumb Code     0  startup_stm32g473xx.o(.text)
    CORDIC_IRQHandler                        0x080002f3   Thumb Code     0  startup_stm32g473xx.o(.text)
    CRS_IRQHandler                           0x080002f3   Thumb Code     0  startup_stm32g473xx.o(.text)
    DMA1_Channel4_IRQHandler                 0x080002f3   Thumb Code     0  startup_stm32g473xx.o(.text)
    DMA1_Channel5_IRQHandler                 0x080002f3   Thumb Code     0  startup_stm32g473xx.o(.text)
    DMA1_Channel6_IRQHandler                 0x080002f3   Thumb Code     0  startup_stm32g473xx.o(.text)
    DMA1_Channel7_IRQHandler                 0x080002f3   Thumb Code     0  startup_stm32g473xx.o(.text)
    DMA1_Channel8_IRQHandler                 0x080002f3   Thumb Code     0  startup_stm32g473xx.o(.text)
    DMA2_Channel1_IRQHandler                 0x080002f3   Thumb Code     0  startup_stm32g473xx.o(.text)
    DMA2_Channel2_IRQHandler                 0x080002f3   Thumb Code     0  startup_stm32g473xx.o(.text)
    DMA2_Channel3_IRQHandler                 0x080002f3   Thumb Code     0  startup_stm32g473xx.o(.text)
    DMA2_Channel4_IRQHandler                 0x080002f3   Thumb Code     0  startup_stm32g473xx.o(.text)
    DMA2_Channel5_IRQHandler                 0x080002f3   Thumb Code     0  startup_stm32g473xx.o(.text)
    DMA2_Channel6_IRQHandler                 0x080002f3   Thumb Code     0  startup_stm32g473xx.o(.text)
    DMA2_Channel7_IRQHandler                 0x080002f3   Thumb Code     0  startup_stm32g473xx.o(.text)
    DMA2_Channel8_IRQHandler                 0x080002f3   Thumb Code     0  startup_stm32g473xx.o(.text)
    DMAMUX_OVR_IRQHandler                    0x080002f3   Thumb Code     0  startup_stm32g473xx.o(.text)
    EXTI0_IRQHandler                         0x080002f3   Thumb Code     0  startup_stm32g473xx.o(.text)
    EXTI15_10_IRQHandler                     0x080002f3   Thumb Code     0  startup_stm32g473xx.o(.text)
    EXTI1_IRQHandler                         0x080002f3   Thumb Code     0  startup_stm32g473xx.o(.text)
    EXTI2_IRQHandler                         0x080002f3   Thumb Code     0  startup_stm32g473xx.o(.text)
    EXTI3_IRQHandler                         0x080002f3   Thumb Code     0  startup_stm32g473xx.o(.text)
    EXTI4_IRQHandler                         0x080002f3   Thumb Code     0  startup_stm32g473xx.o(.text)
    EXTI9_5_IRQHandler                       0x080002f3   Thumb Code     0  startup_stm32g473xx.o(.text)
    FDCAN1_IT0_IRQHandler                    0x080002f3   Thumb Code     0  startup_stm32g473xx.o(.text)
    FDCAN1_IT1_IRQHandler                    0x080002f3   Thumb Code     0  startup_stm32g473xx.o(.text)
    FDCAN2_IT0_IRQHandler                    0x080002f3   Thumb Code     0  startup_stm32g473xx.o(.text)
    FDCAN2_IT1_IRQHandler                    0x080002f3   Thumb Code     0  startup_stm32g473xx.o(.text)
    FDCAN3_IT0_IRQHandler                    0x080002f3   Thumb Code     0  startup_stm32g473xx.o(.text)
    FDCAN3_IT1_IRQHandler                    0x080002f3   Thumb Code     0  startup_stm32g473xx.o(.text)
    FLASH_IRQHandler                         0x080002f3   Thumb Code     0  startup_stm32g473xx.o(.text)
    FMAC_IRQHandler                          0x080002f3   Thumb Code     0  startup_stm32g473xx.o(.text)
    FMC_IRQHandler                           0x080002f3   Thumb Code     0  startup_stm32g473xx.o(.text)
    FPU_IRQHandler                           0x080002f3   Thumb Code     0  startup_stm32g473xx.o(.text)
    I2C1_ER_IRQHandler                       0x080002f3   Thumb Code     0  startup_stm32g473xx.o(.text)
    I2C1_EV_IRQHandler                       0x080002f3   Thumb Code     0  startup_stm32g473xx.o(.text)
    I2C2_ER_IRQHandler                       0x080002f3   Thumb Code     0  startup_stm32g473xx.o(.text)
    I2C2_EV_IRQHandler                       0x080002f3   Thumb Code     0  startup_stm32g473xx.o(.text)
    I2C3_ER_IRQHandler                       0x080002f3   Thumb Code     0  startup_stm32g473xx.o(.text)
    I2C3_EV_IRQHandler                       0x080002f3   Thumb Code     0  startup_stm32g473xx.o(.text)
    I2C4_ER_IRQHandler                       0x080002f3   Thumb Code     0  startup_stm32g473xx.o(.text)
    I2C4_EV_IRQHandler                       0x080002f3   Thumb Code     0  startup_stm32g473xx.o(.text)
    LPTIM1_IRQHandler                        0x080002f3   Thumb Code     0  startup_stm32g473xx.o(.text)
    LPUART1_IRQHandler                       0x080002f3   Thumb Code     0  startup_stm32g473xx.o(.text)
    PVD_PVM_IRQHandler                       0x080002f3   Thumb Code     0  startup_stm32g473xx.o(.text)
    QUADSPI_IRQHandler                       0x080002f3   Thumb Code     0  startup_stm32g473xx.o(.text)
    RCC_IRQHandler                           0x080002f3   Thumb Code     0  startup_stm32g473xx.o(.text)
    RNG_IRQHandler                           0x080002f3   Thumb Code     0  startup_stm32g473xx.o(.text)
    RTC_Alarm_IRQHandler                     0x080002f3   Thumb Code     0  startup_stm32g473xx.o(.text)
    RTC_TAMP_LSECSS_IRQHandler               0x080002f3   Thumb Code     0  startup_stm32g473xx.o(.text)
    RTC_WKUP_IRQHandler                      0x080002f3   Thumb Code     0  startup_stm32g473xx.o(.text)
    SAI1_IRQHandler                          0x080002f3   Thumb Code     0  startup_stm32g473xx.o(.text)
    SPI1_IRQHandler                          0x080002f3   Thumb Code     0  startup_stm32g473xx.o(.text)
    SPI2_IRQHandler                          0x080002f3   Thumb Code     0  startup_stm32g473xx.o(.text)
    SPI3_IRQHandler                          0x080002f3   Thumb Code     0  startup_stm32g473xx.o(.text)
    SPI4_IRQHandler                          0x080002f3   Thumb Code     0  startup_stm32g473xx.o(.text)
    TIM1_BRK_TIM15_IRQHandler                0x080002f3   Thumb Code     0  startup_stm32g473xx.o(.text)
    TIM1_CC_IRQHandler                       0x080002f3   Thumb Code     0  startup_stm32g473xx.o(.text)
    TIM1_TRG_COM_TIM17_IRQHandler            0x080002f3   Thumb Code     0  startup_stm32g473xx.o(.text)
    TIM20_BRK_IRQHandler                     0x080002f3   Thumb Code     0  startup_stm32g473xx.o(.text)
    TIM20_CC_IRQHandler                      0x080002f3   Thumb Code     0  startup_stm32g473xx.o(.text)
    TIM20_TRG_COM_IRQHandler                 0x080002f3   Thumb Code     0  startup_stm32g473xx.o(.text)
    TIM20_UP_IRQHandler                      0x080002f3   Thumb Code     0  startup_stm32g473xx.o(.text)
    TIM3_IRQHandler                          0x080002f3   Thumb Code     0  startup_stm32g473xx.o(.text)
    TIM4_IRQHandler                          0x080002f3   Thumb Code     0  startup_stm32g473xx.o(.text)
    TIM7_DAC_IRQHandler                      0x080002f3   Thumb Code     0  startup_stm32g473xx.o(.text)
    TIM8_BRK_IRQHandler                      0x080002f3   Thumb Code     0  startup_stm32g473xx.o(.text)
    TIM8_CC_IRQHandler                       0x080002f3   Thumb Code     0  startup_stm32g473xx.o(.text)
    TIM8_TRG_COM_IRQHandler                  0x080002f3   Thumb Code     0  startup_stm32g473xx.o(.text)
    TIM8_UP_IRQHandler                       0x080002f3   Thumb Code     0  startup_stm32g473xx.o(.text)
    UART4_IRQHandler                         0x080002f3   Thumb Code     0  startup_stm32g473xx.o(.text)
    UART5_IRQHandler                         0x080002f3   Thumb Code     0  startup_stm32g473xx.o(.text)
    UCPD1_IRQHandler                         0x080002f3   Thumb Code     0  startup_stm32g473xx.o(.text)
    USART1_IRQHandler                        0x080002f3   Thumb Code     0  startup_stm32g473xx.o(.text)
    USART2_IRQHandler                        0x080002f3   Thumb Code     0  startup_stm32g473xx.o(.text)
    USART3_IRQHandler                        0x080002f3   Thumb Code     0  startup_stm32g473xx.o(.text)
    USBWakeUp_IRQHandler                     0x080002f3   Thumb Code     0  startup_stm32g473xx.o(.text)
    USB_HP_IRQHandler                        0x080002f3   Thumb Code     0  startup_stm32g473xx.o(.text)
    WWDG_IRQHandler                          0x080002f3   Thumb Code     0  startup_stm32g473xx.o(.text)
    __user_initial_stackheap                 0x080002f5   Thumb Code     0  startup_stm32g473xx.o(.text)
    __use_no_semihosting                     0x08000315   Thumb Code     2  use_no_semi_2.o(.text)
    __aeabi_uldivmod                         0x08000317   Thumb Code     0  lludivv7m.o(.text)
    _ll_udiv                                 0x08000317   Thumb Code   238  lludivv7m.o(.text)
    __2printf                                0x08000405   Thumb Code    20  __2printf.o(.text)
    _printf_int_dec                          0x0800041d   Thumb Code   104  _printf_dec.o(.text)
    __printf                                 0x08000495   Thumb Code   388  __printf_flags_ss_wp.o(.text)
    __aeabi_memcpy4                          0x0800061d   Thumb Code     0  rt_memcpy_w.o(.text)
    __aeabi_memcpy8                          0x0800061d   Thumb Code     0  rt_memcpy_w.o(.text)
    __rt_memcpy_w                            0x0800061d   Thumb Code   100  rt_memcpy_w.o(.text)
    _memcpy_lastbytes_aligned                0x08000665   Thumb Code     0  rt_memcpy_w.o(.text)
    __aeabi_memclr4                          0x08000681   Thumb Code     0  rt_memclr_w.o(.text)
    __aeabi_memclr8                          0x08000681   Thumb Code     0  rt_memclr_w.o(.text)
    __rt_memclr_w                            0x08000681   Thumb Code    78  rt_memclr_w.o(.text)
    _memset_w                                0x08000685   Thumb Code     0  rt_memclr_w.o(.text)
    __use_two_region_memory                  0x080006cf   Thumb Code     2  heapauxi.o(.text)
    __rt_heap_escrow$2region                 0x080006d1   Thumb Code     2  heapauxi.o(.text)
    __rt_heap_expand$2region                 0x080006d3   Thumb Code     2  heapauxi.o(.text)
    __semihosting$guard                      0x080006d5   Thumb Code     0  use_no_semi.o(.text)
    __use_no_semihosting_swi                 0x080006d5   Thumb Code     2  use_no_semi.o(.text)
    __read_errno                             0x080006d7   Thumb Code    10  _rserrno.o(.text)
    __set_errno                              0x080006e1   Thumb Code    12  _rserrno.o(.text)
    _printf_int_common                       0x080006ed   Thumb Code   178  _printf_intcommon.o(.text)
    __lib_sel_fp_printf                      0x0800079f   Thumb Code     2  _printf_fp_dec.o(.text)
    _printf_fp_dec_real                      0x0800094d   Thumb Code   620  _printf_fp_dec.o(.text)
    _printf_char_common                      0x08000bc3   Thumb Code    32  _printf_char_common.o(.text)
    _printf_char_file                        0x08000be9   Thumb Code    32  _printf_char_file.o(.text)
    __rt_locale                              0x08000c0d   Thumb Code     8  rt_locale_intlibspace.o(.text)
    __aeabi_errno_addr                       0x08000c15   Thumb Code     8  rt_errno_addr_intlibspace.o(.text)
    __errno$intlibspace                      0x08000c15   Thumb Code     0  rt_errno_addr_intlibspace.o(.text)
    __rt_errno_addr$intlibspace              0x08000c15   Thumb Code     0  rt_errno_addr_intlibspace.o(.text)
    _ll_udiv10                               0x08000c1d   Thumb Code   138  lludiv10.o(.text)
    _printf_fp_infnan                        0x08000ca9   Thumb Code   112  _printf_fp_infnan.o(.text)
    _btod_etento                             0x08000d29   Thumb Code   216  bigflt0.o(.text)
    ferror                                   0x08000e05   Thumb Code     8  ferror.o(.text)
    __user_libspace                          0x08000e0d   Thumb Code     8  libspace.o(.text)
    __user_perproc_libspace                  0x08000e0d   Thumb Code     0  libspace.o(.text)
    __user_perthread_libspace                0x08000e0d   Thumb Code     0  libspace.o(.text)
    __user_setup_stackheap                   0x08000e15   Thumb Code    74  sys_stackheap_outer.o(.text)
    exit                                     0x08000e5f   Thumb Code    18  exit.o(.text)
    strcmp                                   0x08000e71   Thumb Code   128  strcmpv7m.o(.text)
    arm_cos_f32                              0x08000ef1   Thumb Code   152  arm_cos_f32.o(.text.arm_cos_f32)
    arm_sin_f32                              0x08000f89   Thumb Code   144  arm_sin_f32.o(.text.arm_sin_f32)
    _btod_d2e                                0x08001019   Thumb Code    62  btod.o(CL$$btod_d2e)
    _d2e_denorm_low                          0x08001057   Thumb Code    70  btod.o(CL$$btod_d2e_denorm_low)
    _d2e_norm_op1                            0x0800109d   Thumb Code    96  btod.o(CL$$btod_d2e_norm_op1)
    __btod_div_common                        0x080010fd   Thumb Code   696  btod.o(CL$$btod_div_common)
    _e2e                                     0x08001435   Thumb Code   198  btod.o(CL$$btod_e2e)
    _btod_ediv                               0x080014fb   Thumb Code    40  btod.o(CL$$btod_ediv)
    _btod_emul                               0x08001523   Thumb Code    40  btod.o(CL$$btod_emul)
    __btod_mult_common                       0x0800154b   Thumb Code   580  btod.o(CL$$btod_mult_common)
    ADC1_2_IRQHandler                        0x08001791   Thumb Code    18  stm32g4xx_it.o(i.ADC1_2_IRQHandler)
    ADC3_IRQHandler                          0x080017ad   Thumb Code     6  stm32g4xx_it.o(i.ADC3_IRQHandler)
    ADC_Disable                              0x080017b9   Thumb Code   106  stm32g4xx_hal_adc.o(i.ADC_Disable)
    ADC_Enable                               0x08001829   Thumb Code   172  stm32g4xx_hal_adc.o(i.ADC_Enable)
    BSP_Init                                 0x080018ed   Thumb Code    48  bsp.o(i.BSP_Init)
    BusFault_Handler                         0x0800192d   Thumb Code     2  stm32g4xx_it.o(i.BusFault_Handler)
    CC6920SO_CalcCur                         0x08001931   Thumb Code    68  cc6920so.o(i.CC6920SO_CalcCur)
    CC6920SO_Init                            0x08001985   Thumb Code    96  cc6920so.o(i.CC6920SO_Init)
    DMA1_Channel1_IRQHandler                 0x08001aa1   Thumb Code     6  stm32g4xx_it.o(i.DMA1_Channel1_IRQHandler)
    DMA1_Channel2_IRQHandler                 0x08001aad   Thumb Code     6  stm32g4xx_it.o(i.DMA1_Channel2_IRQHandler)
    DMA1_Channel3_IRQHandler                 0x08001ab9   Thumb Code     6  stm32g4xx_it.o(i.DMA1_Channel3_IRQHandler)
    DebugMon_Handler                         0x08001b29   Thumb Code     2  stm32g4xx_it.o(i.DebugMon_Handler)
    Debug_Task                               0x08001b2d   Thumb Code   182  debug.o(i.Debug_Task)
    Error_Handler                            0x08001bed   Thumb Code     4  main.o(i.Error_Handler)
    FOC_App_Run                              0x08001bf1   Thumb Code    34  foc_app.o(i.FOC_App_Run)
    FOC_Clarke                               0x08001c1d   Thumb Code    22  foc_math.o(i.FOC_Clarke)
    FOC_Current_Calib                        0x08001c39   Thumb Code   190  foc_current.o(i.FOC_Current_Calib)
    FOC_ENC_Angle_Calc                       0x08001d39   Thumb Code   104  foc_encoder.o(i.FOC_ENC_Angle_Calc)
    FOC_ENC_IRQHandler                       0x08001da5   Thumb Code    40  foc_encoder.o(i.FOC_ENC_IRQHandler)
    FOC_ENC_Init                             0x08001de9   Thumb Code    18  foc_encoder.o(i.FOC_ENC_Init)
    FOC_ENC_Speed_Calc_M                     0x08001dfd   Thumb Code   170  foc_encoder.o(i.FOC_ENC_Speed_Calc_M)
    FOC_ERR                                  0x08001ead   Thumb Code    34  foc_math.o(i.FOC_ERR)
    FOC_FLUX_Angle_Calc                      0x08001ed9   Thumb Code   242  foc_flux.o(i.FOC_FLUX_Angle_Calc)
    FOC_FLUX_Angle_PLL                       0x08001fd1   Thumb Code   160  foc_flux.o(i.FOC_FLUX_Angle_PLL)
    FOC_FLUX_Clear                           0x08002079   Thumb Code    20  foc_flux.o(i.FOC_FLUX_Clear)
    FOC_FLUX_EFFECTIVE_Angle_Calc            0x08002091   Thumb Code    84  foc_flux.o(i.FOC_FLUX_EFFECTIVE_Angle_Calc)
    FOC_FLUX_I_Calc                          0x080020e5   Thumb Code    92  foc_flux.o(i.FOC_FLUX_I_Calc)
    FOC_FLUX_Init                            0x08002141   Thumb Code   110  foc_flux.o(i.FOC_FLUX_Init)
    FOC_FLUX_Speed_Calc                      0x080021c5   Thumb Code   106  foc_flux.o(i.FOC_FLUX_Speed_Calc)
    FOC_FLUX_V_Calc                          0x08002245   Thumb Code   180  foc_flux.o(i.FOC_FLUX_V_Calc)
    FOC_Get_ENC_Count                        0x080022fd   Thumb Code     8  foc_encoder.o(i.FOC_Get_ENC_Count)
    FOC_Get_ENC_Dir                          0x08002309   Thumb Code    16  foc_encoder.o(i.FOC_Get_ENC_Dir)
    FOC_HALL_Angle_Calc                      0x0800231d   Thumb Code   160  foc_hall.o(i.FOC_HALL_Angle_Calc)
    FOC_HALL_CC_IRQ_Handler                  0x080023c5   Thumb Code   402  foc_hall.o(i.FOC_HALL_CC_IRQ_Handler)
    FOC_HALL_Init                            0x08002565   Thumb Code   230  foc_hall.o(i.FOC_HALL_Init)
    FOC_HFI_Angle_Calc                       0x080026a1   Thumb Code   254  foc_hfi.o(i.FOC_HFI_Angle_Calc)
    FOC_HFI_Clear                            0x080027a5   Thumb Code     6  foc_hfi.o(i.FOC_HFI_Clear)
    FOC_HFI_Init                             0x080027ab   Thumb Code    58  foc_hfi.o(i.FOC_HFI_Init)
    FOC_HFI_Inject                           0x080027e5   Thumb Code    52  foc_hfi.o(i.FOC_HFI_Inject)
    FOC_HFI_InjectPolIdent                   0x08002819   Thumb Code   198  foc_hfi.o(i.FOC_HFI_InjectPolIdent)
    FOC_HFI_Speed_Calc                       0x080028e9   Thumb Code    52  foc_hfi.o(i.FOC_HFI_Speed_Calc)
    FOC_HFI_alphabeta_HF                     0x08002925   Thumb Code    22  foc_hfi.o(i.FOC_HFI_alphabeta_HF)
    FOC_HFI_alphabeta_LF                     0x0800293b   Thumb Code    22  foc_hfi.o(i.FOC_HFI_alphabeta_LF)
    FOC_Identify_Init                        0x08002951   Thumb Code    56  foc_identify.o(i.FOC_Identify_Init)
    FOC_Identify_R_QD                        0x0800298d   Thumb Code   218  foc_identify.o(i.FOC_Identify_R_QD)
    FOC_Init                                 0x08002a85   Thumb Code   264  foc_app.o(i.FOC_Init)
    FOC_Motor_Init                           0x08002c05   Thumb Code     6  foc_motor.o(i.FOC_Motor_Init)
    FOC_Motor_Run                            0x08002c0d   Thumb Code   232  foc_motor.o(i.FOC_Motor_Run)
    FOC_Motor_Speed_Calc                     0x08002d1d   Thumb Code    42  foc_motor.o(i.FOC_Motor_Speed_Calc)
    FOC_Motor_Speed_Ctrl                     0x08002d49   Thumb Code    44  foc_motor.o(i.FOC_Motor_Speed_Ctrl)
    FOC_PWM_Init                             0x08002d79   Thumb Code    34  foc_pwm.o(i.FOC_PWM_Init)
    FOC_PWM_Run                              0x08002da1   Thumb Code    76  foc_pwm.o(i.FOC_PWM_Run)
    FOC_Port_Pwm_Start                       0x08002ded   Thumb Code   134  foc_port.o(i.FOC_Port_Pwm_Start)
    FOC_Port_Pwm_Stop                        0x08002e79   Thumb Code    54  foc_port.o(i.FOC_Port_Pwm_Stop)
    FOC_Port_Start                           0x08002eb5   Thumb Code    68  foc_port.o(i.FOC_Port_Start)
    FOC_Rev_Park                             0x08002f0d   Thumb Code    68  foc_math.o(i.FOC_Rev_Park)
    FOC_SIGN_Judgment                        0x08002f51   Thumb Code    18  foc_math.o(i.FOC_SIGN_Judgment)
    FOC_SL_DirErr                            0x08002f65   Thumb Code   142  foc_sensorless.o(i.FOC_SL_DirErr)
    FOC_SL_HFI_SMO_SW                        0x08003001   Thumb Code   248  foc_sensorless.o(i.FOC_SL_HFI_SMO_SW)
    FOC_SL_RUN                               0x08003105   Thumb Code   418  foc_sensorless.o(i.FOC_SL_RUN)
    FOC_SMO_Angle_Calc                       0x080032ad   Thumb Code   212  foc_smo.o(i.FOC_SMO_Angle_Calc)
    FOC_SMO_Clear                            0x08003385   Thumb Code    30  foc_smo.o(i.FOC_SMO_Clear)
    FOC_SMO_Init                             0x080033a9   Thumb Code    34  foc_smo.o(i.FOC_SMO_Init)
    FOC_SMO_Speed_Calc                       0x080033cd   Thumb Code   110  foc_smo.o(i.FOC_SMO_Speed_Calc)
    FOC_Sensorless_Init                      0x08003455   Thumb Code   154  foc_sensorless.o(i.FOC_Sensorless_Init)
    FOC_Sensorless_Speed_Cale                0x080034f5   Thumb Code    78  foc_sensorless.o(i.FOC_Sensorless_Speed_Cale)
    FOC_Start                                0x08003543   Thumb Code     4  foc_app.o(i.FOC_Start)
    FOC_VF_Angle_Calc                        0x08003547   Thumb Code    50  foc_vf.o(i.FOC_VF_Angle_Calc)
    FOC_VF_Init                              0x08003579   Thumb Code    18  foc_vf.o(i.FOC_VF_Init)
    FOC_VF_Speed_Calc                        0x0800358d   Thumb Code    80  foc_vf.o(i.FOC_VF_Speed_Calc)
    FOC_turnOn_LowSide                       0x080035e5   Thumb Code    18  foc_current.o(i.FOC_turnOn_LowSide)
    Foc_Current_Refresh                      0x080035fd   Thumb Code   150  foc_port.o(i.Foc_Current_Refresh)
    Foc_Park                                 0x080036a1   Thumb Code    68  foc_math.o(i.Foc_Park)
    HAL_ADCEx_Calibration_Start              0x080036e5   Thumb Code   138  stm32g4xx_hal_adc_ex.o(i.HAL_ADCEx_Calibration_Start)
    HAL_ADCEx_EndOfSamplingCallback          0x08003779   Thumb Code     2  stm32g4xx_hal_adc_ex.o(i.HAL_ADCEx_EndOfSamplingCallback)
    HAL_ADCEx_InjectedConfigChannel          0x0800377d   Thumb Code  1324  stm32g4xx_hal_adc_ex.o(i.HAL_ADCEx_InjectedConfigChannel)
    HAL_ADCEx_InjectedConvCpltCallback       0x08003cdd   Thumb Code    64  bsp_irq.o(i.HAL_ADCEx_InjectedConvCpltCallback)
    HAL_ADCEx_InjectedGetValue               0x08003d2d   Thumb Code    46  stm32g4xx_hal_adc_ex.o(i.HAL_ADCEx_InjectedGetValue)
    HAL_ADCEx_InjectedQueueOverflowCallback  0x08003d5b   Thumb Code     2  stm32g4xx_hal_adc_ex.o(i.HAL_ADCEx_InjectedQueueOverflowCallback)
    HAL_ADCEx_InjectedStart_IT               0x08003d5d   Thumb Code   320  stm32g4xx_hal_adc_ex.o(i.HAL_ADCEx_InjectedStart_IT)
    HAL_ADCEx_LevelOutOfWindow2Callback      0x08003eb5   Thumb Code     2  stm32g4xx_hal_adc_ex.o(i.HAL_ADCEx_LevelOutOfWindow2Callback)
    HAL_ADCEx_LevelOutOfWindow3Callback      0x08003eb7   Thumb Code     2  stm32g4xx_hal_adc_ex.o(i.HAL_ADCEx_LevelOutOfWindow3Callback)
    HAL_ADCEx_MultiModeConfigChannel         0x08003eb9   Thumb Code   326  stm32g4xx_hal_adc_ex.o(i.HAL_ADCEx_MultiModeConfigChannel)
    HAL_ADC_ConfigChannel                    0x08004019   Thumb Code  1066  stm32g4xx_hal_adc.o(i.HAL_ADC_ConfigChannel)
    HAL_ADC_ConvCpltCallback                 0x08004485   Thumb Code     2  bsp_irq.o(i.HAL_ADC_ConvCpltCallback)
    HAL_ADC_ErrorCallback                    0x08004487   Thumb Code     2  stm32g4xx_hal_adc.o(i.HAL_ADC_ErrorCallback)
    HAL_ADC_IRQHandler                       0x08004489   Thumb Code   674  stm32g4xx_hal_adc.o(i.HAL_ADC_IRQHandler)
    HAL_ADC_Init                             0x08004741   Thumb Code   510  stm32g4xx_hal_adc.o(i.HAL_ADC_Init)
    HAL_ADC_LevelOutOfWindowCallback         0x08004971   Thumb Code     2  stm32g4xx_hal_adc.o(i.HAL_ADC_LevelOutOfWindowCallback)
    HAL_ADC_MspInit                          0x08004975   Thumb Code   494  adc.o(i.HAL_ADC_MspInit)
    HAL_DMA_IRQHandler                       0x08004b81   Thumb Code   186  stm32g4xx_hal_dma.o(i.HAL_DMA_IRQHandler)
    HAL_DMA_Init                             0x08004c3d   Thumb Code   178  stm32g4xx_hal_dma.o(i.HAL_DMA_Init)
    HAL_Delay                                0x08004cfd   Thumb Code    32  stm32g4xx_hal.o(i.HAL_Delay)
    HAL_GPIO_Init                            0x08004d21   Thumb Code   550  stm32g4xx_hal_gpio.o(i.HAL_GPIO_Init)
    HAL_GPIO_ReadPin                         0x08004f69   Thumb Code    10  stm32g4xx_hal_gpio.o(i.HAL_GPIO_ReadPin)
    HAL_GPIO_TogglePin                       0x08004f73   Thumb Code    16  stm32g4xx_hal_gpio.o(i.HAL_GPIO_TogglePin)
    HAL_GPIO_WritePin                        0x08004f83   Thumb Code    10  stm32g4xx_hal_gpio.o(i.HAL_GPIO_WritePin)
    HAL_GetTick                              0x08004f8d   Thumb Code     6  stm32g4xx_hal.o(i.HAL_GetTick)
    HAL_IncTick                              0x08004f99   Thumb Code    12  stm32g4xx_hal.o(i.HAL_IncTick)
    HAL_Init                                 0x08004fa9   Thumb Code    30  stm32g4xx_hal.o(i.HAL_Init)
    HAL_InitTick                             0x08004fc9   Thumb Code    58  stm32g4xx_hal.o(i.HAL_InitTick)
    HAL_MspInit                              0x0800500d   Thumb Code    54  stm32g4xx_hal_msp.o(i.HAL_MspInit)
    HAL_NVIC_EnableIRQ                       0x08005049   Thumb Code    26  stm32g4xx_hal_cortex.o(i.HAL_NVIC_EnableIRQ)
    HAL_NVIC_SetPriority                     0x08005065   Thumb Code    60  stm32g4xx_hal_cortex.o(i.HAL_NVIC_SetPriority)
    HAL_NVIC_SetPriorityGrouping             0x080050a5   Thumb Code    26  stm32g4xx_hal_cortex.o(i.HAL_NVIC_SetPriorityGrouping)
    HAL_PCDEx_ActivateLPM                    0x080050c9   Thumb Code    36  stm32g4xx_hal_pcd_ex.o(i.HAL_PCDEx_ActivateLPM)
    HAL_PCDEx_LPM_Callback                   0x080050ed   Thumb Code     2  stm32g4xx_hal_pcd_ex.o(i.HAL_PCDEx_LPM_Callback)
    HAL_PCDEx_PMAConfig                      0x080050ef   Thumb Code    60  stm32g4xx_hal_pcd_ex.o(i.HAL_PCDEx_PMAConfig)
    HAL_PCD_DataInStageCallback              0x0800512b   Thumb Code    18  usbd_conf.o(i.HAL_PCD_DataInStageCallback)
    HAL_PCD_DataOutStageCallback             0x0800513d   Thumb Code    20  usbd_conf.o(i.HAL_PCD_DataOutStageCallback)
    HAL_PCD_EP_Close                         0x08005151   Thumb Code    74  stm32g4xx_hal_pcd.o(i.HAL_PCD_EP_Close)
    HAL_PCD_EP_ClrStall                      0x0800519b   Thumb Code    90  stm32g4xx_hal_pcd.o(i.HAL_PCD_EP_ClrStall)
    HAL_PCD_EP_GetRxCount                    0x08005611   Thumb Code    18  stm32g4xx_hal_pcd.o(i.HAL_PCD_EP_GetRxCount)
    HAL_PCD_EP_Open                          0x08005623   Thumb Code    88  stm32g4xx_hal_pcd.o(i.HAL_PCD_EP_Open)
    HAL_PCD_EP_Receive                       0x0800567b   Thumb Code    46  stm32g4xx_hal_pcd.o(i.HAL_PCD_EP_Receive)
    HAL_PCD_EP_SetStall                      0x080056a9   Thumb Code    94  stm32g4xx_hal_pcd.o(i.HAL_PCD_EP_SetStall)
    HAL_PCD_EP_Transmit                      0x08005707   Thumb Code    46  stm32g4xx_hal_pcd.o(i.HAL_PCD_EP_Transmit)
    HAL_PCD_IRQHandler                       0x08005735   Thumb Code   330  stm32g4xx_hal_pcd.o(i.HAL_PCD_IRQHandler)
    HAL_PCD_Init                             0x08005881   Thumb Code   156  stm32g4xx_hal_pcd.o(i.HAL_PCD_Init)
    HAL_PCD_MspInit                          0x0800591d   Thumb Code    80  usb.o(i.HAL_PCD_MspInit)
    HAL_PCD_ResetCallback                    0x08005975   Thumb Code    44  usbd_conf.o(i.HAL_PCD_ResetCallback)
    HAL_PCD_ResumeCallback                   0x080059d9   Thumb Code    40  usbd_conf.o(i.HAL_PCD_ResumeCallback)
    HAL_PCD_SOFCallback                      0x08005a19   Thumb Code     8  usbd_conf.o(i.HAL_PCD_SOFCallback)
    HAL_PCD_SetAddress                       0x08005a21   Thumb Code    38  stm32g4xx_hal_pcd.o(i.HAL_PCD_SetAddress)
    HAL_PCD_SetupStageCallback               0x08005a47   Thumb Code    14  usbd_conf.o(i.HAL_PCD_SetupStageCallback)
    HAL_PCD_Start                            0x08005a55   Thumb Code    42  stm32g4xx_hal_pcd.o(i.HAL_PCD_Start)
    HAL_PCD_SuspendCallback                  0x08005a81   Thumb Code    42  usbd_conf.o(i.HAL_PCD_SuspendCallback)
    HAL_PWREx_ControlVoltageScaling          0x08005ad1   Thumb Code   174  stm32g4xx_hal_pwr_ex.o(i.HAL_PWREx_ControlVoltageScaling)
    HAL_PWREx_DisableUCPDDeadBattery         0x08005b8d   Thumb Code    12  stm32g4xx_hal_pwr_ex.o(i.HAL_PWREx_DisableUCPDDeadBattery)
    HAL_RCCEx_CRSConfig                      0x08005b9d   Thumb Code    66  stm32g4xx_hal_rcc_ex.o(i.HAL_RCCEx_CRSConfig)
    HAL_RCCEx_PeriphCLKConfig                0x08005be9   Thumb Code   758  stm32g4xx_hal_rcc_ex.o(i.HAL_RCCEx_PeriphCLKConfig)
    HAL_RCC_ClockConfig                      0x08005ee9   Thumb Code   444  stm32g4xx_hal_rcc.o(i.HAL_RCC_ClockConfig)
    HAL_RCC_GetPCLK1Freq                     0x080060c5   Thumb Code    24  stm32g4xx_hal_rcc.o(i.HAL_RCC_GetPCLK1Freq)
    HAL_RCC_GetPCLK2Freq                     0x080060e9   Thumb Code    24  stm32g4xx_hal_rcc.o(i.HAL_RCC_GetPCLK2Freq)
    HAL_RCC_GetSysClockFreq                  0x0800610d   Thumb Code    98  stm32g4xx_hal_rcc.o(i.HAL_RCC_GetSysClockFreq)
    HAL_RCC_OscConfig                        0x0800617d   Thumb Code  1028  stm32g4xx_hal_rcc.o(i.HAL_RCC_OscConfig)
    HAL_SYSCFG_DisableVREFBUF                0x08006581   Thumb Code    12  stm32g4xx_hal.o(i.HAL_SYSCFG_DisableVREFBUF)
    HAL_SYSCFG_VREFBUF_HighImpedanceConfig   0x08006591   Thumb Code    14  stm32g4xx_hal.o(i.HAL_SYSCFG_VREFBUF_HighImpedanceConfig)
    HAL_SYSTICK_CLKSourceConfig              0x080065a5   Thumb Code    24  stm32g4xx_hal_cortex.o(i.HAL_SYSTICK_CLKSourceConfig)
    HAL_SYSTICK_Config                       0x080065bd   Thumb Code    40  stm32g4xx_hal_cortex.o(i.HAL_SYSTICK_Config)
    HAL_TIMEx_Break2Callback                 0x080065e5   Thumb Code     2  stm32g4xx_hal_tim_ex.o(i.HAL_TIMEx_Break2Callback)
    HAL_TIMEx_BreakCallback                  0x080065e7   Thumb Code     2  stm32g4xx_hal_tim_ex.o(i.HAL_TIMEx_BreakCallback)
    HAL_TIMEx_CommutCallback                 0x080065e9   Thumb Code     2  stm32g4xx_hal_tim_ex.o(i.HAL_TIMEx_CommutCallback)
    HAL_TIMEx_ConfigBreakDeadTime            0x080065ed   Thumb Code   154  stm32g4xx_hal_tim_ex.o(i.HAL_TIMEx_ConfigBreakDeadTime)
    HAL_TIMEx_DirectionChangeCallback        0x08006695   Thumb Code     2  stm32g4xx_hal_tim_ex.o(i.HAL_TIMEx_DirectionChangeCallback)
    HAL_TIMEx_EncoderIndexCallback           0x08006697   Thumb Code     2  stm32g4xx_hal_tim_ex.o(i.HAL_TIMEx_EncoderIndexCallback)
    HAL_TIMEx_HallSensor_Init                0x08006699   Thumb Code   208  stm32g4xx_hal_tim_ex.o(i.HAL_TIMEx_HallSensor_Init)
    HAL_TIMEx_HallSensor_MspInit             0x08006775   Thumb Code   102  tim.o(i.HAL_TIMEx_HallSensor_MspInit)
    HAL_TIMEx_HallSensor_Start_IT            0x080067e5   Thumb Code   156  stm32g4xx_hal_tim_ex.o(i.HAL_TIMEx_HallSensor_Start_IT)
    HAL_TIMEx_IndexErrorCallback             0x080068a1   Thumb Code     2  stm32g4xx_hal_tim_ex.o(i.HAL_TIMEx_IndexErrorCallback)
    HAL_TIMEx_MasterConfigSynchronization    0x080068a5   Thumb Code   150  stm32g4xx_hal_tim_ex.o(i.HAL_TIMEx_MasterConfigSynchronization)
    HAL_TIMEx_PWMN_Start                     0x0800695d   Thumb Code   170  stm32g4xx_hal_tim_ex.o(i.HAL_TIMEx_PWMN_Start)
    HAL_TIMEx_PWMN_Stop                      0x08006a29   Thumb Code   104  stm32g4xx_hal_tim_ex.o(i.HAL_TIMEx_PWMN_Stop)
    HAL_TIMEx_TransitionErrorCallback        0x08006a91   Thumb Code     2  stm32g4xx_hal_tim_ex.o(i.HAL_TIMEx_TransitionErrorCallback)
    HAL_TIM_Base_Init                        0x08006a93   Thumb Code    98  stm32g4xx_hal_tim.o(i.HAL_TIM_Base_Init)
    HAL_TIM_Base_MspInit                     0x08006af5   Thumb Code    50  tim.o(i.HAL_TIM_Base_MspInit)
    HAL_TIM_Base_Start_IT                    0x08006b31   Thumb Code   106  stm32g4xx_hal_tim.o(i.HAL_TIM_Base_Start_IT)
    HAL_TIM_Encoder_Init                     0x08006bbd   Thumb Code   162  stm32g4xx_hal_tim.o(i.HAL_TIM_Encoder_Init)
    HAL_TIM_Encoder_MspInit                  0x08006c65   Thumb Code    84  tim.o(i.HAL_TIM_Encoder_MspInit)
    HAL_TIM_Encoder_Start                    0x08006cc5   Thumb Code   142  stm32g4xx_hal_tim.o(i.HAL_TIM_Encoder_Start)
    HAL_TIM_IC_CaptureCallback               0x08006d55   Thumb Code    38  bsp_irq.o(i.HAL_TIM_IC_CaptureCallback)
    HAL_TIM_IC_ConfigChannel                 0x08006d89   Thumb Code   292  stm32g4xx_hal_tim.o(i.HAL_TIM_IC_ConfigChannel)
    HAL_TIM_IC_Init                          0x08006ead   Thumb Code    98  stm32g4xx_hal_tim.o(i.HAL_TIM_IC_Init)
    HAL_TIM_IC_MspInit                       0x08006f11   Thumb Code   102  tim.o(i.HAL_TIM_IC_MspInit)
    HAL_TIM_IC_Start_IT                      0x08006f81   Thumb Code   286  stm32g4xx_hal_tim.o(i.HAL_TIM_IC_Start_IT)
    HAL_TIM_IRQHandler                       0x080070c1   Thumb Code   418  stm32g4xx_hal_tim.o(i.HAL_TIM_IRQHandler)
    HAL_TIM_MspPostInit                      0x08007265   Thumb Code   136  tim.o(i.HAL_TIM_MspPostInit)
    HAL_TIM_OC_DelayElapsedCallback          0x080072f9   Thumb Code     2  bsp_irq.o(i.HAL_TIM_OC_DelayElapsedCallback)
    HAL_TIM_OC_Start_IT                      0x080072fd   Thumb Code   278  stm32g4xx_hal_tim.o(i.HAL_TIM_OC_Start_IT)
    HAL_TIM_OC_Stop_IT                       0x0800743d   Thumb Code   222  stm32g4xx_hal_tim.o(i.HAL_TIM_OC_Stop_IT)
    HAL_TIM_PWM_ConfigChannel                0x08007535   Thumb Code   292  stm32g4xx_hal_tim.o(i.HAL_TIM_PWM_ConfigChannel)
    HAL_TIM_PWM_Init                         0x08007659   Thumb Code    98  stm32g4xx_hal_tim.o(i.HAL_TIM_PWM_Init)
    HAL_TIM_PWM_MspInit                      0x080076bd   Thumb Code    50  tim.o(i.HAL_TIM_PWM_MspInit)
    HAL_TIM_PWM_PulseFinishedCallback        0x080076f9   Thumb Code     2  stm32g4xx_hal_tim.o(i.HAL_TIM_PWM_PulseFinishedCallback)
    HAL_TIM_PWM_Start                        0x080076fd   Thumb Code   234  stm32g4xx_hal_tim.o(i.HAL_TIM_PWM_Start)
    HAL_TIM_PWM_Stop                         0x08007811   Thumb Code   158  stm32g4xx_hal_tim.o(i.HAL_TIM_PWM_Stop)
    HAL_TIM_PeriodElapsedCallback            0x080078c9   Thumb Code    38  bsp_irq.o(i.HAL_TIM_PeriodElapsedCallback)
    HAL_TIM_TriggerCallback                  0x08007901   Thumb Code     2  stm32g4xx_hal_tim.o(i.HAL_TIM_TriggerCallback)
    HAL_UARTEx_DisableFifoMode               0x08007903   Thumb Code    62  stm32g4xx_hal_uart_ex.o(i.HAL_UARTEx_DisableFifoMode)
    HAL_UARTEx_SetRxFifoThreshold            0x08007941   Thumb Code    76  stm32g4xx_hal_uart_ex.o(i.HAL_UARTEx_SetRxFifoThreshold)
    HAL_UARTEx_SetTxFifoThreshold            0x0800798d   Thumb Code    76  stm32g4xx_hal_uart_ex.o(i.HAL_UARTEx_SetTxFifoThreshold)
    HAL_UART_Init                            0x080079d9   Thumb Code   106  stm32g4xx_hal_uart.o(i.HAL_UART_Init)
    HAL_UART_MspInit                         0x08007a45   Thumb Code   112  usart.o(i.HAL_UART_MspInit)
    HardFault_Handler                        0x08007ac1   Thumb Code     2  stm32g4xx_it.o(i.HardFault_Handler)
    Limit_Angle                              0x08007ba1   Thumb Code    56  foc_math.o(i.Limit_Angle)
    MX_ADC1_Init                             0x08007be1   Thumb Code   218  adc.o(i.MX_ADC1_Init)
    MX_ADC2_Init                             0x08007cc9   Thumb Code   186  adc.o(i.MX_ADC2_Init)
    MX_ADC3_Init                             0x08007d91   Thumb Code   218  adc.o(i.MX_ADC3_Init)
    MX_DMA_Init                              0x08007e79   Thumb Code    88  dma.o(i.MX_DMA_Init)
    MX_GPIO_Init                             0x08007ed5   Thumb Code   104  gpio.o(i.MX_GPIO_Init)
    MX_TIM1_Init                             0x08007f41   Thumb Code   260  tim.o(i.MX_TIM1_Init)
    MX_TIM2_Init                             0x0800804d   Thumb Code   104  tim.o(i.MX_TIM2_Init)
    MX_TIM3_Init                             0x080080b9   Thumb Code   102  tim.o(i.MX_TIM3_Init)
    MX_TIM5_Init                             0x08008129   Thumb Code    80  tim.o(i.MX_TIM5_Init)
    MX_TIM6_Init                             0x08008185   Thumb Code    64  tim.o(i.MX_TIM6_Init)
    MX_USART1_UART_Init                      0x080081cd   Thumb Code    94  usart.o(i.MX_USART1_UART_Init)
    MX_USB_Device_Init                       0x08008235   Thumb Code    42  usb_device.o(i.MX_USB_Device_Init)
    MX_USB_PCD_Init                          0x08008271   Thumb Code    46  usb.o(i.MX_USB_PCD_Init)
    MemManage_Handler                        0x080082a9   Thumb Code     2  stm32g4xx_it.o(i.MemManage_Handler)
    Motor_ABZ_ENC_RUN                        0x080082ab   Thumb Code   224  foc_motor.o(i.Motor_ABZ_ENC_RUN)
    Motor_HALL_RUN                           0x0800838b   Thumb Code   224  foc_motor.o(i.Motor_HALL_RUN)
    Motor_Run_Open                           0x0800846b   Thumb Code   136  foc_motor.o(i.Motor_Run_Open)
    Motor_SL_RUN                             0x080084f5   Thumb Code   426  foc_motor.o(i.Motor_SL_RUN)
    Move_Filter_Clear                        0x080086a5   Thumb Code    44  foc_filter.o(i.Move_Filter_Clear)
    Move_Filter_Init                         0x080086d5   Thumb Code    34  foc_filter.o(i.Move_Filter_Init)
    Move_Filter_calculate                    0x080086f9   Thumb Code    60  foc_filter.o(i.Move_Filter_calculate)
    Move_Filter_fill                         0x08008739   Thumb Code    74  foc_filter.o(i.Move_Filter_fill)
    NMI_Handler                              0x08008783   Thumb Code     2  stm32g4xx_it.o(i.NMI_Handler)
    PID_Clear                                0x08008b1d   Thumb Code    54  foc_pid.o(i.PID_Clear)
    PID_Init                                 0x08008b59   Thumb Code    38  foc_pid.o(i.PID_Init)
    PID_Position_ctrl                        0x08008b85   Thumb Code   604  foc_pid.o(i.PID_Position_ctrl)
    PLL_Cale_HFI                             0x08008ded   Thumb Code   158  foc_filter.o(i.PLL_Cale_HFI)
    PLL_Cale_SMO                             0x08008e95   Thumb Code   162  foc_filter.o(i.PLL_Cale_SMO)
    PLL_Clear                                0x08008f41   Thumb Code    30  foc_filter.o(i.PLL_Clear)
    PLL_Init                                 0x08008f65   Thumb Code    14  foc_filter.o(i.PLL_Init)
    PendSV_Handler                           0x08008f73   Thumb Code     2  stm32g4xx_it.o(i.PendSV_Handler)
    SVC_Handler                              0x08008f75   Thumb Code     2  stm32g4xx_it.o(i.SVC_Handler)
    SysTick_Handler                          0x08009029   Thumb Code    38  stm32g4xx_it.o(i.SysTick_Handler)
    SystemClock_Config                       0x08009055   Thumb Code   110  main.o(i.SystemClock_Config)
    SystemInit                               0x080090c5   Thumb Code    12  system_stm32g4xx.o(i.SystemInit)
    TIM1_UP_TIM16_IRQHandler                 0x080090d5   Thumb Code     6  stm32g4xx_it.o(i.TIM1_UP_TIM16_IRQHandler)
    TIM2_IRQHandler                          0x080090e1   Thumb Code     6  stm32g4xx_it.o(i.TIM2_IRQHandler)
    TIM5_IRQHandler                          0x080090ed   Thumb Code     6  stm32g4xx_it.o(i.TIM5_IRQHandler)
    TIM6_DAC_IRQHandler                      0x080090f9   Thumb Code     6  stm32g4xx_it.o(i.TIM6_DAC_IRQHandler)
    TIM_Base_SetConfig                       0x08009105   Thumb Code   190  stm32g4xx_hal_tim.o(i.TIM_Base_SetConfig)
    TIM_CCxChannelCmd                        0x080091e9   Thumb Code    26  stm32g4xx_hal_tim.o(i.TIM_CCxChannelCmd)
    TIM_OC2_SetConfig                        0x080092c9   Thumb Code   132  stm32g4xx_hal_tim.o(i.TIM_OC2_SetConfig)
    TIM_TI1_SetConfig                        0x0800959d   Thumb Code   100  stm32g4xx_hal_tim.o(i.TIM_TI1_SetConfig)
    UART_AdvFeatureConfig                    0x08009699   Thumb Code   200  stm32g4xx_hal_uart.o(i.UART_AdvFeatureConfig)
    UART_CheckIdleState                      0x08009761   Thumb Code   172  stm32g4xx_hal_uart.o(i.UART_CheckIdleState)
    UART_SetConfig                           0x08009861   Thumb Code   614  stm32g4xx_hal_uart.o(i.UART_SetConfig)
    UART_WaitOnFlagUntilTimeout              0x08009af9   Thumb Code   148  stm32g4xx_hal_uart.o(i.UART_WaitOnFlagUntilTimeout)
    USBD_CDC_ConfigStrDescriptor             0x08009b8d   Thumb Code    16  usbd_desc.o(i.USBD_CDC_ConfigStrDescriptor)
    USBD_CDC_DeviceDescriptor                0x08009c75   Thumb Code     8  usbd_desc.o(i.USBD_CDC_DeviceDescriptor)
    USBD_CDC_GetDeviceQualifierDescriptor    0x08009cb1   Thumb Code     8  usbd_cdc.o(i.USBD_CDC_GetDeviceQualifierDescriptor)
    USBD_CDC_InterfaceStrDescriptor          0x08009d71   Thumb Code    16  usbd_desc.o(i.USBD_CDC_InterfaceStrDescriptor)
    USBD_CDC_LangIDStrDescriptor             0x08009d95   Thumb Code     8  usbd_desc.o(i.USBD_CDC_LangIDStrDescriptor)
    USBD_CDC_ManufacturerStrDescriptor       0x08009da1   Thumb Code    16  usbd_desc.o(i.USBD_CDC_ManufacturerStrDescriptor)
    USBD_CDC_ProductStrDescriptor            0x08009dc9   Thumb Code    16  usbd_desc.o(i.USBD_CDC_ProductStrDescriptor)
    USBD_CDC_ReceivePacket                   0x08009e01   Thumb Code    40  usbd_cdc.o(i.USBD_CDC_ReceivePacket)
    USBD_CDC_RegisterInterface               0x08009e29   Thumb Code    14  usbd_cdc.o(i.USBD_CDC_RegisterInterface)
    USBD_CDC_SerialStrDescriptor             0x08009e39   Thumb Code    48  usbd_desc.o(i.USBD_CDC_SerialStrDescriptor)
    USBD_CDC_SetRxBuffer                     0x08009e71   Thumb Code    18  usbd_cdc.o(i.USBD_CDC_SetRxBuffer)
    USBD_CDC_SetTxBuffer                     0x08009e83   Thumb Code    22  usbd_cdc.o(i.USBD_CDC_SetTxBuffer)
    USBD_CDC_TransmitPacket                  0x08009f57   Thumb Code    54  usbd_cdc.o(i.USBD_CDC_TransmitPacket)
    USBD_Clock_Config                        0x08009f8d   Thumb Code    88  usb_device.o(i.USBD_Clock_Config)
    USBD_ClrClassConfig                      0x08009fe9   Thumb Code    16  usbd_core.o(i.USBD_ClrClassConfig)
    USBD_CtlContinueRx                       0x08009ff9   Thumb Code    16  usbd_ioreq.o(i.USBD_CtlContinueRx)
    USBD_CtlContinueSendData                 0x0800a009   Thumb Code    16  usbd_ioreq.o(i.USBD_CtlContinueSendData)
    USBD_CtlError                            0x0800a019   Thumb Code    22  usbd_ctlreq.o(i.USBD_CtlError)
    USBD_CtlPrepareRx                        0x0800a02f   Thumb Code    30  usbd_ioreq.o(i.USBD_CtlPrepareRx)
    USBD_CtlReceiveStatus                    0x0800a04d   Thumb Code    22  usbd_ioreq.o(i.USBD_CtlReceiveStatus)
    USBD_CtlSendData                         0x0800a063   Thumb Code    26  usbd_ioreq.o(i.USBD_CtlSendData)
    USBD_CtlSendStatus                       0x0800a07d   Thumb Code    22  usbd_ioreq.o(i.USBD_CtlSendStatus)
    USBD_GetString                           0x0800a179   Thumb Code    72  usbd_ctlreq.o(i.USBD_GetString)
    USBD_Init                                0x0800a1d9   Thumb Code    38  usbd_core.o(i.USBD_Init)
    USBD_LL_ClearStallEP                     0x0800a1ff   Thumb Code    18  usbd_conf.o(i.USBD_LL_ClearStallEP)
    USBD_LL_CloseEP                          0x0800a211   Thumb Code    18  usbd_conf.o(i.USBD_LL_CloseEP)
    USBD_LL_DataInStage                      0x0800a223   Thumb Code   168  usbd_core.o(i.USBD_LL_DataInStage)
    USBD_LL_DataOutStage                     0x0800a2cb   Thumb Code   108  usbd_core.o(i.USBD_LL_DataOutStage)
    USBD_LL_GetRxDataSize                    0x0800a337   Thumb Code     8  usbd_conf.o(i.USBD_LL_GetRxDataSize)
    USBD_LL_Init                             0x0800a341   Thumb Code   108  usbd_conf.o(i.USBD_LL_Init)
    USBD_LL_IsStallEP                        0x0800a3b5   Thumb Code    30  usbd_conf.o(i.USBD_LL_IsStallEP)
    USBD_LL_OpenEP                           0x0800a3d3   Thumb Code    24  usbd_conf.o(i.USBD_LL_OpenEP)
    USBD_LL_PrepareReceive                   0x0800a3eb   Thumb Code    18  usbd_conf.o(i.USBD_LL_PrepareReceive)
    USBD_LL_Reset                            0x0800a3fd   Thumb Code    90  usbd_core.o(i.USBD_LL_Reset)
    USBD_LL_Resume                           0x0800a457   Thumb Code    20  usbd_core.o(i.USBD_LL_Resume)
    USBD_LL_SOF                              0x0800a46b   Thumb Code    32  usbd_core.o(i.USBD_LL_SOF)
    USBD_LL_SetSpeed                         0x0800a48b   Thumb Code     6  usbd_core.o(i.USBD_LL_SetSpeed)
    USBD_LL_SetUSBAddress                    0x0800a491   Thumb Code    24  usbd_conf.o(i.USBD_LL_SetUSBAddress)
    USBD_LL_SetupStage                       0x0800a4ad   Thumb Code    96  usbd_core.o(i.USBD_LL_SetupStage)
    USBD_LL_StallEP                          0x0800a50d   Thumb Code    18  usbd_conf.o(i.USBD_LL_StallEP)
    USBD_LL_Start                            0x0800a51f   Thumb Code    18  usbd_conf.o(i.USBD_LL_Start)
    USBD_LL_Suspend                          0x0800a531   Thumb Code    18  usbd_core.o(i.USBD_LL_Suspend)
    USBD_LL_Transmit                         0x0800a543   Thumb Code    18  usbd_conf.o(i.USBD_LL_Transmit)
    USBD_ParseSetupRequest                   0x0800a555   Thumb Code    44  usbd_ctlreq.o(i.USBD_ParseSetupRequest)
    USBD_RegisterClass                       0x0800a581   Thumb Code    36  usbd_core.o(i.USBD_RegisterClass)
    USBD_SetClassConfig                      0x0800a5a5   Thumb Code    20  usbd_core.o(i.USBD_SetClassConfig)
    USBD_Start                               0x0800a675   Thumb Code     4  usbd_core.o(i.USBD_Start)
    USBD_StdDevReq                           0x0800a679   Thumb Code   276  usbd_ctlreq.o(i.USBD_StdDevReq)
    USBD_StdEPReq                            0x0800a78d   Thumb Code   320  usbd_ctlreq.o(i.USBD_StdEPReq)
    USBD_StdItfReq                           0x0800a8cd   Thumb Code    82  usbd_ctlreq.o(i.USBD_StdItfReq)
    USB_ActivateEndpoint                     0x0800a91f   Thumb Code   668  stm32g4xx_ll_usb.o(i.USB_ActivateEndpoint)
    USB_DeactivateEndpoint                   0x0800abbb   Thumb Code   270  stm32g4xx_ll_usb.o(i.USB_DeactivateEndpoint)
    USB_DevConnect                           0x0800acc9   Thumb Code    14  stm32g4xx_ll_usb.o(i.USB_DevConnect)
    USB_DevInit                              0x0800acd7   Thumb Code    18  stm32g4xx_ll_usb.o(i.USB_DevInit)
    USB_DisableGlobalInt                     0x0800ace9   Thumb Code    16  stm32g4xx_ll_usb.o(i.USB_DisableGlobalInt)
    USB_EPClearStall                         0x0800acf9   Thumb Code   120  stm32g4xx_ll_usb.o(i.USB_EPClearStall)
    USB_EPSetStall                           0x0800ad71   Thumb Code    50  stm32g4xx_ll_usb.o(i.USB_EPSetStall)
    USB_EPStartXfer                          0x0800ada3   Thumb Code  1250  stm32g4xx_ll_usb.o(i.USB_EPStartXfer)
    USB_EnableGlobalInt                      0x0800b285   Thumb Code    18  stm32g4xx_ll_usb.o(i.USB_EnableGlobalInt)
    USB_LP_IRQHandler                        0x0800b299   Thumb Code     6  stm32g4xx_it.o(i.USB_LP_IRQHandler)
    USB_ReadInterrupts                       0x0800b2a5   Thumb Code     6  stm32g4xx_ll_usb.o(i.USB_ReadInterrupts)
    USB_ReadPMA                              0x0800b2ab   Thumb Code    40  stm32g4xx_ll_usb.o(i.USB_ReadPMA)
    USB_SetDevAddress                        0x0800b2d3   Thumb Code    12  stm32g4xx_ll_usb.o(i.USB_SetDevAddress)
    USB_WritePMA                             0x0800b2e1   Thumb Code    38  stm32g4xx_ll_usb.o(i.USB_WritePMA)
    UsageFault_Handler                       0x0800b307   Thumb Code     2  stm32g4xx_it.o(i.UsageFault_Handler)
    _MecAngle_to_ElAngle                     0x0800b565   Thumb Code    14  foc_math.o(i._MecAngle_to_ElAngle)
    __ARM_fpclassify                         0x0800b573   Thumb Code    48  fpclassify.o(i.__ARM_fpclassify)
    __hardfp_fmodf                           0x0800b5e1   Thumb Code   176  fmodf.o(i.__hardfp_fmodf)
    __mathlib_flt_invalid                    0x0800b691   Thumb Code    10  funder.o(i.__mathlib_flt_invalid)
    _is_digit                                0x0800b6a1   Thumb Code    14  __printf_wp.o(i._is_digit)
    _sys_exit                                0x0800b6af   Thumb Code     2  my_usart.o(i._sys_exit)
    cdc_vcp_data_rx                          0x0800b6b1   Thumb Code    78  usbd_cdc_if.o(i.cdc_vcp_data_rx)
    cdc_vcp_data_tx                          0x0800b709   Thumb Code    22  usbd_cdc_if.o(i.cdc_vcp_data_tx)
    delay_init                               0x0800b725   Thumb Code    44  delay.o(i.delay_init)
    delay_ms                                 0x0800b755   Thumb Code    26  delay.o(i.delay_ms)
    delay_us                                 0x0800b771   Thumb Code    48  delay.o(i.delay_us)
    fputc                                    0x0800b7a5   Thumb Code    18  my_usart.o(i.fputc)
    main                                     0x0800b7bd   Thumb Code    66  main.o(i.main)
    uart_init                                0x0800b801   Thumb Code    28  my_usart.o(i.uart_init)
    _get_lc_numeric                          0x0800b825   Thumb Code    44  lc_numeric_c.o(locale$$code)
    __fpl_dretinf                            0x0800b851   Thumb Code    12  dretinf.o(x$fpl$dretinf)
    __aeabi_f2d                              0x0800b85d   Thumb Code     0  f2d.o(x$fpl$f2d)
    _f2d                                     0x0800b85d   Thumb Code    86  f2d.o(x$fpl$f2d)
    __fpl_fnaninf                            0x0800b8b3   Thumb Code   140  fnaninf.o(x$fpl$fnaninf)
    _fp_init                                 0x0800b93f   Thumb Code    10  fpinit.o(x$fpl$fpinit)
    __fplib_config_fpu_vfp                   0x0800b947   Thumb Code     0  fpinit.o(x$fpl$fpinit)
    __fplib_config_pureend_doubles           0x0800b947   Thumb Code     0  fpinit.o(x$fpl$fpinit)
    _frem                                    0x0800b949   Thumb Code   240  frem_clz.o(x$fpl$frem)
    __aeabi_f2lz                             0x0800ba3d   Thumb Code     0  ffixll.o(x$fpl$llsfromf)
    _ll_sfrom_f                              0x0800ba3d   Thumb Code   134  ffixll.o(x$fpl$llsfromf)
    _printf_fp_dec                           0x0800bac3   Thumb Code     4  printf1.o(x$fpl$printf1)
    UARTPrescTable                           0x0800bac6   Data          24  stm32g4xx_hal_uart.o(.constdata)
    __I$use$fp                               0x0800bac6   Number         0  usenofp.o(x$fpl$usenofp)
    AHBPrescTable                            0x0800baee   Data          16  system_stm32g4xx.o(.constdata)
    APBPrescTable                            0x0800bafe   Data           8  system_stm32g4xx.o(.constdata)
    sinTable_f32                             0x0800bc4c   Data        2052  arm_common_tables.o(.rodata.sinTable_f32)
    Region$$Table$$Base                      0x0800c450   Number         0  anon$$obj.o(Region$$Table)
    Region$$Table$$Limit                     0x0800c470   Number         0  anon$$obj.o(Region$$Table)
    SysTick_count                            0x20000004   Data           4  stm32g4xx_it.o(.data)
    uwTickPrio                               0x20000008   Data           4  stm32g4xx_hal.o(.data)
    uwTickFreq                               0x2000000c   Data           4  stm32g4xx_hal.o(.data)
    uwTick                                   0x20000010   Data           4  stm32g4xx_hal.o(.data)
    SystemCoreClock                          0x20000014   Data           4  system_stm32g4xx.o(.data)
    u32SysTickCount                          0x2000001c   Data           4  delay.o(.data)
    __stdout                                 0x20000020   Data           4  my_usart.o(.data)
    adc_flag                                 0x20000024   Data           3  bsp_irq.o(.data)
    USBD_CDC                                 0x20000100   Data          56  usbd_cdc.o(.data)
    g_usb_usart_rx_sta                       0x20000138   Data           2  usbd_cdc_if.o(.data)
    LineCoding                               0x2000013c   Data           8  usbd_cdc_if.o(.data)
    USBD_Interface_fops_FS                   0x20000144   Data          20  usbd_cdc_if.o(.data)
    g_device_state                           0x20000158   Data           1  usbd_conf.o(.data)
    CDC_Desc                                 0x2000015c   Data          28  usbd_desc.o(.data)
    USBD_LangIDDesc                          0x20000178   Data           4  usbd_desc.o(.data)
    USBD_CDC_DeviceDesc                      0x2000017c   Data          18  usbd_desc.o(.data)
    USBD_StringSerial                        0x20000190   Data          26  usbd_desc.o(.data)
    VOFA_Handle                              0x200001ac   Data          84  debug.o(.data)
    FOC_MOTOR                                0x20000200   Data       24228  foc_app.o(.data)
    hadc1                                    0x200060a4   Data         108  adc.o(.bss)
    hadc2                                    0x20006110   Data         108  adc.o(.bss)
    hadc3                                    0x2000617c   Data         108  adc.o(.bss)
    hdma_adc1                                0x200061e8   Data          96  adc.o(.bss)
    hdma_adc2                                0x20006248   Data          96  adc.o(.bss)
    hdma_adc3                                0x200062a8   Data          96  adc.o(.bss)
    htim1                                    0x20006308   Data          76  tim.o(.bss)
    htim2                                    0x20006354   Data          76  tim.o(.bss)
    htim3                                    0x200063a0   Data          76  tim.o(.bss)
    htim5                                    0x200063ec   Data          76  tim.o(.bss)
    htim6                                    0x20006438   Data          76  tim.o(.bss)
    huart1                                   0x20006484   Data         148  usart.o(.bss)
    hpcd_USB_FS                              0x20006518   Data         732  usb.o(.bss)
    USBD_CDC_Handle                          0x200067f4   Data         540  usbd_cdc.o(.bss)
    hUsbDeviceFS                             0x20006a10   Data         720  usb_device.o(.bss)
    g_usb_usart_printf_buffer                0x20006ce0   Data         200  usbd_cdc_if.o(.bss)
    g_usb_rx_buffer                          0x20006da8   Data         200  usbd_cdc_if.o(.bss)
    g_usb_usart_rx_buffer                    0x20006e70   Data         200  usbd_cdc_if.o(.bss)
    USBD_StrDesc                             0x20006f38   Data         256  usbd_desc.o(.bss)
    __libspace_start                         0x20007038   Data          96  libspace.o(.bss)
    __temporary_stack_top$libspace           0x20007098   Data           0  libspace.o(.bss)



==============================================================================

Memory Map of the image

  Image Entry point : 0x080001d9

  Load Region LR_IROM1 (Base: 0x08000000, Size: 0x00012530, Max: 0x00020000, ABSOLUTE, COMPRESSED[0x0000c6c8])

    Execution Region ER_IROM1 (Base: 0x08000000, Size: 0x0000c48c, Max: 0x00020000, ABSOLUTE)

    Base Addr    Size         Type   Attr      Idx    E Section Name        Object

    0x08000000   0x000001d8   Data   RO            3    RESET               startup_stm32g473xx.o
    0x080001d8   0x00000008   Code   RO         7207  * !!!main             c_w.l(__main.o)
    0x080001e0   0x00000034   Code   RO         7557    !!!scatter          c_w.l(__scatter.o)
    0x08000214   0x0000005a   Code   RO         7555    !!dczerorl2         c_w.l(__dczerorl2.o)
    0x0800026e   0x00000002   PAD
    0x08000270   0x0000001c   Code   RO         7559    !!handler_zi        c_w.l(__scatter_zi.o)
    0x0800028c   0x00000000   Code   RO         7198    .ARM.Collect$$_printf_percent$$00000000  c_w.l(_printf_percent.o)
    0x0800028c   0x00000006   Code   RO         7197    .ARM.Collect$$_printf_percent$$00000003  c_w.l(_printf_f.o)
    0x08000292   0x00000006   Code   RO         7196    .ARM.Collect$$_printf_percent$$00000009  c_w.l(_printf_d.o)
    0x08000298   0x00000004   Code   RO         7299    .ARM.Collect$$_printf_percent$$00000017  c_w.l(_printf_percent_end.o)
    0x0800029c   0x00000002   Code   RO         7434    .ARM.Collect$$libinit$$00000000  c_w.l(libinit.o)
    0x0800029e   0x00000004   Code   RO         7435    .ARM.Collect$$libinit$$00000001  c_w.l(libinit2.o)
    0x080002a2   0x00000000   Code   RO         7438    .ARM.Collect$$libinit$$00000004  c_w.l(libinit2.o)
    0x080002a2   0x00000000   Code   RO         7441    .ARM.Collect$$libinit$$0000000A  c_w.l(libinit2.o)
    0x080002a2   0x00000000   Code   RO         7443    .ARM.Collect$$libinit$$0000000C  c_w.l(libinit2.o)
    0x080002a2   0x00000000   Code   RO         7445    .ARM.Collect$$libinit$$0000000E  c_w.l(libinit2.o)
    0x080002a2   0x00000006   Code   RO         7446    .ARM.Collect$$libinit$$0000000F  c_w.l(libinit2.o)
    0x080002a8   0x00000000   Code   RO         7448    .ARM.Collect$$libinit$$00000011  c_w.l(libinit2.o)
    0x080002a8   0x00000000   Code   RO         7450    .ARM.Collect$$libinit$$00000013  c_w.l(libinit2.o)
    0x080002a8   0x00000000   Code   RO         7452    .ARM.Collect$$libinit$$00000015  c_w.l(libinit2.o)
    0x080002a8   0x0000000a   Code   RO         7453    .ARM.Collect$$libinit$$00000016  c_w.l(libinit2.o)
    0x080002b2   0x00000000   Code   RO         7454    .ARM.Collect$$libinit$$00000017  c_w.l(libinit2.o)
    0x080002b2   0x00000000   Code   RO         7456    .ARM.Collect$$libinit$$00000019  c_w.l(libinit2.o)
    0x080002b2   0x00000000   Code   RO         7458    .ARM.Collect$$libinit$$0000001B  c_w.l(libinit2.o)
    0x080002b2   0x00000000   Code   RO         7460    .ARM.Collect$$libinit$$0000001D  c_w.l(libinit2.o)
    0x080002b2   0x00000000   Code   RO         7462    .ARM.Collect$$libinit$$0000001F  c_w.l(libinit2.o)
    0x080002b2   0x00000000   Code   RO         7464    .ARM.Collect$$libinit$$00000021  c_w.l(libinit2.o)
    0x080002b2   0x00000000   Code   RO         7466    .ARM.Collect$$libinit$$00000023  c_w.l(libinit2.o)
    0x080002b2   0x00000000   Code   RO         7468    .ARM.Collect$$libinit$$00000025  c_w.l(libinit2.o)
    0x080002b2   0x00000000   Code   RO         7472    .ARM.Collect$$libinit$$0000002C  c_w.l(libinit2.o)
    0x080002b2   0x00000000   Code   RO         7474    .ARM.Collect$$libinit$$0000002E  c_w.l(libinit2.o)
    0x080002b2   0x00000000   Code   RO         7476    .ARM.Collect$$libinit$$00000030  c_w.l(libinit2.o)
    0x080002b2   0x00000000   Code   RO         7478    .ARM.Collect$$libinit$$00000032  c_w.l(libinit2.o)
    0x080002b2   0x00000002   Code   RO         7479    .ARM.Collect$$libinit$$00000033  c_w.l(libinit2.o)
    0x080002b4   0x00000002   Code   RO         7520    .ARM.Collect$$libshutdown$$00000000  c_w.l(libshutdown.o)
    0x080002b6   0x00000000   Code   RO         7538    .ARM.Collect$$libshutdown$$00000002  c_w.l(libshutdown2.o)
    0x080002b6   0x00000000   Code   RO         7540    .ARM.Collect$$libshutdown$$00000004  c_w.l(libshutdown2.o)
    0x080002b6   0x00000000   Code   RO         7543    .ARM.Collect$$libshutdown$$00000007  c_w.l(libshutdown2.o)
    0x080002b6   0x00000000   Code   RO         7546    .ARM.Collect$$libshutdown$$0000000A  c_w.l(libshutdown2.o)
    0x080002b6   0x00000000   Code   RO         7548    .ARM.Collect$$libshutdown$$0000000C  c_w.l(libshutdown2.o)
    0x080002b6   0x00000000   Code   RO         7551    .ARM.Collect$$libshutdown$$0000000F  c_w.l(libshutdown2.o)
    0x080002b6   0x00000002   Code   RO         7552    .ARM.Collect$$libshutdown$$00000010  c_w.l(libshutdown2.o)
    0x080002b8   0x00000000   Code   RO         7231    .ARM.Collect$$rtentry$$00000000  c_w.l(__rtentry.o)
    0x080002b8   0x00000000   Code   RO         7337    .ARM.Collect$$rtentry$$00000002  c_w.l(__rtentry2.o)
    0x080002b8   0x00000006   Code   RO         7349    .ARM.Collect$$rtentry$$00000004  c_w.l(__rtentry4.o)
    0x080002be   0x00000000   Code   RO         7339    .ARM.Collect$$rtentry$$00000009  c_w.l(__rtentry2.o)
    0x080002be   0x00000004   Code   RO         7340    .ARM.Collect$$rtentry$$0000000A  c_w.l(__rtentry2.o)
    0x080002c2   0x00000000   Code   RO         7342    .ARM.Collect$$rtentry$$0000000C  c_w.l(__rtentry2.o)
    0x080002c2   0x00000008   Code   RO         7343    .ARM.Collect$$rtentry$$0000000D  c_w.l(__rtentry2.o)
    0x080002ca   0x00000002   Code   RO         7480    .ARM.Collect$$rtexit$$00000000  c_w.l(rtexit.o)
    0x080002cc   0x00000000   Code   RO         7496    .ARM.Collect$$rtexit$$00000002  c_w.l(rtexit2.o)
    0x080002cc   0x00000004   Code   RO         7497    .ARM.Collect$$rtexit$$00000003  c_w.l(rtexit2.o)
    0x080002d0   0x00000006   Code   RO         7498    .ARM.Collect$$rtexit$$00000004  c_w.l(rtexit2.o)
    0x080002d6   0x00000002   PAD
    0x080002d8   0x0000003c   Code   RO            4    .text               startup_stm32g473xx.o
    0x08000314   0x00000002   Code   RO         7162    .text               c_w.l(use_no_semi_2.o)
    0x08000316   0x000000ee   Code   RO         7164    .text               c_w.l(lludivv7m.o)
    0x08000404   0x00000018   Code   RO         7168    .text               c_w.l(__2printf.o)
    0x0800041c   0x00000078   Code   RO         7174    .text               c_w.l(_printf_dec.o)
    0x08000494   0x00000188   Code   RO         7193    .text               c_w.l(__printf_flags_ss_wp.o)
    0x0800061c   0x00000064   Code   RO         7201    .text               c_w.l(rt_memcpy_w.o)
    0x08000680   0x0000004e   Code   RO         7203    .text               c_w.l(rt_memclr_w.o)
    0x080006ce   0x00000006   Code   RO         7205    .text               c_w.l(heapauxi.o)
    0x080006d4   0x00000002   Code   RO         7229    .text               c_w.l(use_no_semi.o)
    0x080006d6   0x00000016   Code   RO         7236    .text               c_w.l(_rserrno.o)
    0x080006ec   0x000000b2   Code   RO         7244    .text               c_w.l(_printf_intcommon.o)
    0x0800079e   0x0000041a   Code   RO         7248    .text               c_w.l(_printf_fp_dec.o)
    0x08000bb8   0x00000030   Code   RO         7250    .text               c_w.l(_printf_char_common.o)
    0x08000be8   0x00000024   Code   RO         7254    .text               c_w.l(_printf_char_file.o)
    0x08000c0c   0x00000008   Code   RO         7356    .text               c_w.l(rt_locale_intlibspace.o)
    0x08000c14   0x00000008   Code   RO         7361    .text               c_w.l(rt_errno_addr_intlibspace.o)
    0x08000c1c   0x0000008a   Code   RO         7363    .text               c_w.l(lludiv10.o)
    0x08000ca6   0x00000002   PAD
    0x08000ca8   0x00000080   Code   RO         7368    .text               c_w.l(_printf_fp_infnan.o)
    0x08000d28   0x000000dc   Code   RO         7376    .text               c_w.l(bigflt0.o)
    0x08000e04   0x00000008   Code   RO         7401    .text               c_w.l(ferror.o)
    0x08000e0c   0x00000008   Code   RO         7414    .text               c_w.l(libspace.o)
    0x08000e14   0x0000004a   Code   RO         7417    .text               c_w.l(sys_stackheap_outer.o)
    0x08000e5e   0x00000012   Code   RO         7421    .text               c_w.l(exit.o)
    0x08000e70   0x00000080   Code   RO         7427    .text               c_w.l(strcmpv7m.o)
    0x08000ef0   0x00000098   Code   RO         7023    .text.arm_cos_f32   arm_cortexM4lf_math.lib(arm_cos_f32.o)
    0x08000f88   0x00000090   Code   RO         7032    .text.arm_sin_f32   arm_cortexM4lf_math.lib(arm_sin_f32.o)
    0x08001018   0x0000003e   Code   RO         7379    CL$$btod_d2e        c_w.l(btod.o)
    0x08001056   0x00000046   Code   RO         7381    CL$$btod_d2e_denorm_low  c_w.l(btod.o)
    0x0800109c   0x00000060   Code   RO         7380    CL$$btod_d2e_norm_op1  c_w.l(btod.o)
    0x080010fc   0x00000338   Code   RO         7389    CL$$btod_div_common  c_w.l(btod.o)
    0x08001434   0x000000c6   Code   RO         7386    CL$$btod_e2e        c_w.l(btod.o)
    0x080014fa   0x00000028   Code   RO         7383    CL$$btod_ediv       c_w.l(btod.o)
    0x08001522   0x00000028   Code   RO         7382    CL$$btod_emul       c_w.l(btod.o)
    0x0800154a   0x00000244   Code   RO         7388    CL$$btod_mult_common  c_w.l(btod.o)
    0x0800178e   0x00000002   PAD
    0x08001790   0x0000001c   Code   RO          536    i.ADC1_2_IRQHandler  stm32g4xx_it.o
    0x080017ac   0x0000000c   Code   RO          537    i.ADC3_IRQHandler   stm32g4xx_it.o
    0x080017b8   0x00000070   Code   RO          703    i.ADC_Disable       stm32g4xx_hal_adc.o
    0x08001828   0x000000c4   Code   RO          704    i.ADC_Enable        stm32g4xx_hal_adc.o
    0x080018ec   0x00000040   Code   RO         5019    i.BSP_Init          bsp.o
    0x0800192c   0x00000002   Code   RO          538    i.BusFault_Handler  stm32g4xx_it.o
    0x0800192e   0x00000002   PAD
    0x08001930   0x00000054   Code   RO         5114    i.CC6920SO_CalcCur  cc6920so.o
    0x08001984   0x00000090   Code   RO         5115    i.CC6920SO_Init     cc6920so.o
    0x08001a14   0x00000054   Code   RO         5647    i.CDC_Control_FS    usbd_cdc_if.o
    0x08001a68   0x00000004   Code   RO         5648    i.CDC_DeInit_FS     usbd_cdc_if.o
    0x08001a6c   0x00000018   Code   RO         5649    i.CDC_Init_FS       usbd_cdc_if.o
    0x08001a84   0x0000001c   Code   RO         5650    i.CDC_Receive_FS    usbd_cdc_if.o
    0x08001aa0   0x0000000c   Code   RO          539    i.DMA1_Channel1_IRQHandler  stm32g4xx_it.o
    0x08001aac   0x0000000c   Code   RO          540    i.DMA1_Channel2_IRQHandler  stm32g4xx_it.o
    0x08001ab8   0x0000000c   Code   RO          541    i.DMA1_Channel3_IRQHandler  stm32g4xx_it.o
    0x08001ac4   0x00000040   Code   RO         2013    i.DMA_CalcDMAMUXChannelBaseAndMask  stm32g4xx_hal_dma.o
    0x08001b04   0x00000024   Code   RO         2014    i.DMA_CalcDMAMUXRequestGenBaseAndMask  stm32g4xx_hal_dma.o
    0x08001b28   0x00000002   Code   RO          542    i.DebugMon_Handler  stm32g4xx_it.o
    0x08001b2a   0x00000002   PAD
    0x08001b2c   0x000000c0   Code   RO         5974    i.Debug_Task        debug.o
    0x08001bec   0x00000004   Code   RO           13    i.Error_Handler     main.o
    0x08001bf0   0x0000002c   Code   RO         6180    i.FOC_App_Run       foc_app.o
    0x08001c1c   0x0000001c   Code   RO         6464    i.FOC_Clarke        foc_math.o
    0x08001c38   0x00000100   Code   RO         6228    i.FOC_Current_Calib  foc_current.o
    0x08001d38   0x0000006c   Code   RO         6789    i.FOC_ENC_Angle_Calc  foc_encoder.o
    0x08001da4   0x00000044   Code   RO         6791    i.FOC_ENC_IRQHandler  foc_encoder.o
    0x08001de8   0x00000012   Code   RO         6792    i.FOC_ENC_Init      foc_encoder.o
    0x08001dfa   0x00000002   PAD
    0x08001dfc   0x000000b0   Code   RO         6793    i.FOC_ENC_Speed_Calc_M  foc_encoder.o
    0x08001eac   0x0000002c   Code   RO         6465    i.FOC_ERR           foc_math.o
    0x08001ed8   0x000000f8   Code   RO         6899    i.FOC_FLUX_Angle_Calc  foc_flux.o
    0x08001fd0   0x000000a8   Code   RO         6900    i.FOC_FLUX_Angle_PLL  foc_flux.o
    0x08002078   0x00000018   Code   RO         6902    i.FOC_FLUX_Clear    foc_flux.o
    0x08002090   0x00000054   Code   RO         6903    i.FOC_FLUX_EFFECTIVE_Angle_Calc  foc_flux.o
    0x080020e4   0x0000005c   Code   RO         6904    i.FOC_FLUX_I_Calc   foc_flux.o
    0x08002140   0x00000084   Code   RO         6905    i.FOC_FLUX_Init     foc_flux.o
    0x080021c4   0x00000080   Code   RO         6906    i.FOC_FLUX_Speed_Calc  foc_flux.o
    0x08002244   0x000000b8   Code   RO         6907    i.FOC_FLUX_V_Calc   foc_flux.o
    0x080022fc   0x0000000c   Code   RO         6795    i.FOC_Get_ENC_Count  foc_encoder.o
    0x08002308   0x00000014   Code   RO         6796    i.FOC_Get_ENC_Dir   foc_encoder.o
    0x0800231c   0x000000a8   Code   RO         6854    i.FOC_HALL_Angle_Calc  foc_hall.o
    0x080023c4   0x000001a0   Code   RO         6855    i.FOC_HALL_CC_IRQ_Handler  foc_hall.o
    0x08002564   0x0000013c   Code   RO         6856    i.FOC_HALL_Init     foc_hall.o
    0x080026a0   0x00000104   Code   RO         6384    i.FOC_HFI_Angle_Calc  foc_hfi.o
    0x080027a4   0x00000006   Code   RO         6385    i.FOC_HFI_Clear     foc_hfi.o
    0x080027aa   0x0000003a   Code   RO         6388    i.FOC_HFI_Init      foc_hfi.o
    0x080027e4   0x00000034   Code   RO         6389    i.FOC_HFI_Inject    foc_hfi.o
    0x08002818   0x000000d0   Code   RO         6390    i.FOC_HFI_InjectPolIdent  foc_hfi.o
    0x080028e8   0x0000003c   Code   RO         6391    i.FOC_HFI_Speed_Calc  foc_hfi.o
    0x08002924   0x00000016   Code   RO         6392    i.FOC_HFI_alphabeta_HF  foc_hfi.o
    0x0800293a   0x00000016   Code   RO         6393    i.FOC_HFI_alphabeta_LF  foc_hfi.o
    0x08002950   0x0000003c   Code   RO         6971    i.FOC_Identify_Init  foc_identify.o
    0x0800298c   0x000000f8   Code   RO         6975    i.FOC_Identify_R_QD  foc_identify.o
    0x08002a84   0x00000180   Code   RO         6181    i.FOC_Init          foc_app.o
    0x08002c04   0x00000006   Code   RO         6108    i.FOC_Motor_Init    foc_motor.o
    0x08002c0a   0x00000002   PAD
    0x08002c0c   0x00000110   Code   RO         6110    i.FOC_Motor_Run     foc_motor.o
    0x08002d1c   0x0000002a   Code   RO         6111    i.FOC_Motor_Speed_Calc  foc_motor.o
    0x08002d46   0x00000002   PAD
    0x08002d48   0x00000030   Code   RO         6112    i.FOC_Motor_Speed_Ctrl  foc_motor.o
    0x08002d78   0x00000028   Code   RO         6590    i.FOC_PWM_Init      foc_pwm.o
    0x08002da0   0x0000004c   Code   RO         6591    i.FOC_PWM_Run       foc_pwm.o
    0x08002dec   0x0000008c   Code   RO         6011    i.FOC_Port_Pwm_Start  foc_port.o
    0x08002e78   0x0000003c   Code   RO         6012    i.FOC_Port_Pwm_Stop  foc_port.o
    0x08002eb4   0x00000058   Code   RO         6013    i.FOC_Port_Start    foc_port.o
    0x08002f0c   0x00000044   Code   RO         6467    i.FOC_Rev_Park      foc_math.o
    0x08002f50   0x00000012   Code   RO         6468    i.FOC_SIGN_Judgment  foc_math.o
    0x08002f62   0x00000002   PAD
    0x08002f64   0x0000009c   Code   RO         6642    i.FOC_SL_DirErr     foc_sensorless.o
    0x08003000   0x00000104   Code   RO         6643    i.FOC_SL_HFI_SMO_SW  foc_sensorless.o
    0x08003104   0x000001a8   Code   RO         6644    i.FOC_SL_RUN        foc_sensorless.o
    0x080032ac   0x000000d8   Code   RO         6706    i.FOC_SMO_Angle_Calc  foc_smo.o
    0x08003384   0x00000024   Code   RO         6707    i.FOC_SMO_Clear     foc_smo.o
    0x080033a8   0x00000022   Code   RO         6708    i.FOC_SMO_Init      foc_smo.o
    0x080033ca   0x00000002   PAD
    0x080033cc   0x00000088   Code   RO         6709    i.FOC_SMO_Speed_Calc  foc_smo.o
    0x08003454   0x000000a0   Code   RO         6647    i.FOC_Sensorless_Init  foc_sensorless.o
    0x080034f4   0x0000004e   Code   RO         6648    i.FOC_Sensorless_Speed_Cale  foc_sensorless.o
    0x08003542   0x00000004   Code   RO         6182    i.FOC_Start         foc_app.o
    0x08003546   0x00000032   Code   RO         6753    i.FOC_VF_Angle_Calc  foc_vf.o
    0x08003578   0x00000012   Code   RO         6754    i.FOC_VF_Init       foc_vf.o
    0x0800358a   0x00000002   PAD
    0x0800358c   0x00000058   Code   RO         6755    i.FOC_VF_Speed_Calc  foc_vf.o
    0x080035e4   0x00000018   Code   RO         6230    i.FOC_turnOn_LowSide  foc_current.o
    0x080035fc   0x000000a4   Code   RO         6015    i.Foc_Current_Refresh  foc_port.o
    0x080036a0   0x00000044   Code   RO         6469    i.Foc_Park          foc_math.o
    0x080036e4   0x00000094   Code   RO          937    i.HAL_ADCEx_Calibration_Start  stm32g4xx_hal_adc_ex.o
    0x08003778   0x00000002   Code   RO          941    i.HAL_ADCEx_EndOfSamplingCallback  stm32g4xx_hal_adc_ex.o
    0x0800377a   0x00000002   PAD
    0x0800377c   0x00000560   Code   RO          943    i.HAL_ADCEx_InjectedConfigChannel  stm32g4xx_hal_adc_ex.o
    0x08003cdc   0x00000050   Code   RO         5147    i.HAL_ADCEx_InjectedConvCpltCallback  bsp_irq.o
    0x08003d2c   0x0000002e   Code   RO          945    i.HAL_ADCEx_InjectedGetValue  stm32g4xx_hal_adc_ex.o
    0x08003d5a   0x00000002   Code   RO          947    i.HAL_ADCEx_InjectedQueueOverflowCallback  stm32g4xx_hal_adc_ex.o
    0x08003d5c   0x00000158   Code   RO          949    i.HAL_ADCEx_InjectedStart_IT  stm32g4xx_hal_adc_ex.o
    0x08003eb4   0x00000002   Code   RO          952    i.HAL_ADCEx_LevelOutOfWindow2Callback  stm32g4xx_hal_adc_ex.o
    0x08003eb6   0x00000002   Code   RO          953    i.HAL_ADCEx_LevelOutOfWindow3Callback  stm32g4xx_hal_adc_ex.o
    0x08003eb8   0x00000160   Code   RO          954    i.HAL_ADCEx_MultiModeConfigChannel  stm32g4xx_hal_adc_ex.o
    0x08004018   0x0000046c   Code   RO          706    i.HAL_ADC_ConfigChannel  stm32g4xx_hal_adc.o
    0x08004484   0x00000002   Code   RO         5148    i.HAL_ADC_ConvCpltCallback  bsp_irq.o
    0x08004486   0x00000002   Code   RO          710    i.HAL_ADC_ErrorCallback  stm32g4xx_hal_adc.o
    0x08004488   0x000002b8   Code   RO          714    i.HAL_ADC_IRQHandler  stm32g4xx_hal_adc.o
    0x08004740   0x00000230   Code   RO          715    i.HAL_ADC_Init      stm32g4xx_hal_adc.o
    0x08004970   0x00000002   Code   RO          716    i.HAL_ADC_LevelOutOfWindowCallback  stm32g4xx_hal_adc.o
    0x08004972   0x00000002   PAD
    0x08004974   0x0000020c   Code   RO          254    i.HAL_ADC_MspInit   adc.o
    0x08004b80   0x000000ba   Code   RO         2021    i.HAL_DMA_IRQHandler  stm32g4xx_hal_dma.o
    0x08004c3a   0x00000002   PAD
    0x08004c3c   0x000000c0   Code   RO         2022    i.HAL_DMA_Init      stm32g4xx_hal_dma.o
    0x08004cfc   0x00000024   Code   RO         1153    i.HAL_Delay         stm32g4xx_hal.o
    0x08004d20   0x00000248   Code   RO         1878    i.HAL_GPIO_Init     stm32g4xx_hal_gpio.o
    0x08004f68   0x0000000a   Code   RO         1880    i.HAL_GPIO_ReadPin  stm32g4xx_hal_gpio.o
    0x08004f72   0x00000010   Code   RO         1881    i.HAL_GPIO_TogglePin  stm32g4xx_hal_gpio.o
    0x08004f82   0x0000000a   Code   RO         1882    i.HAL_GPIO_WritePin  stm32g4xx_hal_gpio.o
    0x08004f8c   0x0000000c   Code   RO         1157    i.HAL_GetTick       stm32g4xx_hal.o
    0x08004f98   0x00000010   Code   RO         1163    i.HAL_IncTick       stm32g4xx_hal.o
    0x08004fa8   0x0000001e   Code   RO         1164    i.HAL_Init          stm32g4xx_hal.o
    0x08004fc6   0x00000002   PAD
    0x08004fc8   0x00000044   Code   RO         1165    i.HAL_InitTick      stm32g4xx_hal.o
    0x0800500c   0x0000003c   Code   RO          675    i.HAL_MspInit       stm32g4xx_hal_msp.o
    0x08005048   0x0000001a   Code   RO         2525    i.HAL_NVIC_EnableIRQ  stm32g4xx_hal_cortex.o
    0x08005062   0x00000002   PAD
    0x08005064   0x00000040   Code   RO         2531    i.HAL_NVIC_SetPriority  stm32g4xx_hal_cortex.o
    0x080050a4   0x00000024   Code   RO         2532    i.HAL_NVIC_SetPriorityGrouping  stm32g4xx_hal_cortex.o
    0x080050c8   0x00000024   Code   RO         4570    i.HAL_PCDEx_ActivateLPM  stm32g4xx_hal_pcd_ex.o
    0x080050ec   0x00000002   Code   RO         4575    i.HAL_PCDEx_LPM_Callback  stm32g4xx_hal_pcd_ex.o
    0x080050ee   0x0000003c   Code   RO         4576    i.HAL_PCDEx_PMAConfig  stm32g4xx_hal_pcd_ex.o
    0x0800512a   0x00000012   Code   RO         5719    i.HAL_PCD_DataInStageCallback  usbd_conf.o
    0x0800513c   0x00000014   Code   RO         5720    i.HAL_PCD_DataOutStageCallback  usbd_conf.o
    0x08005150   0x0000004a   Code   RO         4348    i.HAL_PCD_EP_Close  stm32g4xx_hal_pcd.o
    0x0800519a   0x0000005a   Code   RO         4349    i.HAL_PCD_EP_ClrStall  stm32g4xx_hal_pcd.o
    0x080051f4   0x000000dc   Code   RO         4350    i.HAL_PCD_EP_DB_Receive  stm32g4xx_hal_pcd.o
    0x080052d0   0x00000340   Code   RO         4351    i.HAL_PCD_EP_DB_Transmit  stm32g4xx_hal_pcd.o
    0x08005610   0x00000012   Code   RO         4353    i.HAL_PCD_EP_GetRxCount  stm32g4xx_hal_pcd.o
    0x08005622   0x00000058   Code   RO         4354    i.HAL_PCD_EP_Open   stm32g4xx_hal_pcd.o
    0x0800567a   0x0000002e   Code   RO         4355    i.HAL_PCD_EP_Receive  stm32g4xx_hal_pcd.o
    0x080056a8   0x0000005e   Code   RO         4356    i.HAL_PCD_EP_SetStall  stm32g4xx_hal_pcd.o
    0x08005706   0x0000002e   Code   RO         4357    i.HAL_PCD_EP_Transmit  stm32g4xx_hal_pcd.o
    0x08005734   0x0000014a   Code   RO         4359    i.HAL_PCD_IRQHandler  stm32g4xx_hal_pcd.o
    0x0800587e   0x00000002   PAD
    0x08005880   0x0000009c   Code   RO         4362    i.HAL_PCD_Init      stm32g4xx_hal_pcd.o
    0x0800591c   0x00000058   Code   RO          495    i.HAL_PCD_MspInit   usb.o
    0x08005974   0x00000064   Code   RO         5724    i.HAL_PCD_ResetCallback  usbd_conf.o
    0x080059d8   0x00000040   Code   RO         5725    i.HAL_PCD_ResumeCallback  usbd_conf.o
    0x08005a18   0x00000008   Code   RO         5726    i.HAL_PCD_SOFCallback  usbd_conf.o
    0x08005a20   0x00000026   Code   RO         4368    i.HAL_PCD_SetAddress  stm32g4xx_hal_pcd.o
    0x08005a46   0x0000000e   Code   RO         5727    i.HAL_PCD_SetupStageCallback  usbd_conf.o
    0x08005a54   0x0000002a   Code   RO         4370    i.HAL_PCD_Start     stm32g4xx_hal_pcd.o
    0x08005a7e   0x00000002   PAD
    0x08005a80   0x00000050   Code   RO         5728    i.HAL_PCD_SuspendCallback  usbd_conf.o
    0x08005ad0   0x000000bc   Code   RO         2281    i.HAL_PWREx_ControlVoltageScaling  stm32g4xx_hal_pwr_ex.o
    0x08005b8c   0x00000010   Code   RO         2293    i.HAL_PWREx_DisableUCPDDeadBattery  stm32g4xx_hal_pwr_ex.o
    0x08005b9c   0x0000004c   Code   RO         1506    i.HAL_RCCEx_CRSConfig  stm32g4xx_hal_rcc_ex.o
    0x08005be8   0x00000300   Code   RO         1524    i.HAL_RCCEx_PeriphCLKConfig  stm32g4xx_hal_rcc_ex.o
    0x08005ee8   0x000001dc   Code   RO         1399    i.HAL_RCC_ClockConfig  stm32g4xx_hal_rcc.o
    0x080060c4   0x00000024   Code   RO         1407    i.HAL_RCC_GetPCLK1Freq  stm32g4xx_hal_rcc.o
    0x080060e8   0x00000024   Code   RO         1408    i.HAL_RCC_GetPCLK2Freq  stm32g4xx_hal_rcc.o
    0x0800610c   0x00000070   Code   RO         1409    i.HAL_RCC_GetSysClockFreq  stm32g4xx_hal_rcc.o
    0x0800617c   0x00000404   Code   RO         1412    i.HAL_RCC_OscConfig  stm32g4xx_hal_rcc.o
    0x08006580   0x00000010   Code   RO         1174    i.HAL_SYSCFG_DisableVREFBUF  stm32g4xx_hal.o
    0x08006590   0x00000014   Code   RO         1179    i.HAL_SYSCFG_VREFBUF_HighImpedanceConfig  stm32g4xx_hal.o
    0x080065a4   0x00000018   Code   RO         2534    i.HAL_SYSTICK_CLKSourceConfig  stm32g4xx_hal_cortex.o
    0x080065bc   0x00000028   Code   RO         2536    i.HAL_SYSTICK_Config  stm32g4xx_hal_cortex.o
    0x080065e4   0x00000002   Code   RO         3371    i.HAL_TIMEx_Break2Callback  stm32g4xx_hal_tim_ex.o
    0x080065e6   0x00000002   Code   RO         3372    i.HAL_TIMEx_BreakCallback  stm32g4xx_hal_tim_ex.o
    0x080065e8   0x00000002   Code   RO         3373    i.HAL_TIMEx_CommutCallback  stm32g4xx_hal_tim_ex.o
    0x080065ea   0x00000002   PAD
    0x080065ec   0x000000a8   Code   RO         3376    i.HAL_TIMEx_ConfigBreakDeadTime  stm32g4xx_hal_tim_ex.o
    0x08006694   0x00000002   Code   RO         3384    i.HAL_TIMEx_DirectionChangeCallback  stm32g4xx_hal_tim_ex.o
    0x08006696   0x00000002   Code   RO         3398    i.HAL_TIMEx_EncoderIndexCallback  stm32g4xx_hal_tim_ex.o
    0x08006698   0x000000dc   Code   RO         3403    i.HAL_TIMEx_HallSensor_Init  stm32g4xx_hal_tim_ex.o
    0x08006774   0x00000070   Code   RO          333    i.HAL_TIMEx_HallSensor_MspInit  tim.o
    0x080067e4   0x000000bc   Code   RO         3408    i.HAL_TIMEx_HallSensor_Start_IT  stm32g4xx_hal_tim_ex.o
    0x080068a0   0x00000002   Code   RO         3412    i.HAL_TIMEx_IndexErrorCallback  stm32g4xx_hal_tim_ex.o
    0x080068a2   0x00000002   PAD
    0x080068a4   0x000000b8   Code   RO         3413    i.HAL_TIMEx_MasterConfigSynchronization  stm32g4xx_hal_tim_ex.o
    0x0800695c   0x000000cc   Code   RO         3425    i.HAL_TIMEx_PWMN_Start  stm32g4xx_hal_tim_ex.o
    0x08006a28   0x00000068   Code   RO         3428    i.HAL_TIMEx_PWMN_Stop  stm32g4xx_hal_tim_ex.o
    0x08006a90   0x00000002   Code   RO         3434    i.HAL_TIMEx_TransitionErrorCallback  stm32g4xx_hal_tim_ex.o
    0x08006a92   0x00000062   Code   RO         2657    i.HAL_TIM_Base_Init  stm32g4xx_hal_tim.o
    0x08006af4   0x0000003c   Code   RO          335    i.HAL_TIM_Base_MspInit  tim.o
    0x08006b30   0x0000008c   Code   RO         2662    i.HAL_TIM_Base_Start_IT  stm32g4xx_hal_tim.o
    0x08006bbc   0x000000a8   Code   RO         2678    i.HAL_TIM_Encoder_Init  stm32g4xx_hal_tim.o
    0x08006c64   0x00000060   Code   RO          337    i.HAL_TIM_Encoder_MspInit  tim.o
    0x08006cc4   0x0000008e   Code   RO         2681    i.HAL_TIM_Encoder_Start  stm32g4xx_hal_tim.o
    0x08006d52   0x00000002   PAD
    0x08006d54   0x00000034   Code   RO         5149    i.HAL_TIM_IC_CaptureCallback  bsp_irq.o
    0x08006d88   0x00000124   Code   RO         2693    i.HAL_TIM_IC_ConfigChannel  stm32g4xx_hal_tim.o
    0x08006eac   0x00000062   Code   RO         2696    i.HAL_TIM_IC_Init   stm32g4xx_hal_tim.o
    0x08006f0e   0x00000002   PAD
    0x08006f10   0x00000070   Code   RO          339    i.HAL_TIM_IC_MspInit  tim.o
    0x08006f80   0x00000140   Code   RO         2701    i.HAL_TIM_IC_Start_IT  stm32g4xx_hal_tim.o
    0x080070c0   0x000001a2   Code   RO         2705    i.HAL_TIM_IRQHandler  stm32g4xx_hal_tim.o
    0x08007262   0x00000002   PAD
    0x08007264   0x00000094   Code   RO          340    i.HAL_TIM_MspPostInit  tim.o
    0x080072f8   0x00000002   Code   RO         5150    i.HAL_TIM_OC_DelayElapsedCallback  bsp_irq.o
    0x080072fa   0x00000002   PAD
    0x080072fc   0x00000140   Code   RO         2715    i.HAL_TIM_OC_Start_IT  stm32g4xx_hal_tim.o
    0x0800743c   0x000000f8   Code   RO         2718    i.HAL_TIM_OC_Stop_IT  stm32g4xx_hal_tim.o
    0x08007534   0x00000124   Code   RO         2729    i.HAL_TIM_PWM_ConfigChannel  stm32g4xx_hal_tim.o
    0x08007658   0x00000062   Code   RO         2732    i.HAL_TIM_PWM_Init  stm32g4xx_hal_tim.o
    0x080076ba   0x00000002   PAD
    0x080076bc   0x0000003c   Code   RO          342    i.HAL_TIM_PWM_MspInit  tim.o
    0x080076f8   0x00000002   Code   RO         2735    i.HAL_TIM_PWM_PulseFinishedCallback  stm32g4xx_hal_tim.o
    0x080076fa   0x00000002   PAD
    0x080076fc   0x00000114   Code   RO         2737    i.HAL_TIM_PWM_Start  stm32g4xx_hal_tim.o
    0x08007810   0x000000b8   Code   RO         2740    i.HAL_TIM_PWM_Stop  stm32g4xx_hal_tim.o
    0x080078c8   0x00000038   Code   RO         5151    i.HAL_TIM_PeriodElapsedCallback  bsp_irq.o
    0x08007900   0x00000002   Code   RO         2748    i.HAL_TIM_TriggerCallback  stm32g4xx_hal_tim.o
    0x08007902   0x0000003e   Code   RO         4220    i.HAL_UARTEx_DisableFifoMode  stm32g4xx_hal_uart_ex.o
    0x08007940   0x0000004c   Code   RO         4229    i.HAL_UARTEx_SetRxFifoThreshold  stm32g4xx_hal_uart_ex.o
    0x0800798c   0x0000004c   Code   RO         4230    i.HAL_UARTEx_SetTxFifoThreshold  stm32g4xx_hal_uart_ex.o
    0x080079d8   0x0000006a   Code   RO         3829    i.HAL_UART_Init     stm32g4xx_hal_uart.o
    0x08007a42   0x00000002   PAD
    0x08007a44   0x0000007c   Code   RO          453    i.HAL_UART_MspInit  usart.o
    0x08007ac0   0x00000002   Code   RO          543    i.HardFault_Handler  stm32g4xx_it.o
    0x08007ac2   0x00000002   PAD
    0x08007ac4   0x00000038   Code   RO         5901    i.IntToUnicode      usbd_desc.o
    0x08007afc   0x0000000c   Code   RO          729    i.LL_ADC_GetOffsetChannel  stm32g4xx_hal_adc.o
    0x08007b08   0x0000000c   Code   RO          962    i.LL_ADC_GetOffsetChannel  stm32g4xx_hal_adc_ex.o
    0x08007b14   0x00000008   Code   RO          730    i.LL_ADC_INJ_IsConversionOngoing  stm32g4xx_hal_adc.o
    0x08007b1c   0x00000008   Code   RO          963    i.LL_ADC_INJ_IsConversionOngoing  stm32g4xx_hal_adc_ex.o
    0x08007b24   0x00000008   Code   RO          731    i.LL_ADC_REG_IsConversionOngoing  stm32g4xx_hal_adc.o
    0x08007b2c   0x00000008   Code   RO          964    i.LL_ADC_REG_IsConversionOngoing  stm32g4xx_hal_adc_ex.o
    0x08007b34   0x00000010   Code   RO          732    i.LL_ADC_REG_IsTriggerSourceSWStart  stm32g4xx_hal_adc.o
    0x08007b44   0x0000001e   Code   RO          734    i.LL_ADC_SetChannelSamplingTime  stm32g4xx_hal_adc.o
    0x08007b62   0x0000001e   Code   RO          965    i.LL_ADC_SetChannelSamplingTime  stm32g4xx_hal_adc_ex.o
    0x08007b80   0x00000010   Code   RO          735    i.LL_ADC_SetOffsetState  stm32g4xx_hal_adc.o
    0x08007b90   0x00000010   Code   RO          966    i.LL_ADC_SetOffsetState  stm32g4xx_hal_adc_ex.o
    0x08007ba0   0x00000040   Code   RO         6470    i.Limit_Angle       foc_math.o
    0x08007be0   0x000000e8   Code   RO          255    i.MX_ADC1_Init      adc.o
    0x08007cc8   0x000000c8   Code   RO          256    i.MX_ADC2_Init      adc.o
    0x08007d90   0x000000e8   Code   RO          257    i.MX_ADC3_Init      adc.o
    0x08007e78   0x0000005c   Code   RO          308    i.MX_DMA_Init       dma.o
    0x08007ed4   0x0000006c   Code   RO          229    i.MX_GPIO_Init      gpio.o
    0x08007f40   0x0000010c   Code   RO          343    i.MX_TIM1_Init      tim.o
    0x0800804c   0x0000006c   Code   RO          344    i.MX_TIM2_Init      tim.o
    0x080080b8   0x00000070   Code   RO          345    i.MX_TIM3_Init      tim.o
    0x08008128   0x0000005c   Code   RO          346    i.MX_TIM5_Init      tim.o
    0x08008184   0x00000048   Code   RO          347    i.MX_TIM6_Init      tim.o
    0x080081cc   0x00000068   Code   RO          454    i.MX_USART1_UART_Init  usart.o
    0x08008234   0x0000003c   Code   RO         5598    i.MX_USB_Device_Init  usb_device.o
    0x08008270   0x00000038   Code   RO          496    i.MX_USB_PCD_Init   usb.o
    0x080082a8   0x00000002   Code   RO          544    i.MemManage_Handler  stm32g4xx_it.o
    0x080082aa   0x000000e0   Code   RO         6113    i.Motor_ABZ_ENC_RUN  foc_motor.o
    0x0800838a   0x000000e0   Code   RO         6114    i.Motor_HALL_RUN    foc_motor.o
    0x0800846a   0x00000088   Code   RO         6115    i.Motor_Run_Open    foc_motor.o
    0x080084f2   0x00000002   PAD
    0x080084f4   0x000001b0   Code   RO         6116    i.Motor_SL_RUN      foc_motor.o
    0x080086a4   0x00000030   Code   RO         6304    i.Move_Filter_Clear  foc_filter.o
    0x080086d4   0x00000022   Code   RO         6305    i.Move_Filter_Init  foc_filter.o
    0x080086f6   0x00000002   PAD
    0x080086f8   0x00000040   Code   RO         6306    i.Move_Filter_calculate  foc_filter.o
    0x08008738   0x0000004a   Code   RO         6307    i.Move_Filter_fill  foc_filter.o
    0x08008782   0x00000002   Code   RO          545    i.NMI_Handler       stm32g4xx_it.o
    0x08008784   0x00000396   Code   RO         4373    i.PCD_EP_ISR_Handler  stm32g4xx_hal_pcd.o
    0x08008b1a   0x00000002   PAD
    0x08008b1c   0x0000003c   Code   RO         6533    i.PID_Clear         foc_pid.o
    0x08008b58   0x0000002c   Code   RO         6535    i.PID_Init          foc_pid.o
    0x08008b84   0x00000268   Code   RO         6536    i.PID_Position_ctrl  foc_pid.o
    0x08008dec   0x000000a8   Code   RO         6309    i.PLL_Cale_HFI      foc_filter.o
    0x08008e94   0x000000ac   Code   RO         6310    i.PLL_Cale_SMO      foc_filter.o
    0x08008f40   0x00000024   Code   RO         6311    i.PLL_Clear         foc_filter.o
    0x08008f64   0x0000000e   Code   RO         6312    i.PLL_Init          foc_filter.o
    0x08008f72   0x00000002   Code   RO          546    i.PendSV_Handler    stm32g4xx_it.o
    0x08008f74   0x00000002   Code   RO          547    i.SVC_Handler       stm32g4xx_it.o
    0x08008f76   0x0000000a   Code   RO         5358    i.SWAPBYTE          usbd_ctlreq.o
    0x08008f80   0x0000002e   Code   RO         6710    i.Sat               foc_smo.o
    0x08008fae   0x00000002   PAD
    0x08008fb0   0x00000078   Code   RO         6594    i.Sector_Judgment   foc_pwm.o
    0x08009028   0x0000002c   Code   RO          548    i.SysTick_Handler   stm32g4xx_it.o
    0x08009054   0x0000006e   Code   RO           14    i.SystemClock_Config  main.o
    0x080090c2   0x00000002   PAD
    0x080090c4   0x00000010   Code   RO         4786    i.SystemInit        system_stm32g4xx.o
    0x080090d4   0x0000000c   Code   RO          549    i.TIM1_UP_TIM16_IRQHandler  stm32g4xx_it.o
    0x080090e0   0x0000000c   Code   RO          550    i.TIM2_IRQHandler   stm32g4xx_it.o
    0x080090ec   0x0000000c   Code   RO          551    i.TIM5_IRQHandler   stm32g4xx_it.o
    0x080090f8   0x0000000c   Code   RO          552    i.TIM6_DAC_IRQHandler  stm32g4xx_it.o
    0x08009104   0x000000e4   Code   RO         2750    i.TIM_Base_SetConfig  stm32g4xx_hal_tim.o
    0x080091e8   0x0000001a   Code   RO         2751    i.TIM_CCxChannelCmd  stm32g4xx_hal_tim.o
    0x08009202   0x0000001a   Code   RO         3437    i.TIM_CCxNChannelCmd  stm32g4xx_hal_tim_ex.o
    0x0800921c   0x000000ac   Code   RO         2763    i.TIM_OC1_SetConfig  stm32g4xx_hal_tim.o
    0x080092c8   0x000000a0   Code   RO         2764    i.TIM_OC2_SetConfig  stm32g4xx_hal_tim.o
    0x08009368   0x000000a0   Code   RO         2765    i.TIM_OC3_SetConfig  stm32g4xx_hal_tim.o
    0x08009408   0x000000a0   Code   RO         2766    i.TIM_OC4_SetConfig  stm32g4xx_hal_tim.o
    0x080094a8   0x00000078   Code   RO         2767    i.TIM_OC5_SetConfig  stm32g4xx_hal_tim.o
    0x08009520   0x0000007c   Code   RO         2768    i.TIM_OC6_SetConfig  stm32g4xx_hal_tim.o
    0x0800959c   0x00000080   Code   RO         2771    i.TIM_TI1_SetConfig  stm32g4xx_hal_tim.o
    0x0800961c   0x00000036   Code   RO         2773    i.TIM_TI2_SetConfig  stm32g4xx_hal_tim.o
    0x08009652   0x00000002   PAD
    0x08009654   0x00000044   Code   RO         4234    i.UARTEx_SetNbDataToProcess  stm32g4xx_hal_uart_ex.o
    0x08009698   0x000000c8   Code   RO         3843    i.UART_AdvFeatureConfig  stm32g4xx_hal_uart.o
    0x08009760   0x000000ac   Code   RO         3844    i.UART_CheckIdleState  stm32g4xx_hal_uart.o
    0x0800980c   0x00000054   Code   RO         3855    i.UART_EndRxTransfer  stm32g4xx_hal_uart.o
    0x08009860   0x00000298   Code   RO         3861    i.UART_SetConfig    stm32g4xx_hal_uart.o
    0x08009af8   0x00000094   Code   RO         3868    i.UART_WaitOnFlagUntilTimeout  stm32g4xx_hal_uart.o
    0x08009b8c   0x00000020   Code   RO         5902    i.USBD_CDC_ConfigStrDescriptor  usbd_desc.o
    0x08009bac   0x0000005e   Code   RO         5491    i.USBD_CDC_DataIn   usbd_cdc.o
    0x08009c0a   0x0000002a   Code   RO         5492    i.USBD_CDC_DataOut  usbd_cdc.o
    0x08009c34   0x00000040   Code   RO         5493    i.USBD_CDC_DeInit   usbd_cdc.o
    0x08009c74   0x0000000c   Code   RO         5903    i.USBD_CDC_DeviceDescriptor  usbd_desc.o
    0x08009c80   0x0000002e   Code   RO         5494    i.USBD_CDC_EP0_RxReady  usbd_cdc.o
    0x08009cae   0x00000002   PAD
    0x08009cb0   0x0000000c   Code   RO         5495    i.USBD_CDC_GetDeviceQualifierDescriptor  usbd_cdc.o
    0x08009cbc   0x0000000c   Code   RO         5496    i.USBD_CDC_GetFSCfgDesc  usbd_cdc.o
    0x08009cc8   0x0000000c   Code   RO         5497    i.USBD_CDC_GetHSCfgDesc  usbd_cdc.o
    0x08009cd4   0x0000000c   Code   RO         5498    i.USBD_CDC_GetOtherSpeedCfgDesc  usbd_cdc.o
    0x08009ce0   0x00000090   Code   RO         5499    i.USBD_CDC_Init     usbd_cdc.o
    0x08009d70   0x00000024   Code   RO         5904    i.USBD_CDC_InterfaceStrDescriptor  usbd_desc.o
    0x08009d94   0x0000000c   Code   RO         5905    i.USBD_CDC_LangIDStrDescriptor  usbd_desc.o
    0x08009da0   0x00000028   Code   RO         5906    i.USBD_CDC_ManufacturerStrDescriptor  usbd_desc.o
    0x08009dc8   0x00000038   Code   RO         5907    i.USBD_CDC_ProductStrDescriptor  usbd_desc.o
    0x08009e00   0x00000028   Code   RO         5500    i.USBD_CDC_ReceivePacket  usbd_cdc.o
    0x08009e28   0x0000000e   Code   RO         5501    i.USBD_CDC_RegisterInterface  usbd_cdc.o
    0x08009e36   0x00000002   PAD
